{
  "_format": "hh-sol-artifact-1",
  "contractName": "Marketplace",
  "sourceName": "contracts/Marketplace.sol",
  "abi": [
    {
      "inputs": [
        {
          "internalType": "address",
          "name": "_tokenAddress",
          "type": "address"
        }
      ],
      "stateMutability": "nonpayable",
      "type": "constructor"
    },
    {
      "inputs": [
        {
          "internalType": "string",
          "name": "_offerCID",
          "type": "string"
        },
        {
          "internalType": "uint256",
          "name": "_price",
          "type": "uint256"
        }
      ],
      "name": "createOffer",
      "outputs": [],
      "stateMutability": "nonpayable",
      "type": "function"
    },
    {
      "inputs": [],
      "name": "nextOfferId",
      "outputs": [
        {
          "internalType": "uint256",
          "name": "",
          "type": "uint256"
        }
      ],
      "stateMutability": "view",
      "type": "function"
    },
    {
      "inputs": [],
      "name": "nextPurchaseId",
      "outputs": [
        {
          "internalType": "uint256",
          "name": "",
          "type": "uint256"
        }
      ],
      "stateMutability": "view",
      "type": "function"
    },
    {
      "inputs": [
        {
          "internalType": "uint256",
          "name": "",
          "type": "uint256"
        }
      ],
      "name": "offers",
      "outputs": [
        {
          "internalType": "string",
          "name": "offerCID",
          "type": "string"
        },
        {
          "internalType": "address",
          "name": "seller",
          "type": "address"
        },
        {
          "internalType": "uint256",
          "name": "price",
          "type": "uint256"
        }
      ],
      "stateMutability": "view",
      "type": "function"
    },
    {
      "inputs": [
        {
          "internalType": "uint256",
          "name": "_purchaseId",
          "type": "uint256"
        },
        {
          "internalType": "uint256",
          "name": "_amount",
          "type": "uint256"
        }
      ],
      "name": "payWithToken",
      "outputs": [],
      "stateMutability": "nonpayable",
      "type": "function"
    },
    {
      "inputs": [
        {
          "internalType": "uint256",
          "name": "_offerId",
          "type": "uint256"
        }
      ],
      "name": "purchaseOffer",
      "outputs": [],
      "stateMutability": "nonpayable",
      "type": "function"
    },
    {
      "inputs": [
        {
          "internalType": "uint256",
          "name": "",
          "type": "uint256"
        }
      ],
      "name": "purchases",
      "outputs": [
        {
          "internalType": "string",
          "name": "purchaseCID",
          "type": "string"
        },
        {
          "internalType": "address",
          "name": "buyer",
          "type": "address"
        },
        {
          "internalType": "bool",
          "name": "refunded",
          "type": "bool"
        }
      ],
      "stateMutability": "view",
      "type": "function"
    },
    {
      "inputs": [
        {
          "internalType": "uint256",
          "name": "_purchaseId",
          "type": "uint256"
        }
      ],
      "name": "refund",
      "outputs": [],
      "stateMutability": "nonpayable",
      "type": "function"
    },
    {
      "inputs": [
        {
          "internalType": "address",
          "name": "_user",
          "type": "address"
        },
        {
          "internalType": "enum Marketplace.UserRole",
          "name": "_role",
          "type": "uint8"
        }
      ],
      "name": "setUserRole",
      "outputs": [],
      "stateMutability": "nonpayable",
      "type": "function"
    },
    {
      "inputs": [],
      "name": "token",
      "outputs": [
        {
          "internalType": "contract ERC20",
          "name": "",
          "type": "address"
        }
      ],
      "stateMutability": "view",
      "type": "function"
    },
    {
      "inputs": [
        {
          "internalType": "uint256",
          "name": "_offerId",
          "type": "uint256"
        },
        {
          "internalType": "string",
          "name": "_offerCID",
          "type": "string"
        },
        {
          "internalType": "uint256",
          "name": "_newPrice",
          "type": "uint256"
        }
      ],
      "name": "updateOffer",
      "outputs": [],
      "stateMutability": "nonpayable",
      "type": "function"
    },
    {
      "inputs": [
        {
          "internalType": "address",
          "name": "",
          "type": "address"
        }
      ],
      "name": "userRoles",
      "outputs": [
        {
          "internalType": "enum Marketplace.UserRole",
          "name": "",
          "type": "uint8"
        }
      ],
      "stateMutability": "view",
      "type": "function"
    }
  ],
  "bytecode": "0x60806040523480156200001157600080fd5b506040516200214938038062002149833981810160405281019062000037919062000163565b80600560006101000a81548173ffffffffffffffffffffffffffffffffffffffff021916908373ffffffffffffffffffffffffffffffffffffffff16021790555060008060003373ffffffffffffffffffffffffffffffffffffffff1673ffffffffffffffffffffffffffffffffffffffff16815260200190815260200160002060006101000a81548160ff02191690836002811115620000dd57620000dc62000195565b5b02179055506000600381905550600060048190555050620001c4565b600080fd5b600073ffffffffffffffffffffffffffffffffffffffff82169050919050565b60006200012b82620000fe565b9050919050565b6200013d816200011e565b81146200014957600080fd5b50565b6000815190506200015d8162000132565b92915050565b6000602082840312156200017c576200017b620000f9565b5b60006200018c848285016200014c565b91505092915050565b7f4e487b7100000000000000000000000000000000000000000000000000000000600052602160045260246000fd5b611f7580620001d46000396000f3fe608060405234801561001057600080fd5b50600436106100b45760003560e01c80636ecbba0d116100715780636ecbba0d1461016557806374d5e100146101815780637e0b455b146101b15780638392fe31146101cd5780638a72ea6a146101ff578063fc0c546a14610231576100b4565b806303a69611146100b95780630ce2e153146100d557806323b4a7a3146100f1578063278ecde11461010f5780632839376f1461012b5780635f5d065514610147575b600080fd5b6100d360048036038101906100ce91906111ad565b61024f565b005b6100ef60048036038101906100ea9190611223565b61036d565b005b6100f96106b4565b604051610106919061125f565b60405180910390f35b61012960048036038101906101249190611223565b6106ba565b005b6101456004803603810190610140919061127a565b610a2e565b005b61014f610c0f565b60405161015c919061125f565b60405180910390f35b61017f600480360381019061017a9190611400565b610c15565b005b61019b6004803603810190610196919061146f565b610d49565b6040516101a89190611513565b60405180910390f35b6101cb60048036038101906101c6919061152e565b610d69565b005b6101e760048036038101906101e29190611223565b610f31565b6040516101f69392919061163c565b60405180910390f35b61021960048036038101906102149190611223565b611010565b6040516102289392919061167a565b60405180910390f35b6102396110e2565b6040516102469190611717565b60405180910390f35b60008060028111156102645761026361149c565b5b6000803373ffffffffffffffffffffffffffffffffffffffff1673ffffffffffffffffffffffffffffffffffffffff16815260200190815260200160002060009054906101000a900460ff1660028111156102c2576102c161149c565b5b14610302576040517f08c379a00000000000000000000000000000000000000000000000000000000081526004016102f99061177e565b60405180910390fd5b816000808573ffffffffffffffffffffffffffffffffffffffff1673ffffffffffffffffffffffffffffffffffffffff16815260200190815260200160002060006101000a81548160ff021916908360028111156103635761036261149c565b5b0217905550505050565b60028060028111156103825761038161149c565b5b6000803373ffffffffffffffffffffffffffffffffffffffff1673ffffffffffffffffffffffffffffffffffffffff16815260200190815260200160002060009054906101000a900460ff1660028111156103e0576103df61149c565b5b14610420576040517f08c379a00000000000000000000000000000000000000000000000000000000081526004016104179061177e565b60405180910390fd5b6000600260008481526020019081526020016000209050600560009054906101000a900473ffffffffffffffffffffffffffffffffffffffff1673ffffffffffffffffffffffffffffffffffffffff166323b872dd338360010160009054906101000a900473ffffffffffffffffffffffffffffffffffffffff1684600201546040518463ffffffff1660e01b81526004016104be9392919061179e565b6020604051808303816000875af11580156104dd573d6000803e3d6000fd5b505050506040513d601f19601f820116820180604052508101906105019190611801565b610540576040517f08c379a00000000000000000000000000000000000000000000000000000000081526004016105379061187a565b60405180910390fd5b600060046000815480929190610555906118c9565b919050559050604051806060016040528083600001805461057590611940565b80601f01602080910402602001604051908101604052809291908181526020018280546105a190611940565b80156105ee5780601f106105c3576101008083540402835291602001916105ee565b820191906000526020600020905b8154815290600101906020018083116105d157829003601f168201915b505050505081526020013373ffffffffffffffffffffffffffffffffffffffff168152602001600015158152506001600083815260200190815260200160002060008201518160000190816106439190611b13565b5060208201518160010160006101000a81548173ffffffffffffffffffffffffffffffffffffffff021916908373ffffffffffffffffffffffffffffffffffffffff16021790555060408201518160010160146101000a81548160ff02191690831515021790555090505050505050565b60045481565b60028060028111156106cf576106ce61149c565b5b6000803373ffffffffffffffffffffffffffffffffffffffff1673ffffffffffffffffffffffffffffffffffffffff16815260200190815260200160002060009054906101000a900460ff16600281111561072d5761072c61149c565b5b1461076d576040517f08c379a00000000000000000000000000000000000000000000000000000000081526004016107649061177e565b60405180910390fd5b60006001600084815260200190815260200160002090503373ffffffffffffffffffffffffffffffffffffffff168160010160009054906101000a900473ffffffffffffffffffffffffffffffffffffffff1673ffffffffffffffffffffffffffffffffffffffff1614610816576040517f08c379a000000000000000000000000000000000000000000000000000000000815260040161080d90611c57565b60405180910390fd5b8060010160149054906101000a900460ff1615610868576040517f08c379a000000000000000000000000000000000000000000000000000000000815260040161085f90611ce9565b60405180910390fd5b6000600560009054906101000a900473ffffffffffffffffffffffffffffffffffffffff1673ffffffffffffffffffffffffffffffffffffffff166370a08231306040518263ffffffff1660e01b81526004016108c59190611d09565b602060405180830381865afa1580156108e2573d6000803e3d6000fd5b505050506040513d601f19601f820116820180604052508101906109069190611d39565b9050600560009054906101000a900473ffffffffffffffffffffffffffffffffffffffff1673ffffffffffffffffffffffffffffffffffffffff1663a9059cbb8360010160009054906101000a900473ffffffffffffffffffffffffffffffffffffffff16836040518363ffffffff1660e01b8152600401610989929190611d66565b6020604051808303816000875af11580156109a8573d6000803e3d6000fd5b505050506040513d601f19601f820116820180604052508101906109cc9190611801565b610a0b576040517f08c379a0000000000000000000000000000000000000000000000000000000008152600401610a0290611ddb565b60405180910390fd5b60018260010160146101000a81548160ff02191690831515021790555050505050565b60006001600084815260200190815260200160002090503373ffffffffffffffffffffffffffffffffffffffff168160010160009054906101000a900473ffffffffffffffffffffffffffffffffffffffff1673ffffffffffffffffffffffffffffffffffffffff1614610ad7576040517f08c379a0000000000000000000000000000000000000000000000000000000008152600401610ace90611c57565b60405180910390fd5b8060010160149054906101000a900460ff1615610b29576040517f08c379a0000000000000000000000000000000000000000000000000000000008152600401610b2090611e47565b60405180910390fd5b600560009054906101000a900473ffffffffffffffffffffffffffffffffffffffff1673ffffffffffffffffffffffffffffffffffffffff166323b872dd3330856040518463ffffffff1660e01b8152600401610b889392919061179e565b6020604051808303816000875af1158015610ba7573d6000803e3d6000fd5b505050506040513d601f19601f82011682018060405250810190610bcb9190611801565b610c0a576040517f08c379a0000000000000000000000000000000000000000000000000000000008152600401610c0190611eb3565b60405180910390fd5b505050565b60035481565b6001806002811115610c2a57610c2961149c565b5b6000803373ffffffffffffffffffffffffffffffffffffffff1673ffffffffffffffffffffffffffffffffffffffff16815260200190815260200160002060009054906101000a900460ff166002811115610c8857610c8761149c565b5b14610cc8576040517f08c379a0000000000000000000000000000000000000000000000000000000008152600401610cbf9061177e565b60405180910390fd5b610cd183611108565b610d10576040517f08c379a0000000000000000000000000000000000000000000000000000000008152600401610d0790611f1f565b60405180910390fd5b600060026000868152602001908152602001600020905083816000019081610d389190611b13565b508281600201819055505050505050565b60006020528060005260406000206000915054906101000a900460ff1681565b6001806002811115610d7e57610d7d61149c565b5b6000803373ffffffffffffffffffffffffffffffffffffffff1673ffffffffffffffffffffffffffffffffffffffff16815260200190815260200160002060009054906101000a900460ff166002811115610ddc57610ddb61149c565b5b14610e1c576040517f08c379a0000000000000000000000000000000000000000000000000000000008152600401610e139061177e565b60405180910390fd5b610e2583611108565b610e64576040517f08c379a0000000000000000000000000000000000000000000000000000000008152600401610e5b90611f1f565b60405180910390fd5b60405180606001604052808481526020013373ffffffffffffffffffffffffffffffffffffffff168152602001838152506002600060035481526020019081526020016000206000820151816000019081610ebf9190611b13565b5060208201518160010160006101000a81548173ffffffffffffffffffffffffffffffffffffffff021916908373ffffffffffffffffffffffffffffffffffffffff1602179055506040820151816002015590505060036000815480929190610f27906118c9565b9190505550505050565b6001602052806000526040600020600091509050806000018054610f5490611940565b80601f0160208091040260200160405190810160405280929190818152602001828054610f8090611940565b8015610fcd5780601f10610fa257610100808354040283529160200191610fcd565b820191906000526020600020905b815481529060010190602001808311610fb057829003601f168201915b5050505050908060010160009054906101000a900473ffffffffffffffffffffffffffffffffffffffff16908060010160149054906101000a900460ff16905083565b600260205280600052604060002060009150905080600001805461103390611940565b80601f016020809104026020016040519081016040528092919081815260200182805461105f90611940565b80156110ac5780601f10611081576101008083540402835291602001916110ac565b820191906000526020600020905b81548152906001019060200180831161108f57829003601f168201915b5050505050908060010160009054906101000a900473ffffffffffffffffffffffffffffffffffffffff16908060020154905083565b600560009054906101000a900473ffffffffffffffffffffffffffffffffffffffff1681565b6000602e8251149050919050565b6000604051905090565b600080fd5b600080fd5b600073ffffffffffffffffffffffffffffffffffffffff82169050919050565b60006111558261112a565b9050919050565b6111658161114a565b811461117057600080fd5b50565b6000813590506111828161115c565b92915050565b6003811061119557600080fd5b50565b6000813590506111a781611188565b92915050565b600080604083850312156111c4576111c3611120565b5b60006111d285828601611173565b92505060206111e385828601611198565b9150509250929050565b6000819050919050565b611200816111ed565b811461120b57600080fd5b50565b60008135905061121d816111f7565b92915050565b60006020828403121561123957611238611120565b5b60006112478482850161120e565b91505092915050565b611259816111ed565b82525050565b60006020820190506112746000830184611250565b92915050565b6000806040838503121561129157611290611120565b5b600061129f8582860161120e565b92505060206112b08582860161120e565b9150509250929050565b600080fd5b600080fd5b6000601f19601f8301169050919050565b7f4e487b7100000000000000000000000000000000000000000000000000000000600052604160045260246000fd5b61130d826112c4565b810181811067ffffffffffffffff8211171561132c5761132b6112d5565b5b80604052505050565b600061133f611116565b905061134b8282611304565b919050565b600067ffffffffffffffff82111561136b5761136a6112d5565b5b611374826112c4565b9050602081019050919050565b82818337600083830152505050565b60006113a361139e84611350565b611335565b9050828152602081018484840111156113bf576113be6112bf565b5b6113ca848285611381565b509392505050565b600082601f8301126113e7576113e66112ba565b5b81356113f7848260208601611390565b91505092915050565b60008060006060848603121561141957611418611120565b5b60006114278682870161120e565b935050602084013567ffffffffffffffff81111561144857611447611125565b5b611454868287016113d2565b92505060406114658682870161120e565b9150509250925092565b60006020828403121561148557611484611120565b5b600061149384828501611173565b91505092915050565b7f4e487b7100000000000000000000000000000000000000000000000000000000600052602160045260246000fd5b600381106114dc576114db61149c565b5b50565b60008190506114ed826114cb565b919050565b60006114fd826114df565b9050919050565b61150d816114f2565b82525050565b60006020820190506115286000830184611504565b92915050565b6000806040838503121561154557611544611120565b5b600083013567ffffffffffffffff81111561156357611562611125565b5b61156f858286016113d2565b92505060206115808582860161120e565b9150509250929050565b600081519050919050565b600082825260208201905092915050565b60005b838110156115c45780820151818401526020810190506115a9565b838111156115d3576000848401525b50505050565b60006115e48261158a565b6115ee8185611595565b93506115fe8185602086016115a6565b611607816112c4565b840191505092915050565b61161b8161114a565b82525050565b60008115159050919050565b61163681611621565b82525050565b6000606082019050818103600083015261165681866115d9565b90506116656020830185611612565b611672604083018461162d565b949350505050565b6000606082019050818103600083015261169481866115d9565b90506116a36020830185611612565b6116b06040830184611250565b949350505050565b6000819050919050565b60006116dd6116d86116d38461112a565b6116b8565b61112a565b9050919050565b60006116ef826116c2565b9050919050565b6000611701826116e4565b9050919050565b611711816116f6565b82525050565b600060208201905061172c6000830184611708565b92915050565b7f556e617574686f72697a65640000000000000000000000000000000000000000600082015250565b6000611768600c83611595565b915061177382611732565b602082019050919050565b600060208201905081810360008301526117978161175b565b9050919050565b60006060820190506117b36000830186611612565b6117c06020830185611612565b6117cd6040830184611250565b949350505050565b6117de81611621565b81146117e957600080fd5b50565b6000815190506117fb816117d5565b92915050565b60006020828403121561181757611816611120565b5b6000611825848285016117ec565b91505092915050565b7f4661696c656420746f207472616e7366657220746f6b656e7300000000000000600082015250565b6000611864601983611595565b915061186f8261182e565b602082019050919050565b6000602082019050818103600083015261189381611857565b9050919050565b7f4e487b7100000000000000000000000000000000000000000000000000000000600052601160045260246000fd5b60006118d4826111ed565b91507fffffffffffffffffffffffffffffffffffffffffffffffffffffffffffffffff82036119065761190561189a565b5b600182019050919050565b7f4e487b7100000000000000000000000000000000000000000000000000000000600052602260045260246000fd5b6000600282049050600182168061195857607f821691505b60208210810361196b5761196a611911565b5b50919050565b60008190508160005260206000209050919050565b60006020601f8301049050919050565b600082821b905092915050565b6000600883026119d37fffffffffffffffffffffffffffffffffffffffffffffffffffffffffffffffff82611996565b6119dd8683611996565b95508019841693508086168417925050509392505050565b6000611a10611a0b611a06846111ed565b6116b8565b6111ed565b9050919050565b6000819050919050565b611a2a836119f5565b611a3e611a3682611a17565b8484546119a3565b825550505050565b600090565b611a53611a46565b611a5e818484611a21565b505050565b5b81811015611a8257611a77600082611a4b565b600181019050611a64565b5050565b601f821115611ac757611a9881611971565b611aa184611986565b81016020851015611ab0578190505b611ac4611abc85611986565b830182611a63565b50505b505050565b600082821c905092915050565b6000611aea60001984600802611acc565b1980831691505092915050565b6000611b038383611ad9565b9150826002028217905092915050565b611b1c8261158a565b67ffffffffffffffff811115611b3557611b346112d5565b5b611b3f8254611940565b611b4a828285611a86565b600060209050601f831160018114611b7d5760008415611b6b578287015190505b611b758582611af7565b865550611bdd565b601f198416611b8b86611971565b60005b82811015611bb357848901518255600182019150602085019450602081019050611b8e565b86831015611bd05784890151611bcc601f891682611ad9565b8355505b6001600288020188555050505b505050505050565b7f596f7520617265206e6f7420746865206275796572206f66207468697320707560008201527f7263686173650000000000000000000000000000000000000000000000000000602082015250565b6000611c41602683611595565b9150611c4c82611be5565b604082019050919050565b60006020820190508181036000830152611c7081611c34565b9050919050565b7f546869732070757263686173652068617320616c7265616479206265656e207260008201527f6566756e64656400000000000000000000000000000000000000000000000000602082015250565b6000611cd3602783611595565b9150611cde82611c77565b604082019050919050565b60006020820190508181036000830152611d0281611cc6565b9050919050565b6000602082019050611d1e6000830184611612565b92915050565b600081519050611d33816111f7565b92915050565b600060208284031215611d4f57611d4e611120565b5b6000611d5d84828501611d24565b91505092915050565b6000604082019050611d7b6000830185611612565b611d886020830184611250565b9392505050565b7f526566756e64206661696c656400000000000000000000000000000000000000600082015250565b6000611dc5600d83611595565b9150611dd082611d8f565b602082019050919050565b60006020820190508181036000830152611df481611db8565b9050919050565b7f5468697320707572636861736520686173206265656e20726566756e64656400600082015250565b6000611e31601f83611595565b9150611e3c82611dfb565b602082019050919050565b60006020820190508181036000830152611e6081611e24565b9050919050565b7f546f6b656e207472616e73666572206661696c65640000000000000000000000600082015250565b6000611e9d601583611595565b9150611ea882611e67565b602082019050919050565b60006020820190508181036000830152611ecc81611e90565b9050919050565b7f496e76616c696420434944000000000000000000000000000000000000000000600082015250565b6000611f09600b83611595565b9150611f1482611ed3565b602082019050919050565b60006020820190508181036000830152611f3881611efc565b905091905056fea26469706673582212208dc0cf8455ead0e71f9654ee633a9dca8d8ba7b5f1a49bf9128f869e7ea369fe64736f6c634300080f0033",
  "linkReferences": {},
  "deployedLinkReferences": {}
}