{
	"contracts/Marketplace.sol": {
		"Marketplace": {
			"abi": [
				{
					"inputs": [
						{
							"internalType": "address",
							"name": "_tokenAddress",
							"type": "address"
						}
					],
					"stateMutability": "nonpayable",
					"type": "constructor"
				},
				{
					"inputs": [
						{
							"internalType": "string",
							"name": "_offerCID",
							"type": "string"
						},
						{
							"internalType": "uint256",
							"name": "_price",
							"type": "uint256"
						}
					],
					"name": "createOffer",
					"outputs": [],
					"stateMutability": "nonpayable",
					"type": "function"
				},
				{
					"inputs": [],
					"name": "nextOfferId",
					"outputs": [
						{
							"internalType": "uint256",
							"name": "",
							"type": "uint256"
						}
					],
					"stateMutability": "view",
					"type": "function"
				},
				{
					"inputs": [],
					"name": "nextPurchaseId",
					"outputs": [
						{
							"internalType": "uint256",
							"name": "",
							"type": "uint256"
						}
					],
					"stateMutability": "view",
					"type": "function"
				},
				{
					"inputs": [
						{
							"internalType": "uint256",
							"name": "",
							"type": "uint256"
						}
					],
					"name": "offers",
					"outputs": [
						{
							"internalType": "string",
							"name": "offerCID",
							"type": "string"
						},
						{
							"internalType": "address",
							"name": "seller",
							"type": "address"
						},
						{
							"internalType": "uint256",
							"name": "price",
							"type": "uint256"
						}
					],
					"stateMutability": "view",
					"type": "function"
				},
				{
					"inputs": [
						{
							"internalType": "uint256",
							"name": "_purchaseId",
							"type": "uint256"
						},
						{
							"internalType": "uint256",
							"name": "_amount",
							"type": "uint256"
						}
					],
					"name": "payWithToken",
					"outputs": [],
					"stateMutability": "nonpayable",
					"type": "function"
				},
				{
					"inputs": [
						{
							"internalType": "uint256",
							"name": "_offerId",
							"type": "uint256"
						}
					],
					"name": "purchaseOffer",
					"outputs": [],
					"stateMutability": "nonpayable",
					"type": "function"
				},
				{
					"inputs": [
						{
							"internalType": "uint256",
							"name": "",
							"type": "uint256"
						}
					],
					"name": "purchases",
					"outputs": [
						{
							"internalType": "string",
							"name": "purchaseCID",
							"type": "string"
						},
						{
							"internalType": "address",
							"name": "buyer",
							"type": "address"
						},
						{
							"internalType": "bool",
							"name": "refunded",
							"type": "bool"
						}
					],
					"stateMutability": "view",
					"type": "function"
				},
				{
					"inputs": [
						{
							"internalType": "uint256",
							"name": "_purchaseId",
							"type": "uint256"
						}
					],
					"name": "refund",
					"outputs": [],
					"stateMutability": "nonpayable",
					"type": "function"
				},
				{
					"inputs": [
						{
							"internalType": "address",
							"name": "_user",
							"type": "address"
						},
						{
							"internalType": "enum Marketplace.UserRole",
							"name": "_role",
							"type": "uint8"
						}
					],
					"name": "setUserRole",
					"outputs": [],
					"stateMutability": "nonpayable",
					"type": "function"
				},
				{
					"inputs": [],
					"name": "token",
					"outputs": [
						{
							"internalType": "contract ERC20",
							"name": "",
							"type": "address"
						}
					],
					"stateMutability": "view",
					"type": "function"
				},
				{
					"inputs": [
						{
							"internalType": "uint256",
							"name": "_offerId",
							"type": "uint256"
						},
						{
							"internalType": "string",
							"name": "_offerCID",
							"type": "string"
						},
						{
							"internalType": "uint256",
							"name": "_newPrice",
							"type": "uint256"
						}
					],
					"name": "updateOffer",
					"outputs": [],
					"stateMutability": "nonpayable",
					"type": "function"
				},
				{
					"inputs": [
						{
							"internalType": "address",
							"name": "",
							"type": "address"
						}
					],
					"name": "userRoles",
					"outputs": [
						{
							"internalType": "enum Marketplace.UserRole",
							"name": "",
							"type": "uint8"
						}
					],
					"stateMutability": "view",
					"type": "function"
				}
			],
			"devdoc": {
				"kind": "dev",
				"methods": {},
				"version": 1
			},
			"evm": {
				"assembly": "    /* \"contracts/Marketplace.sol\":387:3514  contract Marketplace {... */\n  mstore(0x40, 0x80)\n    /* \"contracts/Marketplace.sol\":1050:1231  constructor(address _tokenAddress) {... */\n  callvalue\n  dup1\n  iszero\n  tag_1\n  jumpi\n  0x00\n  dup1\n  revert\ntag_1:\n  pop\n  mload(0x40)\n  sub(codesize, bytecodeSize)\n  dup1\n  bytecodeSize\n  dup4\n  codecopy\n  dup2\n  dup2\n  add\n  0x40\n  mstore\n  dup2\n  add\n  swap1\n  tag_2\n  swap2\n  swap1\n  tag_3\n  jump\t// in\ntag_2:\n    /* \"contracts/Marketplace.sol\":1109:1122  _tokenAddress */\n  dup1\n    /* \"contracts/Marketplace.sol\":1095:1100  token */\n  0x05\n  0x00\n    /* \"contracts/Marketplace.sol\":1095:1123  token = ERC20(_tokenAddress) */\n  0x0100\n  exp\n  dup2\n  sload\n  dup2\n  0xffffffffffffffffffffffffffffffffffffffff\n  mul\n  not\n  and\n  swap1\n  dup4\n  0xffffffffffffffffffffffffffffffffffffffff\n  and\n  mul\n  or\n  swap1\n  sstore\n  pop\n    /* \"contracts/Marketplace.sol\":1157:1171  UserRole.Admin */\n  0x00\n    /* \"contracts/Marketplace.sol\":1133:1142  userRoles */\n  dup1\n    /* \"contracts/Marketplace.sol\":1133:1154  userRoles[msg.sender] */\n  0x00\n    /* \"contracts/Marketplace.sol\":1143:1153  msg.sender */\n  caller\n    /* \"contracts/Marketplace.sol\":1133:1154  userRoles[msg.sender] */\n  0xffffffffffffffffffffffffffffffffffffffff\n  and\n  0xffffffffffffffffffffffffffffffffffffffff\n  and\n  dup2\n  mstore\n  0x20\n  add\n  swap1\n  dup2\n  mstore\n  0x20\n  add\n  0x00\n  keccak256\n  0x00\n    /* \"contracts/Marketplace.sol\":1133:1171  userRoles[msg.sender] = UserRole.Admin */\n  0x0100\n  exp\n  dup2\n  sload\n  dup2\n  0xff\n  mul\n  not\n  and\n  swap1\n  dup4\n  0x02\n  dup2\n  gt\n  iszero\n  tag_6\n  jumpi\n  tag_7\n  tag_8\n  jump\t// in\ntag_7:\ntag_6:\n  mul\n  or\n  swap1\n  sstore\n  pop\n    /* \"contracts/Marketplace.sol\":1195:1196  0 */\n  0x00\n    /* \"contracts/Marketplace.sol\":1181:1192  nextOfferId */\n  0x03\n    /* \"contracts/Marketplace.sol\":1181:1196  nextOfferId = 0 */\n  dup2\n  swap1\n  sstore\n  pop\n    /* \"contracts/Marketplace.sol\":1223:1224  0 */\n  0x00\n    /* \"contracts/Marketplace.sol\":1206:1220  nextPurchaseId */\n  0x04\n    /* \"contracts/Marketplace.sol\":1206:1224  nextPurchaseId = 0 */\n  dup2\n  swap1\n  sstore\n  pop\n    /* \"contracts/Marketplace.sol\":1050:1231  constructor(address _tokenAddress) {... */\n  pop\n    /* \"contracts/Marketplace.sol\":387:3514  contract Marketplace {... */\n  jump(tag_9)\n    /* \"#utility.yul\":88:205   */\ntag_11:\n    /* \"#utility.yul\":197:198   */\n  0x00\n    /* \"#utility.yul\":194:195   */\n  dup1\n    /* \"#utility.yul\":187:199   */\n  revert\n    /* \"#utility.yul\":334:460   */\ntag_13:\n    /* \"#utility.yul\":371:378   */\n  0x00\n    /* \"#utility.yul\":411:453   */\n  0xffffffffffffffffffffffffffffffffffffffff\n    /* \"#utility.yul\":404:409   */\n  dup3\n    /* \"#utility.yul\":400:454   */\n  and\n    /* \"#utility.yul\":389:454   */\n  swap1\n  pop\n    /* \"#utility.yul\":334:460   */\n  swap2\n  swap1\n  pop\n  jump\t// out\n    /* \"#utility.yul\":466:562   */\ntag_14:\n    /* \"#utility.yul\":503:510   */\n  0x00\n    /* \"#utility.yul\":532:556   */\n  tag_23\n    /* \"#utility.yul\":550:555   */\n  dup3\n    /* \"#utility.yul\":532:556   */\n  tag_13\n  jump\t// in\ntag_23:\n    /* \"#utility.yul\":521:556   */\n  swap1\n  pop\n    /* \"#utility.yul\":466:562   */\n  swap2\n  swap1\n  pop\n  jump\t// out\n    /* \"#utility.yul\":568:690   */\ntag_15:\n    /* \"#utility.yul\":641:665   */\n  tag_25\n    /* \"#utility.yul\":659:664   */\n  dup2\n    /* \"#utility.yul\":641:665   */\n  tag_14\n  jump\t// in\ntag_25:\n    /* \"#utility.yul\":634:639   */\n  dup2\n    /* \"#utility.yul\":631:666   */\n  eq\n    /* \"#utility.yul\":621:684   */\n  tag_26\n  jumpi\n    /* \"#utility.yul\":680:681   */\n  0x00\n    /* \"#utility.yul\":677:678   */\n  dup1\n    /* \"#utility.yul\":670:682   */\n  revert\n    /* \"#utility.yul\":621:684   */\ntag_26:\n    /* \"#utility.yul\":568:690   */\n  pop\n  jump\t// out\n    /* \"#utility.yul\":696:839   */\ntag_16:\n    /* \"#utility.yul\":753:758   */\n  0x00\n    /* \"#utility.yul\":784:790   */\n  dup2\n    /* \"#utility.yul\":778:791   */\n  mload\n    /* \"#utility.yul\":769:791   */\n  swap1\n  pop\n    /* \"#utility.yul\":800:833   */\n  tag_28\n    /* \"#utility.yul\":827:832   */\n  dup2\n    /* \"#utility.yul\":800:833   */\n  tag_15\n  jump\t// in\ntag_28:\n    /* \"#utility.yul\":696:839   */\n  swap3\n  swap2\n  pop\n  pop\n  jump\t// out\n    /* \"#utility.yul\":845:1196   */\ntag_3:\n    /* \"#utility.yul\":915:921   */\n  0x00\n    /* \"#utility.yul\":964:966   */\n  0x20\n    /* \"#utility.yul\":952:961   */\n  dup3\n    /* \"#utility.yul\":943:950   */\n  dup5\n    /* \"#utility.yul\":939:962   */\n  sub\n    /* \"#utility.yul\":935:967   */\n  slt\n    /* \"#utility.yul\":932:1051   */\n  iszero\n  tag_30\n  jumpi\n    /* \"#utility.yul\":970:1049   */\n  tag_31\n  tag_11\n  jump\t// in\ntag_31:\n    /* \"#utility.yul\":932:1051   */\ntag_30:\n    /* \"#utility.yul\":1090:1091   */\n  0x00\n    /* \"#utility.yul\":1115:1179   */\n  tag_32\n    /* \"#utility.yul\":1171:1178   */\n  dup5\n    /* \"#utility.yul\":1162:1168   */\n  dup3\n    /* \"#utility.yul\":1151:1160   */\n  dup6\n    /* \"#utility.yul\":1147:1169   */\n  add\n    /* \"#utility.yul\":1115:1179   */\n  tag_16\n  jump\t// in\ntag_32:\n    /* \"#utility.yul\":1105:1179   */\n  swap2\n  pop\n    /* \"#utility.yul\":1061:1189   */\n  pop\n    /* \"#utility.yul\":845:1196   */\n  swap3\n  swap2\n  pop\n  pop\n  jump\t// out\n    /* \"#utility.yul\":1202:1382   */\ntag_8:\n    /* \"#utility.yul\":1250:1327   */\n  0x4e487b7100000000000000000000000000000000000000000000000000000000\n    /* \"#utility.yul\":1247:1248   */\n  0x00\n    /* \"#utility.yul\":1240:1328   */\n  mstore\n    /* \"#utility.yul\":1347:1351   */\n  0x21\n    /* \"#utility.yul\":1344:1345   */\n  0x04\n    /* \"#utility.yul\":1337:1352   */\n  mstore\n    /* \"#utility.yul\":1371:1375   */\n  0x24\n    /* \"#utility.yul\":1368:1369   */\n  0x00\n    /* \"#utility.yul\":1361:1376   */\n  revert\n    /* \"contracts/Marketplace.sol\":387:3514  contract Marketplace {... */\ntag_9:\n  dataSize(sub_0)\n  dup1\n  dataOffset(sub_0)\n  0x00\n  codecopy\n  0x00\n  return\nstop\n\nsub_0: assembly {\n        /* \"contracts/Marketplace.sol\":387:3514  contract Marketplace {... */\n      mstore(0x40, 0x80)\n      callvalue\n      dup1\n      iszero\n      tag_1\n      jumpi\n      0x00\n      dup1\n      revert\n    tag_1:\n      pop\n      jumpi(tag_2, lt(calldatasize, 0x04))\n      shr(0xe0, calldataload(0x00))\n      dup1\n      0x6ecbba0d\n      gt\n      tag_15\n      jumpi\n      dup1\n      0x6ecbba0d\n      eq\n      tag_9\n      jumpi\n      dup1\n      0x74d5e100\n      eq\n      tag_10\n      jumpi\n      dup1\n      0x7e0b455b\n      eq\n      tag_11\n      jumpi\n      dup1\n      0x8392fe31\n      eq\n      tag_12\n      jumpi\n      dup1\n      0x8a72ea6a\n      eq\n      tag_13\n      jumpi\n      dup1\n      0xfc0c546a\n      eq\n      tag_14\n      jumpi\n      jump(tag_2)\n    tag_15:\n      dup1\n      0x03a69611\n      eq\n      tag_3\n      jumpi\n      dup1\n      0x0ce2e153\n      eq\n      tag_4\n      jumpi\n      dup1\n      0x23b4a7a3\n      eq\n      tag_5\n      jumpi\n      dup1\n      0x278ecde1\n      eq\n      tag_6\n      jumpi\n      dup1\n      0x2839376f\n      eq\n      tag_7\n      jumpi\n      dup1\n      0x5f5d0655\n      eq\n      tag_8\n      jumpi\n    tag_2:\n      0x00\n      dup1\n      revert\n        /* \"contracts/Marketplace.sol\":2370:2519  function setUserRole(... */\n    tag_3:\n      tag_16\n      0x04\n      dup1\n      calldatasize\n      sub\n      dup2\n      add\n      swap1\n      tag_17\n      swap2\n      swap1\n      tag_18\n      jump\t// in\n    tag_17:\n      tag_19\n      jump\t// in\n    tag_16:\n      stop\n        /* \"contracts/Marketplace.sol\":1971:2364  function purchaseOffer(uint256 _offerId) external onlyRole(UserRole.Buyer) {... */\n    tag_4:\n      tag_20\n      0x04\n      dup1\n      calldatasize\n      sub\n      dup2\n      add\n      swap1\n      tag_21\n      swap2\n      swap1\n      tag_22\n      jump\t// in\n    tag_21:\n      tag_23\n      jump\t// in\n    tag_20:\n      stop\n        /* \"contracts/Marketplace.sol\":867:896  uint256 public nextPurchaseId */\n    tag_5:\n      tag_24\n      tag_25\n      jump\t// in\n    tag_24:\n      mload(0x40)\n      tag_26\n      swap2\n      swap1\n      tag_27\n      jump\t// in\n    tag_26:\n      mload(0x40)\n      dup1\n      swap2\n      sub\n      swap1\n      return\n        /* \"contracts/Marketplace.sol\":2525:3043  function refund(uint256 _purchaseId) external onlyRole(UserRole.Buyer) {... */\n    tag_6:\n      tag_28\n      0x04\n      dup1\n      calldatasize\n      sub\n      dup2\n      add\n      swap1\n      tag_29\n      swap2\n      swap1\n      tag_22\n      jump\t// in\n    tag_29:\n      tag_30\n      jump\t// in\n    tag_28:\n      stop\n        /* \"contracts/Marketplace.sol\":3049:3512  function payWithToken(uint256 _purchaseId, uint256 _amount) external {... */\n    tag_7:\n      tag_31\n      0x04\n      dup1\n      calldatasize\n      sub\n      dup2\n      add\n      swap1\n      tag_32\n      swap2\n      swap1\n      tag_33\n      jump\t// in\n    tag_32:\n      tag_34\n      jump\t// in\n    tag_31:\n      stop\n        /* \"contracts/Marketplace.sol\":835:861  uint256 public nextOfferId */\n    tag_8:\n      tag_35\n      tag_36\n      jump\t// in\n    tag_35:\n      mload(0x40)\n      tag_37\n      swap2\n      swap1\n      tag_27\n      jump\t// in\n    tag_37:\n      mload(0x40)\n      dup1\n      swap2\n      sub\n      swap1\n      return\n        /* \"contracts/Marketplace.sol\":1638:1965  function updateOffer(... */\n    tag_9:\n      tag_38\n      0x04\n      dup1\n      calldatasize\n      sub\n      dup2\n      add\n      swap1\n      tag_39\n      swap2\n      swap1\n      tag_40\n      jump\t// in\n    tag_39:\n      tag_41\n      jump\t// in\n    tag_38:\n      stop\n        /* \"contracts/Marketplace.sol\":687:732  mapping(address => UserRole) public userRoles */\n    tag_10:\n      tag_42\n      0x04\n      dup1\n      calldatasize\n      sub\n      dup2\n      add\n      swap1\n      tag_43\n      swap2\n      swap1\n      tag_44\n      jump\t// in\n    tag_43:\n      tag_45\n      jump\t// in\n    tag_42:\n      mload(0x40)\n      tag_46\n      swap2\n      swap1\n      tag_47\n      jump\t// in\n    tag_46:\n      mload(0x40)\n      dup1\n      swap2\n      sub\n      swap1\n      return\n        /* \"contracts/Marketplace.sol\":1360:1632  function createOffer(... */\n    tag_11:\n      tag_48\n      0x04\n      dup1\n      calldatasize\n      sub\n      dup2\n      add\n      swap1\n      tag_49\n      swap2\n      swap1\n      tag_50\n      jump\t// in\n    tag_49:\n      tag_51\n      jump\t// in\n    tag_48:\n      stop\n        /* \"contracts/Marketplace.sol\":738:783  mapping(uint256 => Purchase) public purchases */\n    tag_12:\n      tag_52\n      0x04\n      dup1\n      calldatasize\n      sub\n      dup2\n      add\n      swap1\n      tag_53\n      swap2\n      swap1\n      tag_22\n      jump\t// in\n    tag_53:\n      tag_54\n      jump\t// in\n    tag_52:\n      mload(0x40)\n      tag_55\n      swap4\n      swap3\n      swap2\n      swap1\n      tag_56\n      jump\t// in\n    tag_55:\n      mload(0x40)\n      dup1\n      swap2\n      sub\n      swap1\n      return\n        /* \"contracts/Marketplace.sol\":789:828  mapping(uint256 => Offer) public offers */\n    tag_13:\n      tag_57\n      0x04\n      dup1\n      calldatasize\n      sub\n      dup2\n      add\n      swap1\n      tag_58\n      swap2\n      swap1\n      tag_22\n      jump\t// in\n    tag_58:\n      tag_59\n      jump\t// in\n    tag_57:\n      mload(0x40)\n      tag_60\n      swap4\n      swap3\n      swap2\n      swap1\n      tag_61\n      jump\t// in\n    tag_60:\n      mload(0x40)\n      dup1\n      swap2\n      sub\n      swap1\n      return\n        /* \"contracts/Marketplace.sol\":902:920  ERC20 public token */\n    tag_14:\n      tag_62\n      tag_63\n      jump\t// in\n    tag_62:\n      mload(0x40)\n      tag_64\n      swap2\n      swap1\n      tag_65\n      jump\t// in\n    tag_64:\n      mload(0x40)\n      dup1\n      swap2\n      sub\n      swap1\n      return\n        /* \"contracts/Marketplace.sol\":2370:2519  function setUserRole(... */\n    tag_19:\n        /* \"contracts/Marketplace.sol\":2462:2476  UserRole.Admin */\n      0x00\n        /* \"contracts/Marketplace.sol\":1004:1009  _role */\n      dup1\n        /* \"contracts/Marketplace.sol\":979:1009  userRoles[msg.sender] == _role */\n      0x02\n      dup2\n      gt\n      iszero\n      tag_67\n      jumpi\n      tag_68\n      tag_69\n      jump\t// in\n    tag_68:\n    tag_67:\n        /* \"contracts/Marketplace.sol\":979:988  userRoles */\n      0x00\n        /* \"contracts/Marketplace.sol\":979:1000  userRoles[msg.sender] */\n      dup1\n        /* \"contracts/Marketplace.sol\":989:999  msg.sender */\n      caller\n        /* \"contracts/Marketplace.sol\":979:1000  userRoles[msg.sender] */\n      0xffffffffffffffffffffffffffffffffffffffff\n      and\n      0xffffffffffffffffffffffffffffffffffffffff\n      and\n      dup2\n      mstore\n      0x20\n      add\n      swap1\n      dup2\n      mstore\n      0x20\n      add\n      0x00\n      keccak256\n      0x00\n      swap1\n      sload\n      swap1\n      0x0100\n      exp\n      swap1\n      div\n      0xff\n      and\n        /* \"contracts/Marketplace.sol\":979:1009  userRoles[msg.sender] == _role */\n      0x02\n      dup2\n      gt\n      iszero\n      tag_70\n      jumpi\n      tag_71\n      tag_69\n      jump\t// in\n    tag_71:\n    tag_70:\n      eq\n        /* \"contracts/Marketplace.sol\":971:1026  require(userRoles[msg.sender] == _role, 'Unauthorized') */\n      tag_72\n      jumpi\n      mload(0x40)\n      0x08c379a000000000000000000000000000000000000000000000000000000000\n      dup2\n      mstore\n      0x04\n      add\n      tag_73\n      swap1\n      tag_74\n      jump\t// in\n    tag_73:\n      mload(0x40)\n      dup1\n      swap2\n      sub\n      swap1\n      revert\n    tag_72:\n        /* \"contracts/Marketplace.sol\":2507:2512  _role */\n      dup2\n        /* \"contracts/Marketplace.sol\":2488:2497  userRoles */\n      0x00\n        /* \"contracts/Marketplace.sol\":2488:2504  userRoles[_user] */\n      dup1\n        /* \"contracts/Marketplace.sol\":2498:2503  _user */\n      dup6\n        /* \"contracts/Marketplace.sol\":2488:2504  userRoles[_user] */\n      0xffffffffffffffffffffffffffffffffffffffff\n      and\n      0xffffffffffffffffffffffffffffffffffffffff\n      and\n      dup2\n      mstore\n      0x20\n      add\n      swap1\n      dup2\n      mstore\n      0x20\n      add\n      0x00\n      keccak256\n      0x00\n        /* \"contracts/Marketplace.sol\":2488:2512  userRoles[_user] = _role */\n      0x0100\n      exp\n      dup2\n      sload\n      dup2\n      0xff\n      mul\n      not\n      and\n      swap1\n      dup4\n      0x02\n      dup2\n      gt\n      iszero\n      tag_76\n      jumpi\n      tag_77\n      tag_69\n      jump\t// in\n    tag_77:\n    tag_76:\n      mul\n      or\n      swap1\n      sstore\n      pop\n        /* \"contracts/Marketplace.sol\":2370:2519  function setUserRole(... */\n      pop\n      pop\n      pop\n      jump\t// out\n        /* \"contracts/Marketplace.sol\":1971:2364  function purchaseOffer(uint256 _offerId) external onlyRole(UserRole.Buyer) {... */\n    tag_23:\n        /* \"contracts/Marketplace.sol\":2030:2044  UserRole.Buyer */\n      0x02\n        /* \"contracts/Marketplace.sol\":1004:1009  _role */\n      dup1\n        /* \"contracts/Marketplace.sol\":979:1009  userRoles[msg.sender] == _role */\n      0x02\n      dup2\n      gt\n      iszero\n      tag_79\n      jumpi\n      tag_80\n      tag_69\n      jump\t// in\n    tag_80:\n    tag_79:\n        /* \"contracts/Marketplace.sol\":979:988  userRoles */\n      0x00\n        /* \"contracts/Marketplace.sol\":979:1000  userRoles[msg.sender] */\n      dup1\n        /* \"contracts/Marketplace.sol\":989:999  msg.sender */\n      caller\n        /* \"contracts/Marketplace.sol\":979:1000  userRoles[msg.sender] */\n      0xffffffffffffffffffffffffffffffffffffffff\n      and\n      0xffffffffffffffffffffffffffffffffffffffff\n      and\n      dup2\n      mstore\n      0x20\n      add\n      swap1\n      dup2\n      mstore\n      0x20\n      add\n      0x00\n      keccak256\n      0x00\n      swap1\n      sload\n      swap1\n      0x0100\n      exp\n      swap1\n      div\n      0xff\n      and\n        /* \"contracts/Marketplace.sol\":979:1009  userRoles[msg.sender] == _role */\n      0x02\n      dup2\n      gt\n      iszero\n      tag_81\n      jumpi\n      tag_82\n      tag_69\n      jump\t// in\n    tag_82:\n    tag_81:\n      eq\n        /* \"contracts/Marketplace.sol\":971:1026  require(userRoles[msg.sender] == _role, 'Unauthorized') */\n      tag_83\n      jumpi\n      mload(0x40)\n      0x08c379a000000000000000000000000000000000000000000000000000000000\n      dup2\n      mstore\n      0x04\n      add\n      tag_84\n      swap1\n      tag_74\n      jump\t// in\n    tag_84:\n      mload(0x40)\n      dup1\n      swap2\n      sub\n      swap1\n      revert\n    tag_83:\n        /* \"contracts/Marketplace.sol\":2056:2075  Offer storage offer */\n      0x00\n        /* \"contracts/Marketplace.sol\":2078:2084  offers */\n      0x02\n        /* \"contracts/Marketplace.sol\":2078:2094  offers[_offerId] */\n      0x00\n        /* \"contracts/Marketplace.sol\":2085:2093  _offerId */\n      dup5\n        /* \"contracts/Marketplace.sol\":2078:2094  offers[_offerId] */\n      dup2\n      mstore\n      0x20\n      add\n      swap1\n      dup2\n      mstore\n      0x20\n      add\n      0x00\n      keccak256\n        /* \"contracts/Marketplace.sol\":2056:2094  Offer storage offer = offers[_offerId] */\n      swap1\n      pop\n        /* \"contracts/Marketplace.sol\":2125:2130  token */\n      0x05\n      0x00\n      swap1\n      sload\n      swap1\n      0x0100\n      exp\n      swap1\n      div\n      0xffffffffffffffffffffffffffffffffffffffff\n      and\n        /* \"contracts/Marketplace.sol\":2125:2143  token.transferFrom */\n      0xffffffffffffffffffffffffffffffffffffffff\n      and\n      0x23b872dd\n        /* \"contracts/Marketplace.sol\":2144:2154  msg.sender */\n      caller\n        /* \"contracts/Marketplace.sol\":2156:2161  offer */\n      dup4\n        /* \"contracts/Marketplace.sol\":2156:2168  offer.seller */\n      0x01\n      add\n      0x00\n      swap1\n      sload\n      swap1\n      0x0100\n      exp\n      swap1\n      div\n      0xffffffffffffffffffffffffffffffffffffffff\n      and\n        /* \"contracts/Marketplace.sol\":2170:2175  offer */\n      dup5\n        /* \"contracts/Marketplace.sol\":2170:2181  offer.price */\n      0x02\n      add\n      sload\n        /* \"contracts/Marketplace.sol\":2125:2182  token.transferFrom(msg.sender, offer.seller, offer.price) */\n      mload(0x40)\n      dup5\n      0xffffffff\n      and\n      0xe0\n      shl\n      dup2\n      mstore\n      0x04\n      add\n      tag_86\n      swap4\n      swap3\n      swap2\n      swap1\n      tag_87\n      jump\t// in\n    tag_86:\n      0x20\n      mload(0x40)\n      dup1\n      dup4\n      sub\n      dup2\n      0x00\n      dup8\n      gas\n      call\n      iszero\n      dup1\n      iszero\n      tag_89\n      jumpi\n      returndatasize\n      0x00\n      dup1\n      returndatacopy\n      revert(0x00, returndatasize)\n    tag_89:\n      pop\n      pop\n      pop\n      pop\n      mload(0x40)\n      returndatasize\n      not(0x1f)\n      0x1f\n      dup3\n      add\n      and\n      dup3\n      add\n      dup1\n      0x40\n      mstore\n      pop\n      dup2\n      add\n      swap1\n      tag_90\n      swap2\n      swap1\n      tag_91\n      jump\t// in\n    tag_90:\n        /* \"contracts/Marketplace.sol\":2104:2233  require(... */\n      tag_92\n      jumpi\n      mload(0x40)\n      0x08c379a000000000000000000000000000000000000000000000000000000000\n      dup2\n      mstore\n      0x04\n      add\n      tag_93\n      swap1\n      tag_94\n      jump\t// in\n    tag_93:\n      mload(0x40)\n      dup1\n      swap2\n      sub\n      swap1\n      revert\n    tag_92:\n        /* \"contracts/Marketplace.sol\":2243:2261  uint256 purchaseId */\n      0x00\n        /* \"contracts/Marketplace.sol\":2264:2278  nextPurchaseId */\n      0x04\n      0x00\n        /* \"contracts/Marketplace.sol\":2264:2280  nextPurchaseId++ */\n      dup2\n      sload\n      dup1\n      swap3\n      swap2\n      swap1\n      tag_95\n      swap1\n      tag_96\n      jump\t// in\n    tag_95:\n      swap2\n      swap1\n      pop\n      sstore\n        /* \"contracts/Marketplace.sol\":2243:2280  uint256 purchaseId = nextPurchaseId++ */\n      swap1\n      pop\n        /* \"contracts/Marketplace.sol\":2314:2357  Purchase(offer.offerCID, msg.sender, false) */\n      mload(0x40)\n      dup1\n      0x60\n      add\n      0x40\n      mstore\n      dup1\n        /* \"contracts/Marketplace.sol\":2323:2328  offer */\n      dup4\n        /* \"contracts/Marketplace.sol\":2323:2337  offer.offerCID */\n      0x00\n      add\n        /* \"contracts/Marketplace.sol\":2314:2357  Purchase(offer.offerCID, msg.sender, false) */\n      dup1\n      sload\n      tag_97\n      swap1\n      tag_98\n      jump\t// in\n    tag_97:\n      dup1\n      0x1f\n      add\n      0x20\n      dup1\n      swap2\n      div\n      mul\n      0x20\n      add\n      mload(0x40)\n      swap1\n      dup2\n      add\n      0x40\n      mstore\n      dup1\n      swap3\n      swap2\n      swap1\n      dup2\n      dup2\n      mstore\n      0x20\n      add\n      dup3\n      dup1\n      sload\n      tag_99\n      swap1\n      tag_98\n      jump\t// in\n    tag_99:\n      dup1\n      iszero\n      tag_100\n      jumpi\n      dup1\n      0x1f\n      lt\n      tag_101\n      jumpi\n      0x0100\n      dup1\n      dup4\n      sload\n      div\n      mul\n      dup4\n      mstore\n      swap2\n      0x20\n      add\n      swap2\n      jump(tag_100)\n    tag_101:\n      dup3\n      add\n      swap2\n      swap1\n      0x00\n      mstore\n      keccak256(0x00, 0x20)\n      swap1\n    tag_102:\n      dup2\n      sload\n      dup2\n      mstore\n      swap1\n      0x01\n      add\n      swap1\n      0x20\n      add\n      dup1\n      dup4\n      gt\n      tag_102\n      jumpi\n      dup3\n      swap1\n      sub\n      0x1f\n      and\n      dup3\n      add\n      swap2\n    tag_100:\n      pop\n      pop\n      pop\n      pop\n      pop\n      dup2\n      mstore\n      0x20\n      add\n        /* \"contracts/Marketplace.sol\":2339:2349  msg.sender */\n      caller\n        /* \"contracts/Marketplace.sol\":2314:2357  Purchase(offer.offerCID, msg.sender, false) */\n      0xffffffffffffffffffffffffffffffffffffffff\n      and\n      dup2\n      mstore\n      0x20\n      add\n        /* \"contracts/Marketplace.sol\":2351:2356  false */\n      0x00\n        /* \"contracts/Marketplace.sol\":2314:2357  Purchase(offer.offerCID, msg.sender, false) */\n      iszero\n      iszero\n      dup2\n      mstore\n      pop\n        /* \"contracts/Marketplace.sol\":2290:2299  purchases */\n      0x01\n        /* \"contracts/Marketplace.sol\":2290:2311  purchases[purchaseId] */\n      0x00\n        /* \"contracts/Marketplace.sol\":2300:2310  purchaseId */\n      dup4\n        /* \"contracts/Marketplace.sol\":2290:2311  purchases[purchaseId] */\n      dup2\n      mstore\n      0x20\n      add\n      swap1\n      dup2\n      mstore\n      0x20\n      add\n      0x00\n      keccak256\n        /* \"contracts/Marketplace.sol\":2290:2357  purchases[purchaseId] = Purchase(offer.offerCID, msg.sender, false) */\n      0x00\n      dup3\n      add\n      mload\n      dup2\n      0x00\n      add\n      swap1\n      dup2\n      tag_103\n      swap2\n      swap1\n      tag_104\n      jump\t// in\n    tag_103:\n      pop\n      0x20\n      dup3\n      add\n      mload\n      dup2\n      0x01\n      add\n      exp(0x0100, 0x00)\n      dup2\n      sload\n      dup2\n      0xffffffffffffffffffffffffffffffffffffffff\n      mul\n      not\n      and\n      swap1\n      dup4\n      0xffffffffffffffffffffffffffffffffffffffff\n      and\n      mul\n      or\n      swap1\n      sstore\n      pop\n      0x40\n      dup3\n      add\n      mload\n      dup2\n      0x01\n      add\n      exp(0x0100, 0x14)\n      dup2\n      sload\n      dup2\n      0xff\n      mul\n      not\n      and\n      swap1\n      dup4\n      iszero\n      iszero\n      mul\n      or\n      swap1\n      sstore\n      pop\n      swap1\n      pop\n      pop\n        /* \"contracts/Marketplace.sol\":2046:2364  {... */\n      pop\n      pop\n        /* \"contracts/Marketplace.sol\":1971:2364  function purchaseOffer(uint256 _offerId) external onlyRole(UserRole.Buyer) {... */\n      pop\n      pop\n      jump\t// out\n        /* \"contracts/Marketplace.sol\":867:896  uint256 public nextPurchaseId */\n    tag_25:\n      sload(0x04)\n      dup2\n      jump\t// out\n        /* \"contracts/Marketplace.sol\":2525:3043  function refund(uint256 _purchaseId) external onlyRole(UserRole.Buyer) {... */\n    tag_30:\n        /* \"contracts/Marketplace.sol\":2580:2594  UserRole.Buyer */\n      0x02\n        /* \"contracts/Marketplace.sol\":1004:1009  _role */\n      dup1\n        /* \"contracts/Marketplace.sol\":979:1009  userRoles[msg.sender] == _role */\n      0x02\n      dup2\n      gt\n      iszero\n      tag_106\n      jumpi\n      tag_107\n      tag_69\n      jump\t// in\n    tag_107:\n    tag_106:\n        /* \"contracts/Marketplace.sol\":979:988  userRoles */\n      0x00\n        /* \"contracts/Marketplace.sol\":979:1000  userRoles[msg.sender] */\n      dup1\n        /* \"contracts/Marketplace.sol\":989:999  msg.sender */\n      caller\n        /* \"contracts/Marketplace.sol\":979:1000  userRoles[msg.sender] */\n      0xffffffffffffffffffffffffffffffffffffffff\n      and\n      0xffffffffffffffffffffffffffffffffffffffff\n      and\n      dup2\n      mstore\n      0x20\n      add\n      swap1\n      dup2\n      mstore\n      0x20\n      add\n      0x00\n      keccak256\n      0x00\n      swap1\n      sload\n      swap1\n      0x0100\n      exp\n      swap1\n      div\n      0xff\n      and\n        /* \"contracts/Marketplace.sol\":979:1009  userRoles[msg.sender] == _role */\n      0x02\n      dup2\n      gt\n      iszero\n      tag_108\n      jumpi\n      tag_109\n      tag_69\n      jump\t// in\n    tag_109:\n    tag_108:\n      eq\n        /* \"contracts/Marketplace.sol\":971:1026  require(userRoles[msg.sender] == _role, 'Unauthorized') */\n      tag_110\n      jumpi\n      mload(0x40)\n      0x08c379a000000000000000000000000000000000000000000000000000000000\n      dup2\n      mstore\n      0x04\n      add\n      tag_111\n      swap1\n      tag_74\n      jump\t// in\n    tag_111:\n      mload(0x40)\n      dup1\n      swap2\n      sub\n      swap1\n      revert\n    tag_110:\n        /* \"contracts/Marketplace.sol\":2606:2631  Purchase storage purchase */\n      0x00\n        /* \"contracts/Marketplace.sol\":2634:2643  purchases */\n      0x01\n        /* \"contracts/Marketplace.sol\":2634:2656  purchases[_purchaseId] */\n      0x00\n        /* \"contracts/Marketplace.sol\":2644:2655  _purchaseId */\n      dup5\n        /* \"contracts/Marketplace.sol\":2634:2656  purchases[_purchaseId] */\n      dup2\n      mstore\n      0x20\n      add\n      swap1\n      dup2\n      mstore\n      0x20\n      add\n      0x00\n      keccak256\n        /* \"contracts/Marketplace.sol\":2606:2656  Purchase storage purchase = purchases[_purchaseId] */\n      swap1\n      pop\n        /* \"contracts/Marketplace.sol\":2705:2715  msg.sender */\n      caller\n        /* \"contracts/Marketplace.sol\":2687:2715  purchase.buyer == msg.sender */\n      0xffffffffffffffffffffffffffffffffffffffff\n      and\n        /* \"contracts/Marketplace.sol\":2687:2695  purchase */\n      dup2\n        /* \"contracts/Marketplace.sol\":2687:2701  purchase.buyer */\n      0x01\n      add\n      0x00\n      swap1\n      sload\n      swap1\n      0x0100\n      exp\n      swap1\n      div\n      0xffffffffffffffffffffffffffffffffffffffff\n      and\n        /* \"contracts/Marketplace.sol\":2687:2715  purchase.buyer == msg.sender */\n      0xffffffffffffffffffffffffffffffffffffffff\n      and\n      eq\n        /* \"contracts/Marketplace.sol\":2666:2779  require(... */\n      tag_113\n      jumpi\n      mload(0x40)\n      0x08c379a000000000000000000000000000000000000000000000000000000000\n      dup2\n      mstore\n      0x04\n      add\n      tag_114\n      swap1\n      tag_115\n      jump\t// in\n    tag_114:\n      mload(0x40)\n      dup1\n      swap2\n      sub\n      swap1\n      revert\n    tag_113:\n        /* \"contracts/Marketplace.sol\":2798:2806  purchase */\n      dup1\n        /* \"contracts/Marketplace.sol\":2798:2815  purchase.refunded */\n      0x01\n      add\n      0x14\n      swap1\n      sload\n      swap1\n      0x0100\n      exp\n      swap1\n      div\n      0xff\n      and\n        /* \"contracts/Marketplace.sol\":2797:2815  !purchase.refunded */\n      iszero\n        /* \"contracts/Marketplace.sol\":2789:2859  require(!purchase.refunded, 'This purchase has already been refunded') */\n      tag_116\n      jumpi\n      mload(0x40)\n      0x08c379a000000000000000000000000000000000000000000000000000000000\n      dup2\n      mstore\n      0x04\n      add\n      tag_117\n      swap1\n      tag_118\n      jump\t// in\n    tag_117:\n      mload(0x40)\n      dup1\n      swap2\n      sub\n      swap1\n      revert\n    tag_116:\n        /* \"contracts/Marketplace.sol\":2869:2889  uint256 refundAmount */\n      0x00\n        /* \"contracts/Marketplace.sol\":2892:2897  token */\n      0x05\n      0x00\n      swap1\n      sload\n      swap1\n      0x0100\n      exp\n      swap1\n      div\n      0xffffffffffffffffffffffffffffffffffffffff\n      and\n        /* \"contracts/Marketplace.sol\":2892:2907  token.balanceOf */\n      0xffffffffffffffffffffffffffffffffffffffff\n      and\n      0x70a08231\n        /* \"contracts/Marketplace.sol\":2916:2920  this */\n      address\n        /* \"contracts/Marketplace.sol\":2892:2922  token.balanceOf(address(this)) */\n      mload(0x40)\n      dup3\n      0xffffffff\n      and\n      0xe0\n      shl\n      dup2\n      mstore\n      0x04\n      add\n      tag_119\n      swap2\n      swap1\n      tag_120\n      jump\t// in\n    tag_119:\n      0x20\n      mload(0x40)\n      dup1\n      dup4\n      sub\n      dup2\n      dup7\n      gas\n      staticcall\n      iszero\n      dup1\n      iszero\n      tag_122\n      jumpi\n      returndatasize\n      0x00\n      dup1\n      returndatacopy\n      revert(0x00, returndatasize)\n    tag_122:\n      pop\n      pop\n      pop\n      pop\n      mload(0x40)\n      returndatasize\n      not(0x1f)\n      0x1f\n      dup3\n      add\n      and\n      dup3\n      add\n      dup1\n      0x40\n      mstore\n      pop\n      dup2\n      add\n      swap1\n      tag_123\n      swap2\n      swap1\n      tag_124\n      jump\t// in\n    tag_123:\n        /* \"contracts/Marketplace.sol\":2869:2922  uint256 refundAmount = token.balanceOf(address(this)) */\n      swap1\n      pop\n        /* \"contracts/Marketplace.sol\":2940:2945  token */\n      0x05\n      0x00\n      swap1\n      sload\n      swap1\n      0x0100\n      exp\n      swap1\n      div\n      0xffffffffffffffffffffffffffffffffffffffff\n      and\n        /* \"contracts/Marketplace.sol\":2940:2954  token.transfer */\n      0xffffffffffffffffffffffffffffffffffffffff\n      and\n      0xa9059cbb\n        /* \"contracts/Marketplace.sol\":2955:2963  purchase */\n      dup4\n        /* \"contracts/Marketplace.sol\":2955:2969  purchase.buyer */\n      0x01\n      add\n      0x00\n      swap1\n      sload\n      swap1\n      0x0100\n      exp\n      swap1\n      div\n      0xffffffffffffffffffffffffffffffffffffffff\n      and\n        /* \"contracts/Marketplace.sol\":2971:2983  refundAmount */\n      dup4\n        /* \"contracts/Marketplace.sol\":2940:2984  token.transfer(purchase.buyer, refundAmount) */\n      mload(0x40)\n      dup4\n      0xffffffff\n      and\n      0xe0\n      shl\n      dup2\n      mstore\n      0x04\n      add\n      tag_125\n      swap3\n      swap2\n      swap1\n      tag_126\n      jump\t// in\n    tag_125:\n      0x20\n      mload(0x40)\n      dup1\n      dup4\n      sub\n      dup2\n      0x00\n      dup8\n      gas\n      call\n      iszero\n      dup1\n      iszero\n      tag_128\n      jumpi\n      returndatasize\n      0x00\n      dup1\n      returndatacopy\n      revert(0x00, returndatasize)\n    tag_128:\n      pop\n      pop\n      pop\n      pop\n      mload(0x40)\n      returndatasize\n      not(0x1f)\n      0x1f\n      dup3\n      add\n      and\n      dup3\n      add\n      dup1\n      0x40\n      mstore\n      pop\n      dup2\n      add\n      swap1\n      tag_129\n      swap2\n      swap1\n      tag_91\n      jump\t// in\n    tag_129:\n        /* \"contracts/Marketplace.sol\":2932:3002  require(token.transfer(purchase.buyer, refundAmount), 'Refund failed') */\n      tag_130\n      jumpi\n      mload(0x40)\n      0x08c379a000000000000000000000000000000000000000000000000000000000\n      dup2\n      mstore\n      0x04\n      add\n      tag_131\n      swap1\n      tag_132\n      jump\t// in\n    tag_131:\n      mload(0x40)\n      dup1\n      swap2\n      sub\n      swap1\n      revert\n    tag_130:\n        /* \"contracts/Marketplace.sol\":3032:3036  true */\n      0x01\n        /* \"contracts/Marketplace.sol\":3012:3020  purchase */\n      dup3\n        /* \"contracts/Marketplace.sol\":3012:3029  purchase.refunded */\n      0x01\n      add\n      0x14\n        /* \"contracts/Marketplace.sol\":3012:3036  purchase.refunded = true */\n      0x0100\n      exp\n      dup2\n      sload\n      dup2\n      0xff\n      mul\n      not\n      and\n      swap1\n      dup4\n      iszero\n      iszero\n      mul\n      or\n      swap1\n      sstore\n      pop\n        /* \"contracts/Marketplace.sol\":2596:3043  {... */\n      pop\n      pop\n        /* \"contracts/Marketplace.sol\":2525:3043  function refund(uint256 _purchaseId) external onlyRole(UserRole.Buyer) {... */\n      pop\n      pop\n      jump\t// out\n        /* \"contracts/Marketplace.sol\":3049:3512  function payWithToken(uint256 _purchaseId, uint256 _amount) external {... */\n    tag_34:\n        /* \"contracts/Marketplace.sol\":3128:3153  Purchase storage purchase */\n      0x00\n        /* \"contracts/Marketplace.sol\":3156:3165  purchases */\n      0x01\n        /* \"contracts/Marketplace.sol\":3156:3178  purchases[_purchaseId] */\n      0x00\n        /* \"contracts/Marketplace.sol\":3166:3177  _purchaseId */\n      dup5\n        /* \"contracts/Marketplace.sol\":3156:3178  purchases[_purchaseId] */\n      dup2\n      mstore\n      0x20\n      add\n      swap1\n      dup2\n      mstore\n      0x20\n      add\n      0x00\n      keccak256\n        /* \"contracts/Marketplace.sol\":3128:3178  Purchase storage purchase = purchases[_purchaseId] */\n      swap1\n      pop\n        /* \"contracts/Marketplace.sol\":3227:3237  msg.sender */\n      caller\n        /* \"contracts/Marketplace.sol\":3209:3237  purchase.buyer == msg.sender */\n      0xffffffffffffffffffffffffffffffffffffffff\n      and\n        /* \"contracts/Marketplace.sol\":3209:3217  purchase */\n      dup2\n        /* \"contracts/Marketplace.sol\":3209:3223  purchase.buyer */\n      0x01\n      add\n      0x00\n      swap1\n      sload\n      swap1\n      0x0100\n      exp\n      swap1\n      div\n      0xffffffffffffffffffffffffffffffffffffffff\n      and\n        /* \"contracts/Marketplace.sol\":3209:3237  purchase.buyer == msg.sender */\n      0xffffffffffffffffffffffffffffffffffffffff\n      and\n      eq\n        /* \"contracts/Marketplace.sol\":3188:3301  require(... */\n      tag_134\n      jumpi\n      mload(0x40)\n      0x08c379a000000000000000000000000000000000000000000000000000000000\n      dup2\n      mstore\n      0x04\n      add\n      tag_135\n      swap1\n      tag_115\n      jump\t// in\n    tag_135:\n      mload(0x40)\n      dup1\n      swap2\n      sub\n      swap1\n      revert\n    tag_134:\n        /* \"contracts/Marketplace.sol\":3320:3328  purchase */\n      dup1\n        /* \"contracts/Marketplace.sol\":3320:3337  purchase.refunded */\n      0x01\n      add\n      0x14\n      swap1\n      sload\n      swap1\n      0x0100\n      exp\n      swap1\n      div\n      0xff\n      and\n        /* \"contracts/Marketplace.sol\":3319:3337  !purchase.refunded */\n      iszero\n        /* \"contracts/Marketplace.sol\":3311:3373  require(!purchase.refunded, 'This purchase has been refunded') */\n      tag_136\n      jumpi\n      mload(0x40)\n      0x08c379a000000000000000000000000000000000000000000000000000000000\n      dup2\n      mstore\n      0x04\n      add\n      tag_137\n      swap1\n      tag_138\n      jump\t// in\n    tag_137:\n      mload(0x40)\n      dup1\n      swap2\n      sub\n      swap1\n      revert\n    tag_136:\n        /* \"contracts/Marketplace.sol\":3404:3409  token */\n      0x05\n      0x00\n      swap1\n      sload\n      swap1\n      0x0100\n      exp\n      swap1\n      div\n      0xffffffffffffffffffffffffffffffffffffffff\n      and\n        /* \"contracts/Marketplace.sol\":3404:3422  token.transferFrom */\n      0xffffffffffffffffffffffffffffffffffffffff\n      and\n      0x23b872dd\n        /* \"contracts/Marketplace.sol\":3423:3433  msg.sender */\n      caller\n        /* \"contracts/Marketplace.sol\":3443:3447  this */\n      address\n        /* \"contracts/Marketplace.sol\":3450:3457  _amount */\n      dup6\n        /* \"contracts/Marketplace.sol\":3404:3458  token.transferFrom(msg.sender, address(this), _amount) */\n      mload(0x40)\n      dup5\n      0xffffffff\n      and\n      0xe0\n      shl\n      dup2\n      mstore\n      0x04\n      add\n      tag_139\n      swap4\n      swap3\n      swap2\n      swap1\n      tag_87\n      jump\t// in\n    tag_139:\n      0x20\n      mload(0x40)\n      dup1\n      dup4\n      sub\n      dup2\n      0x00\n      dup8\n      gas\n      call\n      iszero\n      dup1\n      iszero\n      tag_141\n      jumpi\n      returndatasize\n      0x00\n      dup1\n      returndatacopy\n      revert(0x00, returndatasize)\n    tag_141:\n      pop\n      pop\n      pop\n      pop\n      mload(0x40)\n      returndatasize\n      not(0x1f)\n      0x1f\n      dup3\n      add\n      and\n      dup3\n      add\n      dup1\n      0x40\n      mstore\n      pop\n      dup2\n      add\n      swap1\n      tag_142\n      swap2\n      swap1\n      tag_91\n      jump\t// in\n    tag_142:\n        /* \"contracts/Marketplace.sol\":3383:3505  require(... */\n      tag_143\n      jumpi\n      mload(0x40)\n      0x08c379a000000000000000000000000000000000000000000000000000000000\n      dup2\n      mstore\n      0x04\n      add\n      tag_144\n      swap1\n      tag_145\n      jump\t// in\n    tag_144:\n      mload(0x40)\n      dup1\n      swap2\n      sub\n      swap1\n      revert\n    tag_143:\n        /* \"contracts/Marketplace.sol\":3118:3512  {... */\n      pop\n        /* \"contracts/Marketplace.sol\":3049:3512  function payWithToken(uint256 _purchaseId, uint256 _amount) external {... */\n      pop\n      pop\n      jump\t// out\n        /* \"contracts/Marketplace.sol\":835:861  uint256 public nextOfferId */\n    tag_36:\n      sload(0x03)\n      dup2\n      jump\t// out\n        /* \"contracts/Marketplace.sol\":1638:1965  function updateOffer(... */\n    tag_41:\n        /* \"contracts/Marketplace.sol\":1769:1784  UserRole.Seller */\n      0x01\n        /* \"contracts/Marketplace.sol\":1004:1009  _role */\n      dup1\n        /* \"contracts/Marketplace.sol\":979:1009  userRoles[msg.sender] == _role */\n      0x02\n      dup2\n      gt\n      iszero\n      tag_147\n      jumpi\n      tag_148\n      tag_69\n      jump\t// in\n    tag_148:\n    tag_147:\n        /* \"contracts/Marketplace.sol\":979:988  userRoles */\n      0x00\n        /* \"contracts/Marketplace.sol\":979:1000  userRoles[msg.sender] */\n      dup1\n        /* \"contracts/Marketplace.sol\":989:999  msg.sender */\n      caller\n        /* \"contracts/Marketplace.sol\":979:1000  userRoles[msg.sender] */\n      0xffffffffffffffffffffffffffffffffffffffff\n      and\n      0xffffffffffffffffffffffffffffffffffffffff\n      and\n      dup2\n      mstore\n      0x20\n      add\n      swap1\n      dup2\n      mstore\n      0x20\n      add\n      0x00\n      keccak256\n      0x00\n      swap1\n      sload\n      swap1\n      0x0100\n      exp\n      swap1\n      div\n      0xff\n      and\n        /* \"contracts/Marketplace.sol\":979:1009  userRoles[msg.sender] == _role */\n      0x02\n      dup2\n      gt\n      iszero\n      tag_149\n      jumpi\n      tag_150\n      tag_69\n      jump\t// in\n    tag_150:\n    tag_149:\n      eq\n        /* \"contracts/Marketplace.sol\":971:1026  require(userRoles[msg.sender] == _role, 'Unauthorized') */\n      tag_151\n      jumpi\n      mload(0x40)\n      0x08c379a000000000000000000000000000000000000000000000000000000000\n      dup2\n      mstore\n      0x04\n      add\n      tag_152\n      swap1\n      tag_74\n      jump\t// in\n    tag_152:\n      mload(0x40)\n      dup1\n      swap2\n      sub\n      swap1\n      revert\n    tag_151:\n        /* \"contracts/Marketplace.sol\":1804:1825  isValidCID(_offerCID) */\n      tag_154\n        /* \"contracts/Marketplace.sol\":1815:1824  _offerCID */\n      dup4\n        /* \"contracts/Marketplace.sol\":1804:1814  isValidCID */\n      tag_155\n        /* \"contracts/Marketplace.sol\":1804:1825  isValidCID(_offerCID) */\n      jump\t// in\n    tag_154:\n        /* \"contracts/Marketplace.sol\":1796:1841  require(isValidCID(_offerCID), 'Invalid CID') */\n      tag_156\n      jumpi\n      mload(0x40)\n      0x08c379a000000000000000000000000000000000000000000000000000000000\n      dup2\n      mstore\n      0x04\n      add\n      tag_157\n      swap1\n      tag_158\n      jump\t// in\n    tag_157:\n      mload(0x40)\n      dup1\n      swap2\n      sub\n      swap1\n      revert\n    tag_156:\n        /* \"contracts/Marketplace.sol\":1851:1870  Offer storage offer */\n      0x00\n        /* \"contracts/Marketplace.sol\":1873:1879  offers */\n      0x02\n        /* \"contracts/Marketplace.sol\":1873:1889  offers[_offerId] */\n      0x00\n        /* \"contracts/Marketplace.sol\":1880:1888  _offerId */\n      dup7\n        /* \"contracts/Marketplace.sol\":1873:1889  offers[_offerId] */\n      dup2\n      mstore\n      0x20\n      add\n      swap1\n      dup2\n      mstore\n      0x20\n      add\n      0x00\n      keccak256\n        /* \"contracts/Marketplace.sol\":1851:1889  Offer storage offer = offers[_offerId] */\n      swap1\n      pop\n        /* \"contracts/Marketplace.sol\":1916:1925  _offerCID */\n      dup4\n        /* \"contracts/Marketplace.sol\":1899:1904  offer */\n      dup2\n        /* \"contracts/Marketplace.sol\":1899:1913  offer.offerCID */\n      0x00\n      add\n        /* \"contracts/Marketplace.sol\":1899:1925  offer.offerCID = _offerCID */\n      swap1\n      dup2\n      tag_159\n      swap2\n      swap1\n      tag_104\n      jump\t// in\n    tag_159:\n      pop\n        /* \"contracts/Marketplace.sol\":1949:1958  _newPrice */\n      dup3\n        /* \"contracts/Marketplace.sol\":1935:1940  offer */\n      dup2\n        /* \"contracts/Marketplace.sol\":1935:1946  offer.price */\n      0x02\n      add\n        /* \"contracts/Marketplace.sol\":1935:1958  offer.price = _newPrice */\n      dup2\n      swap1\n      sstore\n      pop\n        /* \"contracts/Marketplace.sol\":1786:1965  {... */\n      pop\n        /* \"contracts/Marketplace.sol\":1638:1965  function updateOffer(... */\n      pop\n      pop\n      pop\n      pop\n      jump\t// out\n        /* \"contracts/Marketplace.sol\":687:732  mapping(address => UserRole) public userRoles */\n    tag_45:\n      mstore(0x20, 0x00)\n      dup1\n      0x00\n      mstore\n      keccak256(0x00, 0x40)\n      0x00\n      swap2\n      pop\n      sload\n      swap1\n      0x0100\n      exp\n      swap1\n      div\n      0xff\n      and\n      dup2\n      jump\t// out\n        /* \"contracts/Marketplace.sol\":1360:1632  function createOffer(... */\n    tag_51:\n        /* \"contracts/Marketplace.sol\":1462:1477  UserRole.Seller */\n      0x01\n        /* \"contracts/Marketplace.sol\":1004:1009  _role */\n      dup1\n        /* \"contracts/Marketplace.sol\":979:1009  userRoles[msg.sender] == _role */\n      0x02\n      dup2\n      gt\n      iszero\n      tag_161\n      jumpi\n      tag_162\n      tag_69\n      jump\t// in\n    tag_162:\n    tag_161:\n        /* \"contracts/Marketplace.sol\":979:988  userRoles */\n      0x00\n        /* \"contracts/Marketplace.sol\":979:1000  userRoles[msg.sender] */\n      dup1\n        /* \"contracts/Marketplace.sol\":989:999  msg.sender */\n      caller\n        /* \"contracts/Marketplace.sol\":979:1000  userRoles[msg.sender] */\n      0xffffffffffffffffffffffffffffffffffffffff\n      and\n      0xffffffffffffffffffffffffffffffffffffffff\n      and\n      dup2\n      mstore\n      0x20\n      add\n      swap1\n      dup2\n      mstore\n      0x20\n      add\n      0x00\n      keccak256\n      0x00\n      swap1\n      sload\n      swap1\n      0x0100\n      exp\n      swap1\n      div\n      0xff\n      and\n        /* \"contracts/Marketplace.sol\":979:1009  userRoles[msg.sender] == _role */\n      0x02\n      dup2\n      gt\n      iszero\n      tag_163\n      jumpi\n      tag_164\n      tag_69\n      jump\t// in\n    tag_164:\n    tag_163:\n      eq\n        /* \"contracts/Marketplace.sol\":971:1026  require(userRoles[msg.sender] == _role, 'Unauthorized') */\n      tag_165\n      jumpi\n      mload(0x40)\n      0x08c379a000000000000000000000000000000000000000000000000000000000\n      dup2\n      mstore\n      0x04\n      add\n      tag_166\n      swap1\n      tag_74\n      jump\t// in\n    tag_166:\n      mload(0x40)\n      dup1\n      swap2\n      sub\n      swap1\n      revert\n    tag_165:\n        /* \"contracts/Marketplace.sol\":1497:1518  isValidCID(_offerCID) */\n      tag_168\n        /* \"contracts/Marketplace.sol\":1508:1517  _offerCID */\n      dup4\n        /* \"contracts/Marketplace.sol\":1497:1507  isValidCID */\n      tag_155\n        /* \"contracts/Marketplace.sol\":1497:1518  isValidCID(_offerCID) */\n      jump\t// in\n    tag_168:\n        /* \"contracts/Marketplace.sol\":1489:1534  require(isValidCID(_offerCID), 'Invalid CID') */\n      tag_169\n      jumpi\n      mload(0x40)\n      0x08c379a000000000000000000000000000000000000000000000000000000000\n      dup2\n      mstore\n      0x04\n      add\n      tag_170\n      swap1\n      tag_158\n      jump\t// in\n    tag_170:\n      mload(0x40)\n      dup1\n      swap2\n      sub\n      swap1\n      revert\n    tag_169:\n        /* \"contracts/Marketplace.sol\":1566:1602  Offer(_offerCID, msg.sender, _price) */\n      mload(0x40)\n      dup1\n      0x60\n      add\n      0x40\n      mstore\n      dup1\n        /* \"contracts/Marketplace.sol\":1572:1581  _offerCID */\n      dup5\n        /* \"contracts/Marketplace.sol\":1566:1602  Offer(_offerCID, msg.sender, _price) */\n      dup2\n      mstore\n      0x20\n      add\n        /* \"contracts/Marketplace.sol\":1583:1593  msg.sender */\n      caller\n        /* \"contracts/Marketplace.sol\":1566:1602  Offer(_offerCID, msg.sender, _price) */\n      0xffffffffffffffffffffffffffffffffffffffff\n      and\n      dup2\n      mstore\n      0x20\n      add\n        /* \"contracts/Marketplace.sol\":1595:1601  _price */\n      dup4\n        /* \"contracts/Marketplace.sol\":1566:1602  Offer(_offerCID, msg.sender, _price) */\n      dup2\n      mstore\n      pop\n        /* \"contracts/Marketplace.sol\":1544:1550  offers */\n      0x02\n        /* \"contracts/Marketplace.sol\":1544:1563  offers[nextOfferId] */\n      0x00\n        /* \"contracts/Marketplace.sol\":1551:1562  nextOfferId */\n      sload(0x03)\n        /* \"contracts/Marketplace.sol\":1544:1563  offers[nextOfferId] */\n      dup2\n      mstore\n      0x20\n      add\n      swap1\n      dup2\n      mstore\n      0x20\n      add\n      0x00\n      keccak256\n        /* \"contracts/Marketplace.sol\":1544:1602  offers[nextOfferId] = Offer(_offerCID, msg.sender, _price) */\n      0x00\n      dup3\n      add\n      mload\n      dup2\n      0x00\n      add\n      swap1\n      dup2\n      tag_171\n      swap2\n      swap1\n      tag_104\n      jump\t// in\n    tag_171:\n      pop\n      0x20\n      dup3\n      add\n      mload\n      dup2\n      0x01\n      add\n      exp(0x0100, 0x00)\n      dup2\n      sload\n      dup2\n      0xffffffffffffffffffffffffffffffffffffffff\n      mul\n      not\n      and\n      swap1\n      dup4\n      0xffffffffffffffffffffffffffffffffffffffff\n      and\n      mul\n      or\n      swap1\n      sstore\n      pop\n      0x40\n      dup3\n      add\n      mload\n      dup2\n      0x02\n      add\n      sstore\n      swap1\n      pop\n      pop\n        /* \"contracts/Marketplace.sol\":1612:1623  nextOfferId */\n      0x03\n      0x00\n        /* \"contracts/Marketplace.sol\":1612:1625  nextOfferId++ */\n      dup2\n      sload\n      dup1\n      swap3\n      swap2\n      swap1\n      tag_172\n      swap1\n      tag_96\n      jump\t// in\n    tag_172:\n      swap2\n      swap1\n      pop\n      sstore\n      pop\n        /* \"contracts/Marketplace.sol\":1360:1632  function createOffer(... */\n      pop\n      pop\n      pop\n      jump\t// out\n        /* \"contracts/Marketplace.sol\":738:783  mapping(uint256 => Purchase) public purchases */\n    tag_54:\n      mstore(0x20, 0x01)\n      dup1\n      0x00\n      mstore\n      keccak256(0x00, 0x40)\n      0x00\n      swap2\n      pop\n      swap1\n      pop\n      dup1\n      0x00\n      add\n      dup1\n      sload\n      tag_173\n      swap1\n      tag_98\n      jump\t// in\n    tag_173:\n      dup1\n      0x1f\n      add\n      0x20\n      dup1\n      swap2\n      div\n      mul\n      0x20\n      add\n      mload(0x40)\n      swap1\n      dup2\n      add\n      0x40\n      mstore\n      dup1\n      swap3\n      swap2\n      swap1\n      dup2\n      dup2\n      mstore\n      0x20\n      add\n      dup3\n      dup1\n      sload\n      tag_174\n      swap1\n      tag_98\n      jump\t// in\n    tag_174:\n      dup1\n      iszero\n      tag_175\n      jumpi\n      dup1\n      0x1f\n      lt\n      tag_176\n      jumpi\n      0x0100\n      dup1\n      dup4\n      sload\n      div\n      mul\n      dup4\n      mstore\n      swap2\n      0x20\n      add\n      swap2\n      jump(tag_175)\n    tag_176:\n      dup3\n      add\n      swap2\n      swap1\n      0x00\n      mstore\n      keccak256(0x00, 0x20)\n      swap1\n    tag_177:\n      dup2\n      sload\n      dup2\n      mstore\n      swap1\n      0x01\n      add\n      swap1\n      0x20\n      add\n      dup1\n      dup4\n      gt\n      tag_177\n      jumpi\n      dup3\n      swap1\n      sub\n      0x1f\n      and\n      dup3\n      add\n      swap2\n    tag_175:\n      pop\n      pop\n      pop\n      pop\n      pop\n      swap1\n      dup1\n      0x01\n      add\n      0x00\n      swap1\n      sload\n      swap1\n      0x0100\n      exp\n      swap1\n      div\n      0xffffffffffffffffffffffffffffffffffffffff\n      and\n      swap1\n      dup1\n      0x01\n      add\n      0x14\n      swap1\n      sload\n      swap1\n      0x0100\n      exp\n      swap1\n      div\n      0xff\n      and\n      swap1\n      pop\n      dup4\n      jump\t// out\n        /* \"contracts/Marketplace.sol\":789:828  mapping(uint256 => Offer) public offers */\n    tag_59:\n      mstore(0x20, 0x02)\n      dup1\n      0x00\n      mstore\n      keccak256(0x00, 0x40)\n      0x00\n      swap2\n      pop\n      swap1\n      pop\n      dup1\n      0x00\n      add\n      dup1\n      sload\n      tag_178\n      swap1\n      tag_98\n      jump\t// in\n    tag_178:\n      dup1\n      0x1f\n      add\n      0x20\n      dup1\n      swap2\n      div\n      mul\n      0x20\n      add\n      mload(0x40)\n      swap1\n      dup2\n      add\n      0x40\n      mstore\n      dup1\n      swap3\n      swap2\n      swap1\n      dup2\n      dup2\n      mstore\n      0x20\n      add\n      dup3\n      dup1\n      sload\n      tag_179\n      swap1\n      tag_98\n      jump\t// in\n    tag_179:\n      dup1\n      iszero\n      tag_180\n      jumpi\n      dup1\n      0x1f\n      lt\n      tag_181\n      jumpi\n      0x0100\n      dup1\n      dup4\n      sload\n      div\n      mul\n      dup4\n      mstore\n      swap2\n      0x20\n      add\n      swap2\n      jump(tag_180)\n    tag_181:\n      dup3\n      add\n      swap2\n      swap1\n      0x00\n      mstore\n      keccak256(0x00, 0x20)\n      swap1\n    tag_182:\n      dup2\n      sload\n      dup2\n      mstore\n      swap1\n      0x01\n      add\n      swap1\n      0x20\n      add\n      dup1\n      dup4\n      gt\n      tag_182\n      jumpi\n      dup3\n      swap1\n      sub\n      0x1f\n      and\n      dup3\n      add\n      swap2\n    tag_180:\n      pop\n      pop\n      pop\n      pop\n      pop\n      swap1\n      dup1\n      0x01\n      add\n      0x00\n      swap1\n      sload\n      swap1\n      0x0100\n      exp\n      swap1\n      div\n      0xffffffffffffffffffffffffffffffffffffffff\n      and\n      swap1\n      dup1\n      0x02\n      add\n      sload\n      swap1\n      pop\n      dup4\n      jump\t// out\n        /* \"contracts/Marketplace.sol\":902:920  ERC20 public token */\n    tag_63:\n      0x05\n      0x00\n      swap1\n      sload\n      swap1\n      0x0100\n      exp\n      swap1\n      div\n      0xffffffffffffffffffffffffffffffffffffffff\n      and\n      dup2\n      jump\t// out\n        /* \"contracts/Marketplace.sol\":1237:1354  function isValidCID(string memory _cid) internal pure returns (bool) {... */\n    tag_155:\n        /* \"contracts/Marketplace.sol\":1300:1304  bool */\n      0x00\n        /* \"contracts/Marketplace.sol\":1345:1347  46 */\n      0x2e\n        /* \"contracts/Marketplace.sol\":1329:1333  _cid */\n      dup3\n        /* \"contracts/Marketplace.sol\":1323:1341  bytes(_cid).length */\n      mload\n        /* \"contracts/Marketplace.sol\":1323:1347  bytes(_cid).length == 46 */\n      eq\n        /* \"contracts/Marketplace.sol\":1316:1347  return bytes(_cid).length == 46 */\n      swap1\n      pop\n        /* \"contracts/Marketplace.sol\":1237:1354  function isValidCID(string memory _cid) internal pure returns (bool) {... */\n      swap2\n      swap1\n      pop\n      jump\t// out\n        /* \"#utility.yul\":7:82   */\n    tag_184:\n        /* \"#utility.yul\":40:46   */\n      0x00\n        /* \"#utility.yul\":73:75   */\n      0x40\n        /* \"#utility.yul\":67:76   */\n      mload\n        /* \"#utility.yul\":57:76   */\n      swap1\n      pop\n        /* \"#utility.yul\":7:82   */\n      swap1\n      jump\t// out\n        /* \"#utility.yul\":88:205   */\n    tag_185:\n        /* \"#utility.yul\":197:198   */\n      0x00\n        /* \"#utility.yul\":194:195   */\n      dup1\n        /* \"#utility.yul\":187:199   */\n      revert\n        /* \"#utility.yul\":211:328   */\n    tag_186:\n        /* \"#utility.yul\":320:321   */\n      0x00\n        /* \"#utility.yul\":317:318   */\n      dup1\n        /* \"#utility.yul\":310:322   */\n      revert\n        /* \"#utility.yul\":334:460   */\n    tag_187:\n        /* \"#utility.yul\":371:378   */\n      0x00\n        /* \"#utility.yul\":411:453   */\n      0xffffffffffffffffffffffffffffffffffffffff\n        /* \"#utility.yul\":404:409   */\n      dup3\n        /* \"#utility.yul\":400:454   */\n      and\n        /* \"#utility.yul\":389:454   */\n      swap1\n      pop\n        /* \"#utility.yul\":334:460   */\n      swap2\n      swap1\n      pop\n      jump\t// out\n        /* \"#utility.yul\":466:562   */\n    tag_188:\n        /* \"#utility.yul\":503:510   */\n      0x00\n        /* \"#utility.yul\":532:556   */\n      tag_264\n        /* \"#utility.yul\":550:555   */\n      dup3\n        /* \"#utility.yul\":532:556   */\n      tag_187\n      jump\t// in\n    tag_264:\n        /* \"#utility.yul\":521:556   */\n      swap1\n      pop\n        /* \"#utility.yul\":466:562   */\n      swap2\n      swap1\n      pop\n      jump\t// out\n        /* \"#utility.yul\":568:690   */\n    tag_189:\n        /* \"#utility.yul\":641:665   */\n      tag_266\n        /* \"#utility.yul\":659:664   */\n      dup2\n        /* \"#utility.yul\":641:665   */\n      tag_188\n      jump\t// in\n    tag_266:\n        /* \"#utility.yul\":634:639   */\n      dup2\n        /* \"#utility.yul\":631:666   */\n      eq\n        /* \"#utility.yul\":621:684   */\n      tag_267\n      jumpi\n        /* \"#utility.yul\":680:681   */\n      0x00\n        /* \"#utility.yul\":677:678   */\n      dup1\n        /* \"#utility.yul\":670:682   */\n      revert\n        /* \"#utility.yul\":621:684   */\n    tag_267:\n        /* \"#utility.yul\":568:690   */\n      pop\n      jump\t// out\n        /* \"#utility.yul\":696:835   */\n    tag_190:\n        /* \"#utility.yul\":742:747   */\n      0x00\n        /* \"#utility.yul\":780:786   */\n      dup2\n        /* \"#utility.yul\":767:787   */\n      calldataload\n        /* \"#utility.yul\":758:787   */\n      swap1\n      pop\n        /* \"#utility.yul\":796:829   */\n      tag_269\n        /* \"#utility.yul\":823:828   */\n      dup2\n        /* \"#utility.yul\":796:829   */\n      tag_189\n      jump\t// in\n    tag_269:\n        /* \"#utility.yul\":696:835   */\n      swap3\n      swap2\n      pop\n      pop\n      jump\t// out\n        /* \"#utility.yul\":841:951   */\n    tag_191:\n        /* \"#utility.yul\":925:926   */\n      0x03\n        /* \"#utility.yul\":918:923   */\n      dup2\n        /* \"#utility.yul\":915:927   */\n      lt\n        /* \"#utility.yul\":905:945   */\n      tag_271\n      jumpi\n        /* \"#utility.yul\":941:942   */\n      0x00\n        /* \"#utility.yul\":938:939   */\n      dup1\n        /* \"#utility.yul\":931:943   */\n      revert\n        /* \"#utility.yul\":905:945   */\n    tag_271:\n        /* \"#utility.yul\":841:951   */\n      pop\n      jump\t// out\n        /* \"#utility.yul\":957:1118   */\n    tag_192:\n        /* \"#utility.yul\":1014:1019   */\n      0x00\n        /* \"#utility.yul\":1052:1058   */\n      dup2\n        /* \"#utility.yul\":1039:1059   */\n      calldataload\n        /* \"#utility.yul\":1030:1059   */\n      swap1\n      pop\n        /* \"#utility.yul\":1068:1112   */\n      tag_273\n        /* \"#utility.yul\":1106:1111   */\n      dup2\n        /* \"#utility.yul\":1068:1112   */\n      tag_191\n      jump\t// in\n    tag_273:\n        /* \"#utility.yul\":957:1118   */\n      swap3\n      swap2\n      pop\n      pop\n      jump\t// out\n        /* \"#utility.yul\":1124:1620   */\n    tag_18:\n        /* \"#utility.yul\":1203:1209   */\n      0x00\n        /* \"#utility.yul\":1211:1217   */\n      dup1\n        /* \"#utility.yul\":1260:1262   */\n      0x40\n        /* \"#utility.yul\":1248:1257   */\n      dup4\n        /* \"#utility.yul\":1239:1246   */\n      dup6\n        /* \"#utility.yul\":1235:1258   */\n      sub\n        /* \"#utility.yul\":1231:1263   */\n      slt\n        /* \"#utility.yul\":1228:1347   */\n      iszero\n      tag_275\n      jumpi\n        /* \"#utility.yul\":1266:1345   */\n      tag_276\n      tag_185\n      jump\t// in\n    tag_276:\n        /* \"#utility.yul\":1228:1347   */\n    tag_275:\n        /* \"#utility.yul\":1386:1387   */\n      0x00\n        /* \"#utility.yul\":1411:1464   */\n      tag_277\n        /* \"#utility.yul\":1456:1463   */\n      dup6\n        /* \"#utility.yul\":1447:1453   */\n      dup3\n        /* \"#utility.yul\":1436:1445   */\n      dup7\n        /* \"#utility.yul\":1432:1454   */\n      add\n        /* \"#utility.yul\":1411:1464   */\n      tag_190\n      jump\t// in\n    tag_277:\n        /* \"#utility.yul\":1401:1464   */\n      swap3\n      pop\n        /* \"#utility.yul\":1357:1474   */\n      pop\n        /* \"#utility.yul\":1513:1515   */\n      0x20\n        /* \"#utility.yul\":1539:1603   */\n      tag_278\n        /* \"#utility.yul\":1595:1602   */\n      dup6\n        /* \"#utility.yul\":1586:1592   */\n      dup3\n        /* \"#utility.yul\":1575:1584   */\n      dup7\n        /* \"#utility.yul\":1571:1593   */\n      add\n        /* \"#utility.yul\":1539:1603   */\n      tag_192\n      jump\t// in\n    tag_278:\n        /* \"#utility.yul\":1529:1603   */\n      swap2\n      pop\n        /* \"#utility.yul\":1484:1613   */\n      pop\n        /* \"#utility.yul\":1124:1620   */\n      swap3\n      pop\n      swap3\n      swap1\n      pop\n      jump\t// out\n        /* \"#utility.yul\":1626:1703   */\n    tag_193:\n        /* \"#utility.yul\":1663:1670   */\n      0x00\n        /* \"#utility.yul\":1692:1697   */\n      dup2\n        /* \"#utility.yul\":1681:1697   */\n      swap1\n      pop\n        /* \"#utility.yul\":1626:1703   */\n      swap2\n      swap1\n      pop\n      jump\t// out\n        /* \"#utility.yul\":1709:1831   */\n    tag_194:\n        /* \"#utility.yul\":1782:1806   */\n      tag_281\n        /* \"#utility.yul\":1800:1805   */\n      dup2\n        /* \"#utility.yul\":1782:1806   */\n      tag_193\n      jump\t// in\n    tag_281:\n        /* \"#utility.yul\":1775:1780   */\n      dup2\n        /* \"#utility.yul\":1772:1807   */\n      eq\n        /* \"#utility.yul\":1762:1825   */\n      tag_282\n      jumpi\n        /* \"#utility.yul\":1821:1822   */\n      0x00\n        /* \"#utility.yul\":1818:1819   */\n      dup1\n        /* \"#utility.yul\":1811:1823   */\n      revert\n        /* \"#utility.yul\":1762:1825   */\n    tag_282:\n        /* \"#utility.yul\":1709:1831   */\n      pop\n      jump\t// out\n        /* \"#utility.yul\":1837:1976   */\n    tag_195:\n        /* \"#utility.yul\":1883:1888   */\n      0x00\n        /* \"#utility.yul\":1921:1927   */\n      dup2\n        /* \"#utility.yul\":1908:1928   */\n      calldataload\n        /* \"#utility.yul\":1899:1928   */\n      swap1\n      pop\n        /* \"#utility.yul\":1937:1970   */\n      tag_284\n        /* \"#utility.yul\":1964:1969   */\n      dup2\n        /* \"#utility.yul\":1937:1970   */\n      tag_194\n      jump\t// in\n    tag_284:\n        /* \"#utility.yul\":1837:1976   */\n      swap3\n      swap2\n      pop\n      pop\n      jump\t// out\n        /* \"#utility.yul\":1982:2311   */\n    tag_22:\n        /* \"#utility.yul\":2041:2047   */\n      0x00\n        /* \"#utility.yul\":2090:2092   */\n      0x20\n        /* \"#utility.yul\":2078:2087   */\n      dup3\n        /* \"#utility.yul\":2069:2076   */\n      dup5\n        /* \"#utility.yul\":2065:2088   */\n      sub\n        /* \"#utility.yul\":2061:2093   */\n      slt\n        /* \"#utility.yul\":2058:2177   */\n      iszero\n      tag_286\n      jumpi\n        /* \"#utility.yul\":2096:2175   */\n      tag_287\n      tag_185\n      jump\t// in\n    tag_287:\n        /* \"#utility.yul\":2058:2177   */\n    tag_286:\n        /* \"#utility.yul\":2216:2217   */\n      0x00\n        /* \"#utility.yul\":2241:2294   */\n      tag_288\n        /* \"#utility.yul\":2286:2293   */\n      dup5\n        /* \"#utility.yul\":2277:2283   */\n      dup3\n        /* \"#utility.yul\":2266:2275   */\n      dup6\n        /* \"#utility.yul\":2262:2284   */\n      add\n        /* \"#utility.yul\":2241:2294   */\n      tag_195\n      jump\t// in\n    tag_288:\n        /* \"#utility.yul\":2231:2294   */\n      swap2\n      pop\n        /* \"#utility.yul\":2187:2304   */\n      pop\n        /* \"#utility.yul\":1982:2311   */\n      swap3\n      swap2\n      pop\n      pop\n      jump\t// out\n        /* \"#utility.yul\":2317:2435   */\n    tag_196:\n        /* \"#utility.yul\":2404:2428   */\n      tag_290\n        /* \"#utility.yul\":2422:2427   */\n      dup2\n        /* \"#utility.yul\":2404:2428   */\n      tag_193\n      jump\t// in\n    tag_290:\n        /* \"#utility.yul\":2399:2402   */\n      dup3\n        /* \"#utility.yul\":2392:2429   */\n      mstore\n        /* \"#utility.yul\":2317:2435   */\n      pop\n      pop\n      jump\t// out\n        /* \"#utility.yul\":2441:2663   */\n    tag_27:\n        /* \"#utility.yul\":2534:2538   */\n      0x00\n        /* \"#utility.yul\":2572:2574   */\n      0x20\n        /* \"#utility.yul\":2561:2570   */\n      dup3\n        /* \"#utility.yul\":2557:2575   */\n      add\n        /* \"#utility.yul\":2549:2575   */\n      swap1\n      pop\n        /* \"#utility.yul\":2585:2656   */\n      tag_292\n        /* \"#utility.yul\":2653:2654   */\n      0x00\n        /* \"#utility.yul\":2642:2651   */\n      dup4\n        /* \"#utility.yul\":2638:2655   */\n      add\n        /* \"#utility.yul\":2629:2635   */\n      dup5\n        /* \"#utility.yul\":2585:2656   */\n      tag_196\n      jump\t// in\n    tag_292:\n        /* \"#utility.yul\":2441:2663   */\n      swap3\n      swap2\n      pop\n      pop\n      jump\t// out\n        /* \"#utility.yul\":2669:3143   */\n    tag_33:\n        /* \"#utility.yul\":2737:2743   */\n      0x00\n        /* \"#utility.yul\":2745:2751   */\n      dup1\n        /* \"#utility.yul\":2794:2796   */\n      0x40\n        /* \"#utility.yul\":2782:2791   */\n      dup4\n        /* \"#utility.yul\":2773:2780   */\n      dup6\n        /* \"#utility.yul\":2769:2792   */\n      sub\n        /* \"#utility.yul\":2765:2797   */\n      slt\n        /* \"#utility.yul\":2762:2881   */\n      iszero\n      tag_294\n      jumpi\n        /* \"#utility.yul\":2800:2879   */\n      tag_295\n      tag_185\n      jump\t// in\n    tag_295:\n        /* \"#utility.yul\":2762:2881   */\n    tag_294:\n        /* \"#utility.yul\":2920:2921   */\n      0x00\n        /* \"#utility.yul\":2945:2998   */\n      tag_296\n        /* \"#utility.yul\":2990:2997   */\n      dup6\n        /* \"#utility.yul\":2981:2987   */\n      dup3\n        /* \"#utility.yul\":2970:2979   */\n      dup7\n        /* \"#utility.yul\":2966:2988   */\n      add\n        /* \"#utility.yul\":2945:2998   */\n      tag_195\n      jump\t// in\n    tag_296:\n        /* \"#utility.yul\":2935:2998   */\n      swap3\n      pop\n        /* \"#utility.yul\":2891:3008   */\n      pop\n        /* \"#utility.yul\":3047:3049   */\n      0x20\n        /* \"#utility.yul\":3073:3126   */\n      tag_297\n        /* \"#utility.yul\":3118:3125   */\n      dup6\n        /* \"#utility.yul\":3109:3115   */\n      dup3\n        /* \"#utility.yul\":3098:3107   */\n      dup7\n        /* \"#utility.yul\":3094:3116   */\n      add\n        /* \"#utility.yul\":3073:3126   */\n      tag_195\n      jump\t// in\n    tag_297:\n        /* \"#utility.yul\":3063:3126   */\n      swap2\n      pop\n        /* \"#utility.yul\":3018:3136   */\n      pop\n        /* \"#utility.yul\":2669:3143   */\n      swap3\n      pop\n      swap3\n      swap1\n      pop\n      jump\t// out\n        /* \"#utility.yul\":3149:3266   */\n    tag_197:\n        /* \"#utility.yul\":3258:3259   */\n      0x00\n        /* \"#utility.yul\":3255:3256   */\n      dup1\n        /* \"#utility.yul\":3248:3260   */\n      revert\n        /* \"#utility.yul\":3272:3389   */\n    tag_198:\n        /* \"#utility.yul\":3381:3382   */\n      0x00\n        /* \"#utility.yul\":3378:3379   */\n      dup1\n        /* \"#utility.yul\":3371:3383   */\n      revert\n        /* \"#utility.yul\":3395:3497   */\n    tag_199:\n        /* \"#utility.yul\":3436:3442   */\n      0x00\n        /* \"#utility.yul\":3487:3489   */\n      0x1f\n        /* \"#utility.yul\":3483:3490   */\n      not\n        /* \"#utility.yul\":3478:3480   */\n      0x1f\n        /* \"#utility.yul\":3471:3476   */\n      dup4\n        /* \"#utility.yul\":3467:3481   */\n      add\n        /* \"#utility.yul\":3463:3491   */\n      and\n        /* \"#utility.yul\":3453:3491   */\n      swap1\n      pop\n        /* \"#utility.yul\":3395:3497   */\n      swap2\n      swap1\n      pop\n      jump\t// out\n        /* \"#utility.yul\":3503:3683   */\n    tag_200:\n        /* \"#utility.yul\":3551:3628   */\n      0x4e487b7100000000000000000000000000000000000000000000000000000000\n        /* \"#utility.yul\":3548:3549   */\n      0x00\n        /* \"#utility.yul\":3541:3629   */\n      mstore\n        /* \"#utility.yul\":3648:3652   */\n      0x41\n        /* \"#utility.yul\":3645:3646   */\n      0x04\n        /* \"#utility.yul\":3638:3653   */\n      mstore\n        /* \"#utility.yul\":3672:3676   */\n      0x24\n        /* \"#utility.yul\":3669:3670   */\n      0x00\n        /* \"#utility.yul\":3662:3677   */\n      revert\n        /* \"#utility.yul\":3689:3970   */\n    tag_201:\n        /* \"#utility.yul\":3772:3799   */\n      tag_303\n        /* \"#utility.yul\":3794:3798   */\n      dup3\n        /* \"#utility.yul\":3772:3799   */\n      tag_199\n      jump\t// in\n    tag_303:\n        /* \"#utility.yul\":3764:3770   */\n      dup2\n        /* \"#utility.yul\":3760:3800   */\n      add\n        /* \"#utility.yul\":3902:3908   */\n      dup2\n        /* \"#utility.yul\":3890:3900   */\n      dup2\n        /* \"#utility.yul\":3887:3909   */\n      lt\n        /* \"#utility.yul\":3866:3884   */\n      0xffffffffffffffff\n        /* \"#utility.yul\":3854:3864   */\n      dup3\n        /* \"#utility.yul\":3851:3885   */\n      gt\n        /* \"#utility.yul\":3848:3910   */\n      or\n        /* \"#utility.yul\":3845:3933   */\n      iszero\n      tag_304\n      jumpi\n        /* \"#utility.yul\":3913:3931   */\n      tag_305\n      tag_200\n      jump\t// in\n    tag_305:\n        /* \"#utility.yul\":3845:3933   */\n    tag_304:\n        /* \"#utility.yul\":3953:3963   */\n      dup1\n        /* \"#utility.yul\":3949:3951   */\n      0x40\n        /* \"#utility.yul\":3942:3964   */\n      mstore\n        /* \"#utility.yul\":3732:3970   */\n      pop\n        /* \"#utility.yul\":3689:3970   */\n      pop\n      pop\n      jump\t// out\n        /* \"#utility.yul\":3976:4105   */\n    tag_202:\n        /* \"#utility.yul\":4010:4016   */\n      0x00\n        /* \"#utility.yul\":4037:4057   */\n      tag_307\n      tag_184\n      jump\t// in\n    tag_307:\n        /* \"#utility.yul\":4027:4057   */\n      swap1\n      pop\n        /* \"#utility.yul\":4066:4099   */\n      tag_308\n        /* \"#utility.yul\":4094:4098   */\n      dup3\n        /* \"#utility.yul\":4086:4092   */\n      dup3\n        /* \"#utility.yul\":4066:4099   */\n      tag_201\n      jump\t// in\n    tag_308:\n        /* \"#utility.yul\":3976:4105   */\n      swap2\n      swap1\n      pop\n      jump\t// out\n        /* \"#utility.yul\":4111:4419   */\n    tag_203:\n        /* \"#utility.yul\":4173:4177   */\n      0x00\n        /* \"#utility.yul\":4263:4281   */\n      0xffffffffffffffff\n        /* \"#utility.yul\":4255:4261   */\n      dup3\n        /* \"#utility.yul\":4252:4282   */\n      gt\n        /* \"#utility.yul\":4249:4305   */\n      iszero\n      tag_310\n      jumpi\n        /* \"#utility.yul\":4285:4303   */\n      tag_311\n      tag_200\n      jump\t// in\n    tag_311:\n        /* \"#utility.yul\":4249:4305   */\n    tag_310:\n        /* \"#utility.yul\":4323:4352   */\n      tag_312\n        /* \"#utility.yul\":4345:4351   */\n      dup3\n        /* \"#utility.yul\":4323:4352   */\n      tag_199\n      jump\t// in\n    tag_312:\n        /* \"#utility.yul\":4315:4352   */\n      swap1\n      pop\n        /* \"#utility.yul\":4407:4411   */\n      0x20\n        /* \"#utility.yul\":4401:4405   */\n      dup2\n        /* \"#utility.yul\":4397:4412   */\n      add\n        /* \"#utility.yul\":4389:4412   */\n      swap1\n      pop\n        /* \"#utility.yul\":4111:4419   */\n      swap2\n      swap1\n      pop\n      jump\t// out\n        /* \"#utility.yul\":4425:4579   */\n    tag_204:\n        /* \"#utility.yul\":4509:4515   */\n      dup3\n        /* \"#utility.yul\":4504:4507   */\n      dup2\n        /* \"#utility.yul\":4499:4502   */\n      dup4\n        /* \"#utility.yul\":4486:4516   */\n      calldatacopy\n        /* \"#utility.yul\":4571:4572   */\n      0x00\n        /* \"#utility.yul\":4562:4568   */\n      dup4\n        /* \"#utility.yul\":4557:4560   */\n      dup4\n        /* \"#utility.yul\":4553:4569   */\n      add\n        /* \"#utility.yul\":4546:4573   */\n      mstore\n        /* \"#utility.yul\":4425:4579   */\n      pop\n      pop\n      pop\n      jump\t// out\n        /* \"#utility.yul\":4585:4997   */\n    tag_205:\n        /* \"#utility.yul\":4663:4668   */\n      0x00\n        /* \"#utility.yul\":4688:4754   */\n      tag_315\n        /* \"#utility.yul\":4704:4753   */\n      tag_316\n        /* \"#utility.yul\":4746:4752   */\n      dup5\n        /* \"#utility.yul\":4704:4753   */\n      tag_203\n      jump\t// in\n    tag_316:\n        /* \"#utility.yul\":4688:4754   */\n      tag_202\n      jump\t// in\n    tag_315:\n        /* \"#utility.yul\":4679:4754   */\n      swap1\n      pop\n        /* \"#utility.yul\":4777:4783   */\n      dup3\n        /* \"#utility.yul\":4770:4775   */\n      dup2\n        /* \"#utility.yul\":4763:4784   */\n      mstore\n        /* \"#utility.yul\":4815:4819   */\n      0x20\n        /* \"#utility.yul\":4808:4813   */\n      dup2\n        /* \"#utility.yul\":4804:4820   */\n      add\n        /* \"#utility.yul\":4853:4856   */\n      dup5\n        /* \"#utility.yul\":4844:4850   */\n      dup5\n        /* \"#utility.yul\":4839:4842   */\n      dup5\n        /* \"#utility.yul\":4835:4851   */\n      add\n        /* \"#utility.yul\":4832:4857   */\n      gt\n        /* \"#utility.yul\":4829:4941   */\n      iszero\n      tag_317\n      jumpi\n        /* \"#utility.yul\":4860:4939   */\n      tag_318\n      tag_198\n      jump\t// in\n    tag_318:\n        /* \"#utility.yul\":4829:4941   */\n    tag_317:\n        /* \"#utility.yul\":4950:4991   */\n      tag_319\n        /* \"#utility.yul\":4984:4990   */\n      dup5\n        /* \"#utility.yul\":4979:4982   */\n      dup3\n        /* \"#utility.yul\":4974:4977   */\n      dup6\n        /* \"#utility.yul\":4950:4991   */\n      tag_204\n      jump\t// in\n    tag_319:\n        /* \"#utility.yul\":4669:4997   */\n      pop\n        /* \"#utility.yul\":4585:4997   */\n      swap4\n      swap3\n      pop\n      pop\n      pop\n      jump\t// out\n        /* \"#utility.yul\":5017:5357   */\n    tag_206:\n        /* \"#utility.yul\":5073:5078   */\n      0x00\n        /* \"#utility.yul\":5122:5125   */\n      dup3\n        /* \"#utility.yul\":5115:5119   */\n      0x1f\n        /* \"#utility.yul\":5107:5113   */\n      dup4\n        /* \"#utility.yul\":5103:5120   */\n      add\n        /* \"#utility.yul\":5099:5126   */\n      slt\n        /* \"#utility.yul\":5089:5211   */\n      tag_321\n      jumpi\n        /* \"#utility.yul\":5130:5209   */\n      tag_322\n      tag_197\n      jump\t// in\n    tag_322:\n        /* \"#utility.yul\":5089:5211   */\n    tag_321:\n        /* \"#utility.yul\":5247:5253   */\n      dup2\n        /* \"#utility.yul\":5234:5254   */\n      calldataload\n        /* \"#utility.yul\":5272:5351   */\n      tag_323\n        /* \"#utility.yul\":5347:5350   */\n      dup5\n        /* \"#utility.yul\":5339:5345   */\n      dup3\n        /* \"#utility.yul\":5332:5336   */\n      0x20\n        /* \"#utility.yul\":5324:5330   */\n      dup7\n        /* \"#utility.yul\":5320:5337   */\n      add\n        /* \"#utility.yul\":5272:5351   */\n      tag_205\n      jump\t// in\n    tag_323:\n        /* \"#utility.yul\":5263:5351   */\n      swap2\n      pop\n        /* \"#utility.yul\":5079:5357   */\n      pop\n        /* \"#utility.yul\":5017:5357   */\n      swap3\n      swap2\n      pop\n      pop\n      jump\t// out\n        /* \"#utility.yul\":5363:6162   */\n    tag_40:\n        /* \"#utility.yul\":5450:5456   */\n      0x00\n        /* \"#utility.yul\":5458:5464   */\n      dup1\n        /* \"#utility.yul\":5466:5472   */\n      0x00\n        /* \"#utility.yul\":5515:5517   */\n      0x60\n        /* \"#utility.yul\":5503:5512   */\n      dup5\n        /* \"#utility.yul\":5494:5501   */\n      dup7\n        /* \"#utility.yul\":5490:5513   */\n      sub\n        /* \"#utility.yul\":5486:5518   */\n      slt\n        /* \"#utility.yul\":5483:5602   */\n      iszero\n      tag_325\n      jumpi\n        /* \"#utility.yul\":5521:5600   */\n      tag_326\n      tag_185\n      jump\t// in\n    tag_326:\n        /* \"#utility.yul\":5483:5602   */\n    tag_325:\n        /* \"#utility.yul\":5641:5642   */\n      0x00\n        /* \"#utility.yul\":5666:5719   */\n      tag_327\n        /* \"#utility.yul\":5711:5718   */\n      dup7\n        /* \"#utility.yul\":5702:5708   */\n      dup3\n        /* \"#utility.yul\":5691:5700   */\n      dup8\n        /* \"#utility.yul\":5687:5709   */\n      add\n        /* \"#utility.yul\":5666:5719   */\n      tag_195\n      jump\t// in\n    tag_327:\n        /* \"#utility.yul\":5656:5719   */\n      swap4\n      pop\n        /* \"#utility.yul\":5612:5729   */\n      pop\n        /* \"#utility.yul\":5796:5798   */\n      0x20\n        /* \"#utility.yul\":5785:5794   */\n      dup5\n        /* \"#utility.yul\":5781:5799   */\n      add\n        /* \"#utility.yul\":5768:5800   */\n      calldataload\n        /* \"#utility.yul\":5827:5845   */\n      0xffffffffffffffff\n        /* \"#utility.yul\":5819:5825   */\n      dup2\n        /* \"#utility.yul\":5816:5846   */\n      gt\n        /* \"#utility.yul\":5813:5930   */\n      iszero\n      tag_328\n      jumpi\n        /* \"#utility.yul\":5849:5928   */\n      tag_329\n      tag_186\n      jump\t// in\n    tag_329:\n        /* \"#utility.yul\":5813:5930   */\n    tag_328:\n        /* \"#utility.yul\":5954:6017   */\n      tag_330\n        /* \"#utility.yul\":6009:6016   */\n      dup7\n        /* \"#utility.yul\":6000:6006   */\n      dup3\n        /* \"#utility.yul\":5989:5998   */\n      dup8\n        /* \"#utility.yul\":5985:6007   */\n      add\n        /* \"#utility.yul\":5954:6017   */\n      tag_206\n      jump\t// in\n    tag_330:\n        /* \"#utility.yul\":5944:6017   */\n      swap3\n      pop\n        /* \"#utility.yul\":5739:6027   */\n      pop\n        /* \"#utility.yul\":6066:6068   */\n      0x40\n        /* \"#utility.yul\":6092:6145   */\n      tag_331\n        /* \"#utility.yul\":6137:6144   */\n      dup7\n        /* \"#utility.yul\":6128:6134   */\n      dup3\n        /* \"#utility.yul\":6117:6126   */\n      dup8\n        /* \"#utility.yul\":6113:6135   */\n      add\n        /* \"#utility.yul\":6092:6145   */\n      tag_195\n      jump\t// in\n    tag_331:\n        /* \"#utility.yul\":6082:6145   */\n      swap2\n      pop\n        /* \"#utility.yul\":6037:6155   */\n      pop\n        /* \"#utility.yul\":5363:6162   */\n      swap3\n      pop\n      swap3\n      pop\n      swap3\n      jump\t// out\n        /* \"#utility.yul\":6168:6497   */\n    tag_44:\n        /* \"#utility.yul\":6227:6233   */\n      0x00\n        /* \"#utility.yul\":6276:6278   */\n      0x20\n        /* \"#utility.yul\":6264:6273   */\n      dup3\n        /* \"#utility.yul\":6255:6262   */\n      dup5\n        /* \"#utility.yul\":6251:6274   */\n      sub\n        /* \"#utility.yul\":6247:6279   */\n      slt\n        /* \"#utility.yul\":6244:6363   */\n      iszero\n      tag_333\n      jumpi\n        /* \"#utility.yul\":6282:6361   */\n      tag_334\n      tag_185\n      jump\t// in\n    tag_334:\n        /* \"#utility.yul\":6244:6363   */\n    tag_333:\n        /* \"#utility.yul\":6402:6403   */\n      0x00\n        /* \"#utility.yul\":6427:6480   */\n      tag_335\n        /* \"#utility.yul\":6472:6479   */\n      dup5\n        /* \"#utility.yul\":6463:6469   */\n      dup3\n        /* \"#utility.yul\":6452:6461   */\n      dup6\n        /* \"#utility.yul\":6448:6470   */\n      add\n        /* \"#utility.yul\":6427:6480   */\n      tag_190\n      jump\t// in\n    tag_335:\n        /* \"#utility.yul\":6417:6480   */\n      swap2\n      pop\n        /* \"#utility.yul\":6373:6490   */\n      pop\n        /* \"#utility.yul\":6168:6497   */\n      swap3\n      swap2\n      pop\n      pop\n      jump\t// out\n        /* \"#utility.yul\":6503:6683   */\n    tag_69:\n        /* \"#utility.yul\":6551:6628   */\n      0x4e487b7100000000000000000000000000000000000000000000000000000000\n        /* \"#utility.yul\":6548:6549   */\n      0x00\n        /* \"#utility.yul\":6541:6629   */\n      mstore\n        /* \"#utility.yul\":6648:6652   */\n      0x21\n        /* \"#utility.yul\":6645:6646   */\n      0x04\n        /* \"#utility.yul\":6638:6653   */\n      mstore\n        /* \"#utility.yul\":6672:6676   */\n      0x24\n        /* \"#utility.yul\":6669:6670   */\n      0x00\n        /* \"#utility.yul\":6662:6677   */\n      revert\n        /* \"#utility.yul\":6689:6805   */\n    tag_207:\n        /* \"#utility.yul\":6773:6774   */\n      0x03\n        /* \"#utility.yul\":6766:6771   */\n      dup2\n        /* \"#utility.yul\":6763:6775   */\n      lt\n        /* \"#utility.yul\":6753:6799   */\n      tag_338\n      jumpi\n        /* \"#utility.yul\":6779:6797   */\n      tag_339\n      tag_69\n      jump\t// in\n    tag_339:\n        /* \"#utility.yul\":6753:6799   */\n    tag_338:\n        /* \"#utility.yul\":6689:6805   */\n      pop\n      jump\t// out\n        /* \"#utility.yul\":6811:6944   */\n    tag_208:\n        /* \"#utility.yul\":6859:6866   */\n      0x00\n        /* \"#utility.yul\":6888:6893   */\n      dup2\n        /* \"#utility.yul\":6877:6893   */\n      swap1\n      pop\n        /* \"#utility.yul\":6894:6938   */\n      tag_341\n        /* \"#utility.yul\":6932:6937   */\n      dup3\n        /* \"#utility.yul\":6894:6938   */\n      tag_207\n      jump\t// in\n    tag_341:\n        /* \"#utility.yul\":6811:6944   */\n      swap2\n      swap1\n      pop\n      jump\t// out\n        /* \"#utility.yul\":6950:7083   */\n    tag_209:\n        /* \"#utility.yul\":7009:7018   */\n      0x00\n        /* \"#utility.yul\":7042:7077   */\n      tag_343\n        /* \"#utility.yul\":7071:7076   */\n      dup3\n        /* \"#utility.yul\":7042:7077   */\n      tag_208\n      jump\t// in\n    tag_343:\n        /* \"#utility.yul\":7029:7077   */\n      swap1\n      pop\n        /* \"#utility.yul\":6950:7083   */\n      swap2\n      swap1\n      pop\n      jump\t// out\n        /* \"#utility.yul\":7089:7238   */\n    tag_210:\n        /* \"#utility.yul\":7185:7231   */\n      tag_345\n        /* \"#utility.yul\":7225:7230   */\n      dup2\n        /* \"#utility.yul\":7185:7231   */\n      tag_209\n      jump\t// in\n    tag_345:\n        /* \"#utility.yul\":7180:7183   */\n      dup3\n        /* \"#utility.yul\":7173:7232   */\n      mstore\n        /* \"#utility.yul\":7089:7238   */\n      pop\n      pop\n      jump\t// out\n        /* \"#utility.yul\":7244:7484   */\n    tag_47:\n        /* \"#utility.yul\":7346:7350   */\n      0x00\n        /* \"#utility.yul\":7384:7386   */\n      0x20\n        /* \"#utility.yul\":7373:7382   */\n      dup3\n        /* \"#utility.yul\":7369:7387   */\n      add\n        /* \"#utility.yul\":7361:7387   */\n      swap1\n      pop\n        /* \"#utility.yul\":7397:7477   */\n      tag_347\n        /* \"#utility.yul\":7474:7475   */\n      0x00\n        /* \"#utility.yul\":7463:7472   */\n      dup4\n        /* \"#utility.yul\":7459:7476   */\n      add\n        /* \"#utility.yul\":7450:7456   */\n      dup5\n        /* \"#utility.yul\":7397:7477   */\n      tag_210\n      jump\t// in\n    tag_347:\n        /* \"#utility.yul\":7244:7484   */\n      swap3\n      swap2\n      pop\n      pop\n      jump\t// out\n        /* \"#utility.yul\":7490:8144   */\n    tag_50:\n        /* \"#utility.yul\":7568:7574   */\n      0x00\n        /* \"#utility.yul\":7576:7582   */\n      dup1\n        /* \"#utility.yul\":7625:7627   */\n      0x40\n        /* \"#utility.yul\":7613:7622   */\n      dup4\n        /* \"#utility.yul\":7604:7611   */\n      dup6\n        /* \"#utility.yul\":7600:7623   */\n      sub\n        /* \"#utility.yul\":7596:7628   */\n      slt\n        /* \"#utility.yul\":7593:7712   */\n      iszero\n      tag_349\n      jumpi\n        /* \"#utility.yul\":7631:7710   */\n      tag_350\n      tag_185\n      jump\t// in\n    tag_350:\n        /* \"#utility.yul\":7593:7712   */\n    tag_349:\n        /* \"#utility.yul\":7779:7780   */\n      0x00\n        /* \"#utility.yul\":7768:7777   */\n      dup4\n        /* \"#utility.yul\":7764:7781   */\n      add\n        /* \"#utility.yul\":7751:7782   */\n      calldataload\n        /* \"#utility.yul\":7809:7827   */\n      0xffffffffffffffff\n        /* \"#utility.yul\":7801:7807   */\n      dup2\n        /* \"#utility.yul\":7798:7828   */\n      gt\n        /* \"#utility.yul\":7795:7912   */\n      iszero\n      tag_351\n      jumpi\n        /* \"#utility.yul\":7831:7910   */\n      tag_352\n      tag_186\n      jump\t// in\n    tag_352:\n        /* \"#utility.yul\":7795:7912   */\n    tag_351:\n        /* \"#utility.yul\":7936:7999   */\n      tag_353\n        /* \"#utility.yul\":7991:7998   */\n      dup6\n        /* \"#utility.yul\":7982:7988   */\n      dup3\n        /* \"#utility.yul\":7971:7980   */\n      dup7\n        /* \"#utility.yul\":7967:7989   */\n      add\n        /* \"#utility.yul\":7936:7999   */\n      tag_206\n      jump\t// in\n    tag_353:\n        /* \"#utility.yul\":7926:7999   */\n      swap3\n      pop\n        /* \"#utility.yul\":7722:8009   */\n      pop\n        /* \"#utility.yul\":8048:8050   */\n      0x20\n        /* \"#utility.yul\":8074:8127   */\n      tag_354\n        /* \"#utility.yul\":8119:8126   */\n      dup6\n        /* \"#utility.yul\":8110:8116   */\n      dup3\n        /* \"#utility.yul\":8099:8108   */\n      dup7\n        /* \"#utility.yul\":8095:8117   */\n      add\n        /* \"#utility.yul\":8074:8127   */\n      tag_195\n      jump\t// in\n    tag_354:\n        /* \"#utility.yul\":8064:8127   */\n      swap2\n      pop\n        /* \"#utility.yul\":8019:8137   */\n      pop\n        /* \"#utility.yul\":7490:8144   */\n      swap3\n      pop\n      swap3\n      swap1\n      pop\n      jump\t// out\n        /* \"#utility.yul\":8150:8249   */\n    tag_211:\n        /* \"#utility.yul\":8202:8208   */\n      0x00\n        /* \"#utility.yul\":8236:8241   */\n      dup2\n        /* \"#utility.yul\":8230:8242   */\n      mload\n        /* \"#utility.yul\":8220:8242   */\n      swap1\n      pop\n        /* \"#utility.yul\":8150:8249   */\n      swap2\n      swap1\n      pop\n      jump\t// out\n        /* \"#utility.yul\":8255:8424   */\n    tag_212:\n        /* \"#utility.yul\":8339:8350   */\n      0x00\n        /* \"#utility.yul\":8373:8379   */\n      dup3\n        /* \"#utility.yul\":8368:8371   */\n      dup3\n        /* \"#utility.yul\":8361:8380   */\n      mstore\n        /* \"#utility.yul\":8413:8417   */\n      0x20\n        /* \"#utility.yul\":8408:8411   */\n      dup3\n        /* \"#utility.yul\":8404:8418   */\n      add\n        /* \"#utility.yul\":8389:8418   */\n      swap1\n      pop\n        /* \"#utility.yul\":8255:8424   */\n      swap3\n      swap2\n      pop\n      pop\n      jump\t// out\n        /* \"#utility.yul\":8430:8737   */\n    tag_213:\n        /* \"#utility.yul\":8498:8499   */\n      0x00\n        /* \"#utility.yul\":8508:8621   */\n    tag_358:\n        /* \"#utility.yul\":8522:8528   */\n      dup4\n        /* \"#utility.yul\":8519:8520   */\n      dup2\n        /* \"#utility.yul\":8516:8529   */\n      lt\n        /* \"#utility.yul\":8508:8621   */\n      iszero\n      tag_360\n      jumpi\n        /* \"#utility.yul\":8607:8608   */\n      dup1\n        /* \"#utility.yul\":8602:8605   */\n      dup3\n        /* \"#utility.yul\":8598:8609   */\n      add\n        /* \"#utility.yul\":8592:8610   */\n      mload\n        /* \"#utility.yul\":8588:8589   */\n      dup2\n        /* \"#utility.yul\":8583:8586   */\n      dup5\n        /* \"#utility.yul\":8579:8590   */\n      add\n        /* \"#utility.yul\":8572:8611   */\n      mstore\n        /* \"#utility.yul\":8544:8546   */\n      0x20\n        /* \"#utility.yul\":8541:8542   */\n      dup2\n        /* \"#utility.yul\":8537:8547   */\n      add\n        /* \"#utility.yul\":8532:8547   */\n      swap1\n      pop\n        /* \"#utility.yul\":8508:8621   */\n      jump(tag_358)\n    tag_360:\n        /* \"#utility.yul\":8639:8645   */\n      dup4\n        /* \"#utility.yul\":8636:8637   */\n      dup2\n        /* \"#utility.yul\":8633:8646   */\n      gt\n        /* \"#utility.yul\":8630:8731   */\n      iszero\n      tag_361\n      jumpi\n        /* \"#utility.yul\":8719:8720   */\n      0x00\n        /* \"#utility.yul\":8710:8716   */\n      dup5\n        /* \"#utility.yul\":8705:8708   */\n      dup5\n        /* \"#utility.yul\":8701:8717   */\n      add\n        /* \"#utility.yul\":8694:8721   */\n      mstore\n        /* \"#utility.yul\":8630:8731   */\n    tag_361:\n        /* \"#utility.yul\":8479:8737   */\n      pop\n        /* \"#utility.yul\":8430:8737   */\n      pop\n      pop\n      pop\n      jump\t// out\n        /* \"#utility.yul\":8743:9107   */\n    tag_214:\n        /* \"#utility.yul\":8831:8834   */\n      0x00\n        /* \"#utility.yul\":8859:8898   */\n      tag_363\n        /* \"#utility.yul\":8892:8897   */\n      dup3\n        /* \"#utility.yul\":8859:8898   */\n      tag_211\n      jump\t// in\n    tag_363:\n        /* \"#utility.yul\":8914:8985   */\n      tag_364\n        /* \"#utility.yul\":8978:8984   */\n      dup2\n        /* \"#utility.yul\":8973:8976   */\n      dup6\n        /* \"#utility.yul\":8914:8985   */\n      tag_212\n      jump\t// in\n    tag_364:\n        /* \"#utility.yul\":8907:8985   */\n      swap4\n      pop\n        /* \"#utility.yul\":8994:9046   */\n      tag_365\n        /* \"#utility.yul\":9039:9045   */\n      dup2\n        /* \"#utility.yul\":9034:9037   */\n      dup6\n        /* \"#utility.yul\":9027:9031   */\n      0x20\n        /* \"#utility.yul\":9020:9025   */\n      dup7\n        /* \"#utility.yul\":9016:9032   */\n      add\n        /* \"#utility.yul\":8994:9046   */\n      tag_213\n      jump\t// in\n    tag_365:\n        /* \"#utility.yul\":9071:9100   */\n      tag_366\n        /* \"#utility.yul\":9093:9099   */\n      dup2\n        /* \"#utility.yul\":9071:9100   */\n      tag_199\n      jump\t// in\n    tag_366:\n        /* \"#utility.yul\":9066:9069   */\n      dup5\n        /* \"#utility.yul\":9062:9101   */\n      add\n        /* \"#utility.yul\":9055:9101   */\n      swap2\n      pop\n        /* \"#utility.yul\":8835:9107   */\n      pop\n        /* \"#utility.yul\":8743:9107   */\n      swap3\n      swap2\n      pop\n      pop\n      jump\t// out\n        /* \"#utility.yul\":9113:9231   */\n    tag_215:\n        /* \"#utility.yul\":9200:9224   */\n      tag_368\n        /* \"#utility.yul\":9218:9223   */\n      dup2\n        /* \"#utility.yul\":9200:9224   */\n      tag_188\n      jump\t// in\n    tag_368:\n        /* \"#utility.yul\":9195:9198   */\n      dup3\n        /* \"#utility.yul\":9188:9225   */\n      mstore\n        /* \"#utility.yul\":9113:9231   */\n      pop\n      pop\n      jump\t// out\n        /* \"#utility.yul\":9237:9327   */\n    tag_216:\n        /* \"#utility.yul\":9271:9278   */\n      0x00\n        /* \"#utility.yul\":9314:9319   */\n      dup2\n        /* \"#utility.yul\":9307:9320   */\n      iszero\n        /* \"#utility.yul\":9300:9321   */\n      iszero\n        /* \"#utility.yul\":9289:9321   */\n      swap1\n      pop\n        /* \"#utility.yul\":9237:9327   */\n      swap2\n      swap1\n      pop\n      jump\t// out\n        /* \"#utility.yul\":9333:9442   */\n    tag_217:\n        /* \"#utility.yul\":9414:9435   */\n      tag_371\n        /* \"#utility.yul\":9429:9434   */\n      dup2\n        /* \"#utility.yul\":9414:9435   */\n      tag_216\n      jump\t// in\n    tag_371:\n        /* \"#utility.yul\":9409:9412   */\n      dup3\n        /* \"#utility.yul\":9402:9436   */\n      mstore\n        /* \"#utility.yul\":9333:9442   */\n      pop\n      pop\n      jump\t// out\n        /* \"#utility.yul\":9448:9969   */\n    tag_56:\n        /* \"#utility.yul\":9611:9615   */\n      0x00\n        /* \"#utility.yul\":9649:9651   */\n      0x60\n        /* \"#utility.yul\":9638:9647   */\n      dup3\n        /* \"#utility.yul\":9634:9652   */\n      add\n        /* \"#utility.yul\":9626:9652   */\n      swap1\n      pop\n        /* \"#utility.yul\":9698:9707   */\n      dup2\n        /* \"#utility.yul\":9692:9696   */\n      dup2\n        /* \"#utility.yul\":9688:9708   */\n      sub\n        /* \"#utility.yul\":9684:9685   */\n      0x00\n        /* \"#utility.yul\":9673:9682   */\n      dup4\n        /* \"#utility.yul\":9669:9686   */\n      add\n        /* \"#utility.yul\":9662:9709   */\n      mstore\n        /* \"#utility.yul\":9726:9804   */\n      tag_373\n        /* \"#utility.yul\":9799:9803   */\n      dup2\n        /* \"#utility.yul\":9790:9796   */\n      dup7\n        /* \"#utility.yul\":9726:9804   */\n      tag_214\n      jump\t// in\n    tag_373:\n        /* \"#utility.yul\":9718:9804   */\n      swap1\n      pop\n        /* \"#utility.yul\":9814:9886   */\n      tag_374\n        /* \"#utility.yul\":9882:9884   */\n      0x20\n        /* \"#utility.yul\":9871:9880   */\n      dup4\n        /* \"#utility.yul\":9867:9885   */\n      add\n        /* \"#utility.yul\":9858:9864   */\n      dup6\n        /* \"#utility.yul\":9814:9886   */\n      tag_215\n      jump\t// in\n    tag_374:\n        /* \"#utility.yul\":9896:9962   */\n      tag_375\n        /* \"#utility.yul\":9958:9960   */\n      0x40\n        /* \"#utility.yul\":9947:9956   */\n      dup4\n        /* \"#utility.yul\":9943:9961   */\n      add\n        /* \"#utility.yul\":9934:9940   */\n      dup5\n        /* \"#utility.yul\":9896:9962   */\n      tag_217\n      jump\t// in\n    tag_375:\n        /* \"#utility.yul\":9448:9969   */\n      swap5\n      swap4\n      pop\n      pop\n      pop\n      pop\n      jump\t// out\n        /* \"#utility.yul\":9975:10508   */\n    tag_61:\n        /* \"#utility.yul\":10144:10148   */\n      0x00\n        /* \"#utility.yul\":10182:10184   */\n      0x60\n        /* \"#utility.yul\":10171:10180   */\n      dup3\n        /* \"#utility.yul\":10167:10185   */\n      add\n        /* \"#utility.yul\":10159:10185   */\n      swap1\n      pop\n        /* \"#utility.yul\":10231:10240   */\n      dup2\n        /* \"#utility.yul\":10225:10229   */\n      dup2\n        /* \"#utility.yul\":10221:10241   */\n      sub\n        /* \"#utility.yul\":10217:10218   */\n      0x00\n        /* \"#utility.yul\":10206:10215   */\n      dup4\n        /* \"#utility.yul\":10202:10219   */\n      add\n        /* \"#utility.yul\":10195:10242   */\n      mstore\n        /* \"#utility.yul\":10259:10337   */\n      tag_377\n        /* \"#utility.yul\":10332:10336   */\n      dup2\n        /* \"#utility.yul\":10323:10329   */\n      dup7\n        /* \"#utility.yul\":10259:10337   */\n      tag_214\n      jump\t// in\n    tag_377:\n        /* \"#utility.yul\":10251:10337   */\n      swap1\n      pop\n        /* \"#utility.yul\":10347:10419   */\n      tag_378\n        /* \"#utility.yul\":10415:10417   */\n      0x20\n        /* \"#utility.yul\":10404:10413   */\n      dup4\n        /* \"#utility.yul\":10400:10418   */\n      add\n        /* \"#utility.yul\":10391:10397   */\n      dup6\n        /* \"#utility.yul\":10347:10419   */\n      tag_215\n      jump\t// in\n    tag_378:\n        /* \"#utility.yul\":10429:10501   */\n      tag_379\n        /* \"#utility.yul\":10497:10499   */\n      0x40\n        /* \"#utility.yul\":10486:10495   */\n      dup4\n        /* \"#utility.yul\":10482:10500   */\n      add\n        /* \"#utility.yul\":10473:10479   */\n      dup5\n        /* \"#utility.yul\":10429:10501   */\n      tag_196\n      jump\t// in\n    tag_379:\n        /* \"#utility.yul\":9975:10508   */\n      swap5\n      swap4\n      pop\n      pop\n      pop\n      pop\n      jump\t// out\n        /* \"#utility.yul\":10514:10574   */\n    tag_218:\n        /* \"#utility.yul\":10542:10545   */\n      0x00\n        /* \"#utility.yul\":10563:10568   */\n      dup2\n        /* \"#utility.yul\":10556:10568   */\n      swap1\n      pop\n        /* \"#utility.yul\":10514:10574   */\n      swap2\n      swap1\n      pop\n      jump\t// out\n        /* \"#utility.yul\":10580:10722   */\n    tag_219:\n        /* \"#utility.yul\":10630:10639   */\n      0x00\n        /* \"#utility.yul\":10663:10716   */\n      tag_382\n        /* \"#utility.yul\":10681:10715   */\n      tag_383\n        /* \"#utility.yul\":10690:10714   */\n      tag_384\n        /* \"#utility.yul\":10708:10713   */\n      dup5\n        /* \"#utility.yul\":10690:10714   */\n      tag_187\n      jump\t// in\n    tag_384:\n        /* \"#utility.yul\":10681:10715   */\n      tag_218\n      jump\t// in\n    tag_383:\n        /* \"#utility.yul\":10663:10716   */\n      tag_187\n      jump\t// in\n    tag_382:\n        /* \"#utility.yul\":10650:10716   */\n      swap1\n      pop\n        /* \"#utility.yul\":10580:10722   */\n      swap2\n      swap1\n      pop\n      jump\t// out\n        /* \"#utility.yul\":10728:10854   */\n    tag_220:\n        /* \"#utility.yul\":10778:10787   */\n      0x00\n        /* \"#utility.yul\":10811:10848   */\n      tag_386\n        /* \"#utility.yul\":10842:10847   */\n      dup3\n        /* \"#utility.yul\":10811:10848   */\n      tag_219\n      jump\t// in\n    tag_386:\n        /* \"#utility.yul\":10798:10848   */\n      swap1\n      pop\n        /* \"#utility.yul\":10728:10854   */\n      swap2\n      swap1\n      pop\n      jump\t// out\n        /* \"#utility.yul\":10860:10998   */\n    tag_221:\n        /* \"#utility.yul\":10922:10931   */\n      0x00\n        /* \"#utility.yul\":10955:10992   */\n      tag_388\n        /* \"#utility.yul\":10986:10991   */\n      dup3\n        /* \"#utility.yul\":10955:10992   */\n      tag_220\n      jump\t// in\n    tag_388:\n        /* \"#utility.yul\":10942:10992   */\n      swap1\n      pop\n        /* \"#utility.yul\":10860:10998   */\n      swap2\n      swap1\n      pop\n      jump\t// out\n        /* \"#utility.yul\":11004:11159   */\n    tag_222:\n        /* \"#utility.yul\":11103:11152   */\n      tag_390\n        /* \"#utility.yul\":11146:11151   */\n      dup2\n        /* \"#utility.yul\":11103:11152   */\n      tag_221\n      jump\t// in\n    tag_390:\n        /* \"#utility.yul\":11098:11101   */\n      dup3\n        /* \"#utility.yul\":11091:11153   */\n      mstore\n        /* \"#utility.yul\":11004:11159   */\n      pop\n      pop\n      jump\t// out\n        /* \"#utility.yul\":11165:11411   */\n    tag_65:\n        /* \"#utility.yul\":11270:11274   */\n      0x00\n        /* \"#utility.yul\":11308:11310   */\n      0x20\n        /* \"#utility.yul\":11297:11306   */\n      dup3\n        /* \"#utility.yul\":11293:11311   */\n      add\n        /* \"#utility.yul\":11285:11311   */\n      swap1\n      pop\n        /* \"#utility.yul\":11321:11404   */\n      tag_392\n        /* \"#utility.yul\":11401:11402   */\n      0x00\n        /* \"#utility.yul\":11390:11399   */\n      dup4\n        /* \"#utility.yul\":11386:11403   */\n      add\n        /* \"#utility.yul\":11377:11383   */\n      dup5\n        /* \"#utility.yul\":11321:11404   */\n      tag_222\n      jump\t// in\n    tag_392:\n        /* \"#utility.yul\":11165:11411   */\n      swap3\n      swap2\n      pop\n      pop\n      jump\t// out\n        /* \"#utility.yul\":11417:11579   */\n    tag_223:\n        /* \"#utility.yul\":11557:11571   */\n      0x556e617574686f72697a65640000000000000000000000000000000000000000\n        /* \"#utility.yul\":11553:11554   */\n      0x00\n        /* \"#utility.yul\":11545:11551   */\n      dup3\n        /* \"#utility.yul\":11541:11555   */\n      add\n        /* \"#utility.yul\":11534:11572   */\n      mstore\n        /* \"#utility.yul\":11417:11579   */\n      pop\n      jump\t// out\n        /* \"#utility.yul\":11585:11951   */\n    tag_224:\n        /* \"#utility.yul\":11727:11730   */\n      0x00\n        /* \"#utility.yul\":11748:11815   */\n      tag_395\n        /* \"#utility.yul\":11812:11814   */\n      0x0c\n        /* \"#utility.yul\":11807:11810   */\n      dup4\n        /* \"#utility.yul\":11748:11815   */\n      tag_212\n      jump\t// in\n    tag_395:\n        /* \"#utility.yul\":11741:11815   */\n      swap2\n      pop\n        /* \"#utility.yul\":11824:11917   */\n      tag_396\n        /* \"#utility.yul\":11913:11916   */\n      dup3\n        /* \"#utility.yul\":11824:11917   */\n      tag_223\n      jump\t// in\n    tag_396:\n        /* \"#utility.yul\":11942:11944   */\n      0x20\n        /* \"#utility.yul\":11937:11940   */\n      dup3\n        /* \"#utility.yul\":11933:11945   */\n      add\n        /* \"#utility.yul\":11926:11945   */\n      swap1\n      pop\n        /* \"#utility.yul\":11585:11951   */\n      swap2\n      swap1\n      pop\n      jump\t// out\n        /* \"#utility.yul\":11957:12376   */\n    tag_74:\n        /* \"#utility.yul\":12123:12127   */\n      0x00\n        /* \"#utility.yul\":12161:12163   */\n      0x20\n        /* \"#utility.yul\":12150:12159   */\n      dup3\n        /* \"#utility.yul\":12146:12164   */\n      add\n        /* \"#utility.yul\":12138:12164   */\n      swap1\n      pop\n        /* \"#utility.yul\":12210:12219   */\n      dup2\n        /* \"#utility.yul\":12204:12208   */\n      dup2\n        /* \"#utility.yul\":12200:12220   */\n      sub\n        /* \"#utility.yul\":12196:12197   */\n      0x00\n        /* \"#utility.yul\":12185:12194   */\n      dup4\n        /* \"#utility.yul\":12181:12198   */\n      add\n        /* \"#utility.yul\":12174:12221   */\n      mstore\n        /* \"#utility.yul\":12238:12369   */\n      tag_398\n        /* \"#utility.yul\":12364:12368   */\n      dup2\n        /* \"#utility.yul\":12238:12369   */\n      tag_224\n      jump\t// in\n    tag_398:\n        /* \"#utility.yul\":12230:12369   */\n      swap1\n      pop\n        /* \"#utility.yul\":11957:12376   */\n      swap2\n      swap1\n      pop\n      jump\t// out\n        /* \"#utility.yul\":12382:12824   */\n    tag_87:\n        /* \"#utility.yul\":12531:12535   */\n      0x00\n        /* \"#utility.yul\":12569:12571   */\n      0x60\n        /* \"#utility.yul\":12558:12567   */\n      dup3\n        /* \"#utility.yul\":12554:12572   */\n      add\n        /* \"#utility.yul\":12546:12572   */\n      swap1\n      pop\n        /* \"#utility.yul\":12582:12653   */\n      tag_400\n        /* \"#utility.yul\":12650:12651   */\n      0x00\n        /* \"#utility.yul\":12639:12648   */\n      dup4\n        /* \"#utility.yul\":12635:12652   */\n      add\n        /* \"#utility.yul\":12626:12632   */\n      dup7\n        /* \"#utility.yul\":12582:12653   */\n      tag_215\n      jump\t// in\n    tag_400:\n        /* \"#utility.yul\":12663:12735   */\n      tag_401\n        /* \"#utility.yul\":12731:12733   */\n      0x20\n        /* \"#utility.yul\":12720:12729   */\n      dup4\n        /* \"#utility.yul\":12716:12734   */\n      add\n        /* \"#utility.yul\":12707:12713   */\n      dup6\n        /* \"#utility.yul\":12663:12735   */\n      tag_215\n      jump\t// in\n    tag_401:\n        /* \"#utility.yul\":12745:12817   */\n      tag_402\n        /* \"#utility.yul\":12813:12815   */\n      0x40\n        /* \"#utility.yul\":12802:12811   */\n      dup4\n        /* \"#utility.yul\":12798:12816   */\n      add\n        /* \"#utility.yul\":12789:12795   */\n      dup5\n        /* \"#utility.yul\":12745:12817   */\n      tag_196\n      jump\t// in\n    tag_402:\n        /* \"#utility.yul\":12382:12824   */\n      swap5\n      swap4\n      pop\n      pop\n      pop\n      pop\n      jump\t// out\n        /* \"#utility.yul\":12830:12946   */\n    tag_225:\n        /* \"#utility.yul\":12900:12921   */\n      tag_404\n        /* \"#utility.yul\":12915:12920   */\n      dup2\n        /* \"#utility.yul\":12900:12921   */\n      tag_216\n      jump\t// in\n    tag_404:\n        /* \"#utility.yul\":12893:12898   */\n      dup2\n        /* \"#utility.yul\":12890:12922   */\n      eq\n        /* \"#utility.yul\":12880:12940   */\n      tag_405\n      jumpi\n        /* \"#utility.yul\":12936:12937   */\n      0x00\n        /* \"#utility.yul\":12933:12934   */\n      dup1\n        /* \"#utility.yul\":12926:12938   */\n      revert\n        /* \"#utility.yul\":12880:12940   */\n    tag_405:\n        /* \"#utility.yul\":12830:12946   */\n      pop\n      jump\t// out\n        /* \"#utility.yul\":12952:13089   */\n    tag_226:\n        /* \"#utility.yul\":13006:13011   */\n      0x00\n        /* \"#utility.yul\":13037:13043   */\n      dup2\n        /* \"#utility.yul\":13031:13044   */\n      mload\n        /* \"#utility.yul\":13022:13044   */\n      swap1\n      pop\n        /* \"#utility.yul\":13053:13083   */\n      tag_407\n        /* \"#utility.yul\":13077:13082   */\n      dup2\n        /* \"#utility.yul\":13053:13083   */\n      tag_225\n      jump\t// in\n    tag_407:\n        /* \"#utility.yul\":12952:13089   */\n      swap3\n      swap2\n      pop\n      pop\n      jump\t// out\n        /* \"#utility.yul\":13095:13440   */\n    tag_91:\n        /* \"#utility.yul\":13162:13168   */\n      0x00\n        /* \"#utility.yul\":13211:13213   */\n      0x20\n        /* \"#utility.yul\":13199:13208   */\n      dup3\n        /* \"#utility.yul\":13190:13197   */\n      dup5\n        /* \"#utility.yul\":13186:13209   */\n      sub\n        /* \"#utility.yul\":13182:13214   */\n      slt\n        /* \"#utility.yul\":13179:13298   */\n      iszero\n      tag_409\n      jumpi\n        /* \"#utility.yul\":13217:13296   */\n      tag_410\n      tag_185\n      jump\t// in\n    tag_410:\n        /* \"#utility.yul\":13179:13298   */\n    tag_409:\n        /* \"#utility.yul\":13337:13338   */\n      0x00\n        /* \"#utility.yul\":13362:13423   */\n      tag_411\n        /* \"#utility.yul\":13415:13422   */\n      dup5\n        /* \"#utility.yul\":13406:13412   */\n      dup3\n        /* \"#utility.yul\":13395:13404   */\n      dup6\n        /* \"#utility.yul\":13391:13413   */\n      add\n        /* \"#utility.yul\":13362:13423   */\n      tag_226\n      jump\t// in\n    tag_411:\n        /* \"#utility.yul\":13352:13423   */\n      swap2\n      pop\n        /* \"#utility.yul\":13308:13433   */\n      pop\n        /* \"#utility.yul\":13095:13440   */\n      swap3\n      swap2\n      pop\n      pop\n      jump\t// out\n        /* \"#utility.yul\":13446:13621   */\n    tag_227:\n        /* \"#utility.yul\":13586:13613   */\n      0x4661696c656420746f207472616e7366657220746f6b656e7300000000000000\n        /* \"#utility.yul\":13582:13583   */\n      0x00\n        /* \"#utility.yul\":13574:13580   */\n      dup3\n        /* \"#utility.yul\":13570:13584   */\n      add\n        /* \"#utility.yul\":13563:13614   */\n      mstore\n        /* \"#utility.yul\":13446:13621   */\n      pop\n      jump\t// out\n        /* \"#utility.yul\":13627:13993   */\n    tag_228:\n        /* \"#utility.yul\":13769:13772   */\n      0x00\n        /* \"#utility.yul\":13790:13857   */\n      tag_414\n        /* \"#utility.yul\":13854:13856   */\n      0x19\n        /* \"#utility.yul\":13849:13852   */\n      dup4\n        /* \"#utility.yul\":13790:13857   */\n      tag_212\n      jump\t// in\n    tag_414:\n        /* \"#utility.yul\":13783:13857   */\n      swap2\n      pop\n        /* \"#utility.yul\":13866:13959   */\n      tag_415\n        /* \"#utility.yul\":13955:13958   */\n      dup3\n        /* \"#utility.yul\":13866:13959   */\n      tag_227\n      jump\t// in\n    tag_415:\n        /* \"#utility.yul\":13984:13986   */\n      0x20\n        /* \"#utility.yul\":13979:13982   */\n      dup3\n        /* \"#utility.yul\":13975:13987   */\n      add\n        /* \"#utility.yul\":13968:13987   */\n      swap1\n      pop\n        /* \"#utility.yul\":13627:13993   */\n      swap2\n      swap1\n      pop\n      jump\t// out\n        /* \"#utility.yul\":13999:14418   */\n    tag_94:\n        /* \"#utility.yul\":14165:14169   */\n      0x00\n        /* \"#utility.yul\":14203:14205   */\n      0x20\n        /* \"#utility.yul\":14192:14201   */\n      dup3\n        /* \"#utility.yul\":14188:14206   */\n      add\n        /* \"#utility.yul\":14180:14206   */\n      swap1\n      pop\n        /* \"#utility.yul\":14252:14261   */\n      dup2\n        /* \"#utility.yul\":14246:14250   */\n      dup2\n        /* \"#utility.yul\":14242:14262   */\n      sub\n        /* \"#utility.yul\":14238:14239   */\n      0x00\n        /* \"#utility.yul\":14227:14236   */\n      dup4\n        /* \"#utility.yul\":14223:14240   */\n      add\n        /* \"#utility.yul\":14216:14263   */\n      mstore\n        /* \"#utility.yul\":14280:14411   */\n      tag_417\n        /* \"#utility.yul\":14406:14410   */\n      dup2\n        /* \"#utility.yul\":14280:14411   */\n      tag_228\n      jump\t// in\n    tag_417:\n        /* \"#utility.yul\":14272:14411   */\n      swap1\n      pop\n        /* \"#utility.yul\":13999:14418   */\n      swap2\n      swap1\n      pop\n      jump\t// out\n        /* \"#utility.yul\":14424:14604   */\n    tag_229:\n        /* \"#utility.yul\":14472:14549   */\n      0x4e487b7100000000000000000000000000000000000000000000000000000000\n        /* \"#utility.yul\":14469:14470   */\n      0x00\n        /* \"#utility.yul\":14462:14550   */\n      mstore\n        /* \"#utility.yul\":14569:14573   */\n      0x11\n        /* \"#utility.yul\":14566:14567   */\n      0x04\n        /* \"#utility.yul\":14559:14574   */\n      mstore\n        /* \"#utility.yul\":14593:14597   */\n      0x24\n        /* \"#utility.yul\":14590:14591   */\n      0x00\n        /* \"#utility.yul\":14583:14598   */\n      revert\n        /* \"#utility.yul\":14610:14843   */\n    tag_96:\n        /* \"#utility.yul\":14649:14652   */\n      0x00\n        /* \"#utility.yul\":14672:14696   */\n      tag_420\n        /* \"#utility.yul\":14690:14695   */\n      dup3\n        /* \"#utility.yul\":14672:14696   */\n      tag_193\n      jump\t// in\n    tag_420:\n        /* \"#utility.yul\":14663:14696   */\n      swap2\n      pop\n        /* \"#utility.yul\":14718:14784   */\n      0xffffffffffffffffffffffffffffffffffffffffffffffffffffffffffffffff\n        /* \"#utility.yul\":14711:14716   */\n      dup3\n        /* \"#utility.yul\":14708:14785   */\n      sub\n        /* \"#utility.yul\":14705:14808   */\n      tag_421\n      jumpi\n        /* \"#utility.yul\":14788:14806   */\n      tag_422\n      tag_229\n      jump\t// in\n    tag_422:\n        /* \"#utility.yul\":14705:14808   */\n    tag_421:\n        /* \"#utility.yul\":14835:14836   */\n      0x01\n        /* \"#utility.yul\":14828:14833   */\n      dup3\n        /* \"#utility.yul\":14824:14837   */\n      add\n        /* \"#utility.yul\":14817:14837   */\n      swap1\n      pop\n        /* \"#utility.yul\":14610:14843   */\n      swap2\n      swap1\n      pop\n      jump\t// out\n        /* \"#utility.yul\":14849:15029   */\n    tag_230:\n        /* \"#utility.yul\":14897:14974   */\n      0x4e487b7100000000000000000000000000000000000000000000000000000000\n        /* \"#utility.yul\":14894:14895   */\n      0x00\n        /* \"#utility.yul\":14887:14975   */\n      mstore\n        /* \"#utility.yul\":14994:14998   */\n      0x22\n        /* \"#utility.yul\":14991:14992   */\n      0x04\n        /* \"#utility.yul\":14984:14999   */\n      mstore\n        /* \"#utility.yul\":15018:15022   */\n      0x24\n        /* \"#utility.yul\":15015:15016   */\n      0x00\n        /* \"#utility.yul\":15008:15023   */\n      revert\n        /* \"#utility.yul\":15035:15355   */\n    tag_98:\n        /* \"#utility.yul\":15079:15085   */\n      0x00\n        /* \"#utility.yul\":15116:15117   */\n      0x02\n        /* \"#utility.yul\":15110:15114   */\n      dup3\n        /* \"#utility.yul\":15106:15118   */\n      div\n        /* \"#utility.yul\":15096:15118   */\n      swap1\n      pop\n        /* \"#utility.yul\":15163:15164   */\n      0x01\n        /* \"#utility.yul\":15157:15161   */\n      dup3\n        /* \"#utility.yul\":15153:15165   */\n      and\n        /* \"#utility.yul\":15184:15202   */\n      dup1\n        /* \"#utility.yul\":15174:15255   */\n      tag_425\n      jumpi\n        /* \"#utility.yul\":15240:15244   */\n      0x7f\n        /* \"#utility.yul\":15232:15238   */\n      dup3\n        /* \"#utility.yul\":15228:15245   */\n      and\n        /* \"#utility.yul\":15218:15245   */\n      swap2\n      pop\n        /* \"#utility.yul\":15174:15255   */\n    tag_425:\n        /* \"#utility.yul\":15302:15304   */\n      0x20\n        /* \"#utility.yul\":15294:15300   */\n      dup3\n        /* \"#utility.yul\":15291:15305   */\n      lt\n        /* \"#utility.yul\":15271:15289   */\n      dup2\n        /* \"#utility.yul\":15268:15306   */\n      sub\n        /* \"#utility.yul\":15265:15349   */\n      tag_426\n      jumpi\n        /* \"#utility.yul\":15321:15339   */\n      tag_427\n      tag_230\n      jump\t// in\n    tag_427:\n        /* \"#utility.yul\":15265:15349   */\n    tag_426:\n        /* \"#utility.yul\":15086:15355   */\n      pop\n        /* \"#utility.yul\":15035:15355   */\n      swap2\n      swap1\n      pop\n      jump\t// out\n        /* \"#utility.yul\":15361:15502   */\n    tag_231:\n        /* \"#utility.yul\":15410:15414   */\n      0x00\n        /* \"#utility.yul\":15433:15436   */\n      dup2\n        /* \"#utility.yul\":15425:15436   */\n      swap1\n      pop\n        /* \"#utility.yul\":15456:15459   */\n      dup2\n        /* \"#utility.yul\":15453:15454   */\n      0x00\n        /* \"#utility.yul\":15446:15460   */\n      mstore\n        /* \"#utility.yul\":15490:15494   */\n      0x20\n        /* \"#utility.yul\":15487:15488   */\n      0x00\n        /* \"#utility.yul\":15477:15495   */\n      keccak256\n        /* \"#utility.yul\":15469:15495   */\n      swap1\n      pop\n        /* \"#utility.yul\":15361:15502   */\n      swap2\n      swap1\n      pop\n      jump\t// out\n        /* \"#utility.yul\":15508:15601   */\n    tag_232:\n        /* \"#utility.yul\":15545:15551   */\n      0x00\n        /* \"#utility.yul\":15592:15594   */\n      0x20\n        /* \"#utility.yul\":15587:15589   */\n      0x1f\n        /* \"#utility.yul\":15580:15585   */\n      dup4\n        /* \"#utility.yul\":15576:15590   */\n      add\n        /* \"#utility.yul\":15572:15595   */\n      div\n        /* \"#utility.yul\":15562:15595   */\n      swap1\n      pop\n        /* \"#utility.yul\":15508:15601   */\n      swap2\n      swap1\n      pop\n      jump\t// out\n        /* \"#utility.yul\":15607:15714   */\n    tag_233:\n        /* \"#utility.yul\":15651:15659   */\n      0x00\n        /* \"#utility.yul\":15701:15706   */\n      dup3\n        /* \"#utility.yul\":15695:15699   */\n      dup3\n        /* \"#utility.yul\":15691:15707   */\n      shl\n        /* \"#utility.yul\":15670:15707   */\n      swap1\n      pop\n        /* \"#utility.yul\":15607:15714   */\n      swap3\n      swap2\n      pop\n      pop\n      jump\t// out\n        /* \"#utility.yul\":15720:16113   */\n    tag_234:\n        /* \"#utility.yul\":15789:15795   */\n      0x00\n        /* \"#utility.yul\":15839:15840   */\n      0x08\n        /* \"#utility.yul\":15827:15837   */\n      dup4\n        /* \"#utility.yul\":15823:15841   */\n      mul\n        /* \"#utility.yul\":15862:15959   */\n      tag_432\n        /* \"#utility.yul\":15892:15958   */\n      0xffffffffffffffffffffffffffffffffffffffffffffffffffffffffffffffff\n        /* \"#utility.yul\":15881:15890   */\n      dup3\n        /* \"#utility.yul\":15862:15959   */\n      tag_233\n      jump\t// in\n    tag_432:\n        /* \"#utility.yul\":15980:16019   */\n      tag_433\n        /* \"#utility.yul\":16010:16018   */\n      dup7\n        /* \"#utility.yul\":15999:16008   */\n      dup4\n        /* \"#utility.yul\":15980:16019   */\n      tag_233\n      jump\t// in\n    tag_433:\n        /* \"#utility.yul\":15968:16019   */\n      swap6\n      pop\n        /* \"#utility.yul\":16052:16056   */\n      dup1\n        /* \"#utility.yul\":16048:16057   */\n      not\n        /* \"#utility.yul\":16041:16046   */\n      dup5\n        /* \"#utility.yul\":16037:16058   */\n      and\n        /* \"#utility.yul\":16028:16058   */\n      swap4\n      pop\n        /* \"#utility.yul\":16101:16105   */\n      dup1\n        /* \"#utility.yul\":16091:16099   */\n      dup7\n        /* \"#utility.yul\":16087:16106   */\n      and\n        /* \"#utility.yul\":16080:16085   */\n      dup5\n        /* \"#utility.yul\":16077:16107   */\n      or\n        /* \"#utility.yul\":16067:16107   */\n      swap3\n      pop\n        /* \"#utility.yul\":15796:16113   */\n      pop\n      pop\n        /* \"#utility.yul\":15720:16113   */\n      swap4\n      swap3\n      pop\n      pop\n      pop\n      jump\t// out\n        /* \"#utility.yul\":16119:16261   */\n    tag_235:\n        /* \"#utility.yul\":16169:16178   */\n      0x00\n        /* \"#utility.yul\":16202:16255   */\n      tag_435\n        /* \"#utility.yul\":16220:16254   */\n      tag_436\n        /* \"#utility.yul\":16229:16253   */\n      tag_437\n        /* \"#utility.yul\":16247:16252   */\n      dup5\n        /* \"#utility.yul\":16229:16253   */\n      tag_193\n      jump\t// in\n    tag_437:\n        /* \"#utility.yul\":16220:16254   */\n      tag_218\n      jump\t// in\n    tag_436:\n        /* \"#utility.yul\":16202:16255   */\n      tag_193\n      jump\t// in\n    tag_435:\n        /* \"#utility.yul\":16189:16255   */\n      swap1\n      pop\n        /* \"#utility.yul\":16119:16261   */\n      swap2\n      swap1\n      pop\n      jump\t// out\n        /* \"#utility.yul\":16267:16342   */\n    tag_236:\n        /* \"#utility.yul\":16310:16313   */\n      0x00\n        /* \"#utility.yul\":16331:16336   */\n      dup2\n        /* \"#utility.yul\":16324:16336   */\n      swap1\n      pop\n        /* \"#utility.yul\":16267:16342   */\n      swap2\n      swap1\n      pop\n      jump\t// out\n        /* \"#utility.yul\":16348:16617   */\n    tag_237:\n        /* \"#utility.yul\":16458:16497   */\n      tag_440\n        /* \"#utility.yul\":16489:16496   */\n      dup4\n        /* \"#utility.yul\":16458:16497   */\n      tag_235\n      jump\t// in\n    tag_440:\n        /* \"#utility.yul\":16519:16610   */\n      tag_441\n        /* \"#utility.yul\":16568:16609   */\n      tag_442\n        /* \"#utility.yul\":16592:16608   */\n      dup3\n        /* \"#utility.yul\":16568:16609   */\n      tag_236\n      jump\t// in\n    tag_442:\n        /* \"#utility.yul\":16560:16566   */\n      dup5\n        /* \"#utility.yul\":16553:16557   */\n      dup5\n        /* \"#utility.yul\":16547:16558   */\n      sload\n        /* \"#utility.yul\":16519:16610   */\n      tag_234\n      jump\t// in\n    tag_441:\n        /* \"#utility.yul\":16513:16517   */\n      dup3\n        /* \"#utility.yul\":16506:16611   */\n      sstore\n        /* \"#utility.yul\":16424:16617   */\n      pop\n        /* \"#utility.yul\":16348:16617   */\n      pop\n      pop\n      pop\n      jump\t// out\n        /* \"#utility.yul\":16623:16696   */\n    tag_238:\n        /* \"#utility.yul\":16668:16671   */\n      0x00\n        /* \"#utility.yul\":16623:16696   */\n      swap1\n      jump\t// out\n        /* \"#utility.yul\":16702:16891   */\n    tag_239:\n        /* \"#utility.yul\":16779:16811   */\n      tag_445\n      tag_238\n      jump\t// in\n    tag_445:\n        /* \"#utility.yul\":16820:16885   */\n      tag_446\n        /* \"#utility.yul\":16878:16884   */\n      dup2\n        /* \"#utility.yul\":16870:16876   */\n      dup5\n        /* \"#utility.yul\":16864:16868   */\n      dup5\n        /* \"#utility.yul\":16820:16885   */\n      tag_237\n      jump\t// in\n    tag_446:\n        /* \"#utility.yul\":16755:16891   */\n      pop\n        /* \"#utility.yul\":16702:16891   */\n      pop\n      pop\n      jump\t// out\n        /* \"#utility.yul\":16897:17083   */\n    tag_240:\n        /* \"#utility.yul\":16957:17077   */\n    tag_448:\n        /* \"#utility.yul\":16974:16977   */\n      dup2\n        /* \"#utility.yul\":16967:16972   */\n      dup2\n        /* \"#utility.yul\":16964:16978   */\n      lt\n        /* \"#utility.yul\":16957:17077   */\n      iszero\n      tag_450\n      jumpi\n        /* \"#utility.yul\":17028:17067   */\n      tag_451\n        /* \"#utility.yul\":17065:17066   */\n      0x00\n        /* \"#utility.yul\":17058:17063   */\n      dup3\n        /* \"#utility.yul\":17028:17067   */\n      tag_239\n      jump\t// in\n    tag_451:\n        /* \"#utility.yul\":17001:17002   */\n      0x01\n        /* \"#utility.yul\":16994:16999   */\n      dup2\n        /* \"#utility.yul\":16990:17003   */\n      add\n        /* \"#utility.yul\":16981:17003   */\n      swap1\n      pop\n        /* \"#utility.yul\":16957:17077   */\n      jump(tag_448)\n    tag_450:\n        /* \"#utility.yul\":16897:17083   */\n      pop\n      pop\n      jump\t// out\n        /* \"#utility.yul\":17089:17632   */\n    tag_241:\n        /* \"#utility.yul\":17190:17192   */\n      0x1f\n        /* \"#utility.yul\":17185:17188   */\n      dup3\n        /* \"#utility.yul\":17182:17193   */\n      gt\n        /* \"#utility.yul\":17179:17625   */\n      iszero\n      tag_453\n      jumpi\n        /* \"#utility.yul\":17224:17262   */\n      tag_454\n        /* \"#utility.yul\":17256:17261   */\n      dup2\n        /* \"#utility.yul\":17224:17262   */\n      tag_231\n      jump\t// in\n    tag_454:\n        /* \"#utility.yul\":17308:17337   */\n      tag_455\n        /* \"#utility.yul\":17326:17336   */\n      dup5\n        /* \"#utility.yul\":17308:17337   */\n      tag_232\n      jump\t// in\n    tag_455:\n        /* \"#utility.yul\":17298:17306   */\n      dup2\n        /* \"#utility.yul\":17294:17338   */\n      add\n        /* \"#utility.yul\":17491:17493   */\n      0x20\n        /* \"#utility.yul\":17479:17489   */\n      dup6\n        /* \"#utility.yul\":17476:17494   */\n      lt\n        /* \"#utility.yul\":17473:17522   */\n      iszero\n      tag_456\n      jumpi\n        /* \"#utility.yul\":17512:17520   */\n      dup2\n        /* \"#utility.yul\":17497:17520   */\n      swap1\n      pop\n        /* \"#utility.yul\":17473:17522   */\n    tag_456:\n        /* \"#utility.yul\":17535:17615   */\n      tag_457\n        /* \"#utility.yul\":17591:17613   */\n      tag_458\n        /* \"#utility.yul\":17609:17612   */\n      dup6\n        /* \"#utility.yul\":17591:17613   */\n      tag_232\n      jump\t// in\n    tag_458:\n        /* \"#utility.yul\":17581:17589   */\n      dup4\n        /* \"#utility.yul\":17577:17614   */\n      add\n        /* \"#utility.yul\":17564:17575   */\n      dup3\n        /* \"#utility.yul\":17535:17615   */\n      tag_240\n      jump\t// in\n    tag_457:\n        /* \"#utility.yul\":17194:17625   */\n      pop\n      pop\n        /* \"#utility.yul\":17179:17625   */\n    tag_453:\n        /* \"#utility.yul\":17089:17632   */\n      pop\n      pop\n      pop\n      jump\t// out\n        /* \"#utility.yul\":17638:17755   */\n    tag_242:\n        /* \"#utility.yul\":17692:17700   */\n      0x00\n        /* \"#utility.yul\":17742:17747   */\n      dup3\n        /* \"#utility.yul\":17736:17740   */\n      dup3\n        /* \"#utility.yul\":17732:17748   */\n      shr\n        /* \"#utility.yul\":17711:17748   */\n      swap1\n      pop\n        /* \"#utility.yul\":17638:17755   */\n      swap3\n      swap2\n      pop\n      pop\n      jump\t// out\n        /* \"#utility.yul\":17761:17930   */\n    tag_243:\n        /* \"#utility.yul\":17805:17811   */\n      0x00\n        /* \"#utility.yul\":17838:17889   */\n      tag_461\n        /* \"#utility.yul\":17886:17887   */\n      0x00\n        /* \"#utility.yul\":17882:17888   */\n      not\n        /* \"#utility.yul\":17874:17879   */\n      dup5\n        /* \"#utility.yul\":17871:17872   */\n      0x08\n        /* \"#utility.yul\":17867:17880   */\n      mul\n        /* \"#utility.yul\":17838:17889   */\n      tag_242\n      jump\t// in\n    tag_461:\n        /* \"#utility.yul\":17834:17890   */\n      not\n        /* \"#utility.yul\":17919:17923   */\n      dup1\n        /* \"#utility.yul\":17913:17917   */\n      dup4\n        /* \"#utility.yul\":17909:17924   */\n      and\n        /* \"#utility.yul\":17899:17924   */\n      swap2\n      pop\n        /* \"#utility.yul\":17812:17930   */\n      pop\n        /* \"#utility.yul\":17761:17930   */\n      swap3\n      swap2\n      pop\n      pop\n      jump\t// out\n        /* \"#utility.yul\":17935:18230   */\n    tag_244:\n        /* \"#utility.yul\":18011:18015   */\n      0x00\n        /* \"#utility.yul\":18157:18186   */\n      tag_463\n        /* \"#utility.yul\":18182:18185   */\n      dup4\n        /* \"#utility.yul\":18176:18180   */\n      dup4\n        /* \"#utility.yul\":18157:18186   */\n      tag_243\n      jump\t// in\n    tag_463:\n        /* \"#utility.yul\":18149:18186   */\n      swap2\n      pop\n        /* \"#utility.yul\":18219:18222   */\n      dup3\n        /* \"#utility.yul\":18216:18217   */\n      0x02\n        /* \"#utility.yul\":18212:18223   */\n      mul\n        /* \"#utility.yul\":18206:18210   */\n      dup3\n        /* \"#utility.yul\":18203:18224   */\n      or\n        /* \"#utility.yul\":18195:18224   */\n      swap1\n      pop\n        /* \"#utility.yul\":17935:18230   */\n      swap3\n      swap2\n      pop\n      pop\n      jump\t// out\n        /* \"#utility.yul\":18235:19630   */\n    tag_104:\n        /* \"#utility.yul\":18352:18389   */\n      tag_465\n        /* \"#utility.yul\":18385:18388   */\n      dup3\n        /* \"#utility.yul\":18352:18389   */\n      tag_211\n      jump\t// in\n    tag_465:\n        /* \"#utility.yul\":18454:18472   */\n      0xffffffffffffffff\n        /* \"#utility.yul\":18446:18452   */\n      dup2\n        /* \"#utility.yul\":18443:18473   */\n      gt\n        /* \"#utility.yul\":18440:18496   */\n      iszero\n      tag_466\n      jumpi\n        /* \"#utility.yul\":18476:18494   */\n      tag_467\n      tag_200\n      jump\t// in\n    tag_467:\n        /* \"#utility.yul\":18440:18496   */\n    tag_466:\n        /* \"#utility.yul\":18520:18558   */\n      tag_468\n        /* \"#utility.yul\":18552:18556   */\n      dup3\n        /* \"#utility.yul\":18546:18557   */\n      sload\n        /* \"#utility.yul\":18520:18558   */\n      tag_98\n      jump\t// in\n    tag_468:\n        /* \"#utility.yul\":18605:18672   */\n      tag_469\n        /* \"#utility.yul\":18665:18671   */\n      dup3\n        /* \"#utility.yul\":18657:18663   */\n      dup3\n        /* \"#utility.yul\":18651:18655   */\n      dup6\n        /* \"#utility.yul\":18605:18672   */\n      tag_241\n      jump\t// in\n    tag_469:\n        /* \"#utility.yul\":18699:18700   */\n      0x00\n        /* \"#utility.yul\":18723:18727   */\n      0x20\n        /* \"#utility.yul\":18710:18727   */\n      swap1\n      pop\n        /* \"#utility.yul\":18755:18757   */\n      0x1f\n        /* \"#utility.yul\":18747:18753   */\n      dup4\n        /* \"#utility.yul\":18744:18758   */\n      gt\n        /* \"#utility.yul\":18772:18773   */\n      0x01\n        /* \"#utility.yul\":18767:19385   */\n      dup2\n      eq\n      tag_471\n      jumpi\n        /* \"#utility.yul\":19429:19430   */\n      0x00\n        /* \"#utility.yul\":19446:19452   */\n      dup5\n        /* \"#utility.yul\":19443:19520   */\n      iszero\n      tag_472\n      jumpi\n        /* \"#utility.yul\":19495:19504   */\n      dup3\n        /* \"#utility.yul\":19490:19493   */\n      dup8\n        /* \"#utility.yul\":19486:19505   */\n      add\n        /* \"#utility.yul\":19480:19506   */\n      mload\n        /* \"#utility.yul\":19471:19506   */\n      swap1\n      pop\n        /* \"#utility.yul\":19443:19520   */\n    tag_472:\n        /* \"#utility.yul\":19546:19613   */\n      tag_473\n        /* \"#utility.yul\":19606:19612   */\n      dup6\n        /* \"#utility.yul\":19599:19604   */\n      dup3\n        /* \"#utility.yul\":19546:19613   */\n      tag_244\n      jump\t// in\n    tag_473:\n        /* \"#utility.yul\":19540:19544   */\n      dup7\n        /* \"#utility.yul\":19533:19614   */\n      sstore\n        /* \"#utility.yul\":19402:19624   */\n      pop\n        /* \"#utility.yul\":18737:19624   */\n      jump(tag_470)\n        /* \"#utility.yul\":18767:19385   */\n    tag_471:\n        /* \"#utility.yul\":18819:18823   */\n      0x1f\n        /* \"#utility.yul\":18815:18824   */\n      not\n        /* \"#utility.yul\":18807:18813   */\n      dup5\n        /* \"#utility.yul\":18803:18825   */\n      and\n        /* \"#utility.yul\":18853:18890   */\n      tag_474\n        /* \"#utility.yul\":18885:18889   */\n      dup7\n        /* \"#utility.yul\":18853:18890   */\n      tag_231\n      jump\t// in\n    tag_474:\n        /* \"#utility.yul\":18912:18913   */\n      0x00\n        /* \"#utility.yul\":18926:19134   */\n    tag_475:\n        /* \"#utility.yul\":18940:18947   */\n      dup3\n        /* \"#utility.yul\":18937:18938   */\n      dup2\n        /* \"#utility.yul\":18934:18948   */\n      lt\n        /* \"#utility.yul\":18926:19134   */\n      iszero\n      tag_477\n      jumpi\n        /* \"#utility.yul\":19019:19028   */\n      dup5\n        /* \"#utility.yul\":19014:19017   */\n      dup10\n        /* \"#utility.yul\":19010:19029   */\n      add\n        /* \"#utility.yul\":19004:19030   */\n      mload\n        /* \"#utility.yul\":18996:19002   */\n      dup3\n        /* \"#utility.yul\":18989:19031   */\n      sstore\n        /* \"#utility.yul\":19070:19071   */\n      0x01\n        /* \"#utility.yul\":19062:19068   */\n      dup3\n        /* \"#utility.yul\":19058:19072   */\n      add\n        /* \"#utility.yul\":19048:19072   */\n      swap2\n      pop\n        /* \"#utility.yul\":19117:19119   */\n      0x20\n        /* \"#utility.yul\":19106:19115   */\n      dup6\n        /* \"#utility.yul\":19102:19120   */\n      add\n        /* \"#utility.yul\":19089:19120   */\n      swap5\n      pop\n        /* \"#utility.yul\":18963:18967   */\n      0x20\n        /* \"#utility.yul\":18960:18961   */\n      dup2\n        /* \"#utility.yul\":18956:18968   */\n      add\n        /* \"#utility.yul\":18951:18968   */\n      swap1\n      pop\n        /* \"#utility.yul\":18926:19134   */\n      jump(tag_475)\n    tag_477:\n        /* \"#utility.yul\":19162:19168   */\n      dup7\n        /* \"#utility.yul\":19153:19160   */\n      dup4\n        /* \"#utility.yul\":19150:19169   */\n      lt\n        /* \"#utility.yul\":19147:19326   */\n      iszero\n      tag_478\n      jumpi\n        /* \"#utility.yul\":19220:19229   */\n      dup5\n        /* \"#utility.yul\":19215:19218   */\n      dup10\n        /* \"#utility.yul\":19211:19230   */\n      add\n        /* \"#utility.yul\":19205:19231   */\n      mload\n        /* \"#utility.yul\":19263:19311   */\n      tag_479\n        /* \"#utility.yul\":19305:19309   */\n      0x1f\n        /* \"#utility.yul\":19297:19303   */\n      dup10\n        /* \"#utility.yul\":19293:19310   */\n      and\n        /* \"#utility.yul\":19282:19291   */\n      dup3\n        /* \"#utility.yul\":19263:19311   */\n      tag_243\n      jump\t// in\n    tag_479:\n        /* \"#utility.yul\":19255:19261   */\n      dup4\n        /* \"#utility.yul\":19248:19312   */\n      sstore\n        /* \"#utility.yul\":19170:19326   */\n      pop\n        /* \"#utility.yul\":19147:19326   */\n    tag_478:\n        /* \"#utility.yul\":19372:19373   */\n      0x01\n        /* \"#utility.yul\":19368:19369   */\n      0x02\n        /* \"#utility.yul\":19360:19366   */\n      dup9\n        /* \"#utility.yul\":19356:19370   */\n      mul\n        /* \"#utility.yul\":19352:19374   */\n      add\n        /* \"#utility.yul\":19346:19350   */\n      dup9\n        /* \"#utility.yul\":19339:19375   */\n      sstore\n        /* \"#utility.yul\":18774:19385   */\n      pop\n      pop\n      pop\n        /* \"#utility.yul\":18737:19624   */\n    tag_470:\n      pop\n        /* \"#utility.yul\":18327:19630   */\n      pop\n      pop\n      pop\n        /* \"#utility.yul\":18235:19630   */\n      pop\n      pop\n      jump\t// out\n        /* \"#utility.yul\":19636:19861   */\n    tag_245:\n        /* \"#utility.yul\":19776:19810   */\n      0x596f7520617265206e6f7420746865206275796572206f662074686973207075\n        /* \"#utility.yul\":19772:19773   */\n      0x00\n        /* \"#utility.yul\":19764:19770   */\n      dup3\n        /* \"#utility.yul\":19760:19774   */\n      add\n        /* \"#utility.yul\":19753:19811   */\n      mstore\n        /* \"#utility.yul\":19845:19853   */\n      0x7263686173650000000000000000000000000000000000000000000000000000\n        /* \"#utility.yul\":19840:19842   */\n      0x20\n        /* \"#utility.yul\":19832:19838   */\n      dup3\n        /* \"#utility.yul\":19828:19843   */\n      add\n        /* \"#utility.yul\":19821:19854   */\n      mstore\n        /* \"#utility.yul\":19636:19861   */\n      pop\n      jump\t// out\n        /* \"#utility.yul\":19867:20233   */\n    tag_246:\n        /* \"#utility.yul\":20009:20012   */\n      0x00\n        /* \"#utility.yul\":20030:20097   */\n      tag_482\n        /* \"#utility.yul\":20094:20096   */\n      0x26\n        /* \"#utility.yul\":20089:20092   */\n      dup4\n        /* \"#utility.yul\":20030:20097   */\n      tag_212\n      jump\t// in\n    tag_482:\n        /* \"#utility.yul\":20023:20097   */\n      swap2\n      pop\n        /* \"#utility.yul\":20106:20199   */\n      tag_483\n        /* \"#utility.yul\":20195:20198   */\n      dup3\n        /* \"#utility.yul\":20106:20199   */\n      tag_245\n      jump\t// in\n    tag_483:\n        /* \"#utility.yul\":20224:20226   */\n      0x40\n        /* \"#utility.yul\":20219:20222   */\n      dup3\n        /* \"#utility.yul\":20215:20227   */\n      add\n        /* \"#utility.yul\":20208:20227   */\n      swap1\n      pop\n        /* \"#utility.yul\":19867:20233   */\n      swap2\n      swap1\n      pop\n      jump\t// out\n        /* \"#utility.yul\":20239:20658   */\n    tag_115:\n        /* \"#utility.yul\":20405:20409   */\n      0x00\n        /* \"#utility.yul\":20443:20445   */\n      0x20\n        /* \"#utility.yul\":20432:20441   */\n      dup3\n        /* \"#utility.yul\":20428:20446   */\n      add\n        /* \"#utility.yul\":20420:20446   */\n      swap1\n      pop\n        /* \"#utility.yul\":20492:20501   */\n      dup2\n        /* \"#utility.yul\":20486:20490   */\n      dup2\n        /* \"#utility.yul\":20482:20502   */\n      sub\n        /* \"#utility.yul\":20478:20479   */\n      0x00\n        /* \"#utility.yul\":20467:20476   */\n      dup4\n        /* \"#utility.yul\":20463:20480   */\n      add\n        /* \"#utility.yul\":20456:20503   */\n      mstore\n        /* \"#utility.yul\":20520:20651   */\n      tag_485\n        /* \"#utility.yul\":20646:20650   */\n      dup2\n        /* \"#utility.yul\":20520:20651   */\n      tag_246\n      jump\t// in\n    tag_485:\n        /* \"#utility.yul\":20512:20651   */\n      swap1\n      pop\n        /* \"#utility.yul\":20239:20658   */\n      swap2\n      swap1\n      pop\n      jump\t// out\n        /* \"#utility.yul\":20664:20890   */\n    tag_247:\n        /* \"#utility.yul\":20804:20838   */\n      0x546869732070757263686173652068617320616c7265616479206265656e2072\n        /* \"#utility.yul\":20800:20801   */\n      0x00\n        /* \"#utility.yul\":20792:20798   */\n      dup3\n        /* \"#utility.yul\":20788:20802   */\n      add\n        /* \"#utility.yul\":20781:20839   */\n      mstore\n        /* \"#utility.yul\":20873:20882   */\n      0x6566756e64656400000000000000000000000000000000000000000000000000\n        /* \"#utility.yul\":20868:20870   */\n      0x20\n        /* \"#utility.yul\":20860:20866   */\n      dup3\n        /* \"#utility.yul\":20856:20871   */\n      add\n        /* \"#utility.yul\":20849:20883   */\n      mstore\n        /* \"#utility.yul\":20664:20890   */\n      pop\n      jump\t// out\n        /* \"#utility.yul\":20896:21262   */\n    tag_248:\n        /* \"#utility.yul\":21038:21041   */\n      0x00\n        /* \"#utility.yul\":21059:21126   */\n      tag_488\n        /* \"#utility.yul\":21123:21125   */\n      0x27\n        /* \"#utility.yul\":21118:21121   */\n      dup4\n        /* \"#utility.yul\":21059:21126   */\n      tag_212\n      jump\t// in\n    tag_488:\n        /* \"#utility.yul\":21052:21126   */\n      swap2\n      pop\n        /* \"#utility.yul\":21135:21228   */\n      tag_489\n        /* \"#utility.yul\":21224:21227   */\n      dup3\n        /* \"#utility.yul\":21135:21228   */\n      tag_247\n      jump\t// in\n    tag_489:\n        /* \"#utility.yul\":21253:21255   */\n      0x40\n        /* \"#utility.yul\":21248:21251   */\n      dup3\n        /* \"#utility.yul\":21244:21256   */\n      add\n        /* \"#utility.yul\":21237:21256   */\n      swap1\n      pop\n        /* \"#utility.yul\":20896:21262   */\n      swap2\n      swap1\n      pop\n      jump\t// out\n        /* \"#utility.yul\":21268:21687   */\n    tag_118:\n        /* \"#utility.yul\":21434:21438   */\n      0x00\n        /* \"#utility.yul\":21472:21474   */\n      0x20\n        /* \"#utility.yul\":21461:21470   */\n      dup3\n        /* \"#utility.yul\":21457:21475   */\n      add\n        /* \"#utility.yul\":21449:21475   */\n      swap1\n      pop\n        /* \"#utility.yul\":21521:21530   */\n      dup2\n        /* \"#utility.yul\":21515:21519   */\n      dup2\n        /* \"#utility.yul\":21511:21531   */\n      sub\n        /* \"#utility.yul\":21507:21508   */\n      0x00\n        /* \"#utility.yul\":21496:21505   */\n      dup4\n        /* \"#utility.yul\":21492:21509   */\n      add\n        /* \"#utility.yul\":21485:21532   */\n      mstore\n        /* \"#utility.yul\":21549:21680   */\n      tag_491\n        /* \"#utility.yul\":21675:21679   */\n      dup2\n        /* \"#utility.yul\":21549:21680   */\n      tag_248\n      jump\t// in\n    tag_491:\n        /* \"#utility.yul\":21541:21680   */\n      swap1\n      pop\n        /* \"#utility.yul\":21268:21687   */\n      swap2\n      swap1\n      pop\n      jump\t// out\n        /* \"#utility.yul\":21693:21915   */\n    tag_120:\n        /* \"#utility.yul\":21786:21790   */\n      0x00\n        /* \"#utility.yul\":21824:21826   */\n      0x20\n        /* \"#utility.yul\":21813:21822   */\n      dup3\n        /* \"#utility.yul\":21809:21827   */\n      add\n        /* \"#utility.yul\":21801:21827   */\n      swap1\n      pop\n        /* \"#utility.yul\":21837:21908   */\n      tag_493\n        /* \"#utility.yul\":21905:21906   */\n      0x00\n        /* \"#utility.yul\":21894:21903   */\n      dup4\n        /* \"#utility.yul\":21890:21907   */\n      add\n        /* \"#utility.yul\":21881:21887   */\n      dup5\n        /* \"#utility.yul\":21837:21908   */\n      tag_215\n      jump\t// in\n    tag_493:\n        /* \"#utility.yul\":21693:21915   */\n      swap3\n      swap2\n      pop\n      pop\n      jump\t// out\n        /* \"#utility.yul\":21921:22064   */\n    tag_249:\n        /* \"#utility.yul\":21978:21983   */\n      0x00\n        /* \"#utility.yul\":22009:22015   */\n      dup2\n        /* \"#utility.yul\":22003:22016   */\n      mload\n        /* \"#utility.yul\":21994:22016   */\n      swap1\n      pop\n        /* \"#utility.yul\":22025:22058   */\n      tag_495\n        /* \"#utility.yul\":22052:22057   */\n      dup2\n        /* \"#utility.yul\":22025:22058   */\n      tag_194\n      jump\t// in\n    tag_495:\n        /* \"#utility.yul\":21921:22064   */\n      swap3\n      swap2\n      pop\n      pop\n      jump\t// out\n        /* \"#utility.yul\":22070:22421   */\n    tag_124:\n        /* \"#utility.yul\":22140:22146   */\n      0x00\n        /* \"#utility.yul\":22189:22191   */\n      0x20\n        /* \"#utility.yul\":22177:22186   */\n      dup3\n        /* \"#utility.yul\":22168:22175   */\n      dup5\n        /* \"#utility.yul\":22164:22187   */\n      sub\n        /* \"#utility.yul\":22160:22192   */\n      slt\n        /* \"#utility.yul\":22157:22276   */\n      iszero\n      tag_497\n      jumpi\n        /* \"#utility.yul\":22195:22274   */\n      tag_498\n      tag_185\n      jump\t// in\n    tag_498:\n        /* \"#utility.yul\":22157:22276   */\n    tag_497:\n        /* \"#utility.yul\":22315:22316   */\n      0x00\n        /* \"#utility.yul\":22340:22404   */\n      tag_499\n        /* \"#utility.yul\":22396:22403   */\n      dup5\n        /* \"#utility.yul\":22387:22393   */\n      dup3\n        /* \"#utility.yul\":22376:22385   */\n      dup6\n        /* \"#utility.yul\":22372:22394   */\n      add\n        /* \"#utility.yul\":22340:22404   */\n      tag_249\n      jump\t// in\n    tag_499:\n        /* \"#utility.yul\":22330:22404   */\n      swap2\n      pop\n        /* \"#utility.yul\":22286:22414   */\n      pop\n        /* \"#utility.yul\":22070:22421   */\n      swap3\n      swap2\n      pop\n      pop\n      jump\t// out\n        /* \"#utility.yul\":22427:22759   */\n    tag_126:\n        /* \"#utility.yul\":22548:22552   */\n      0x00\n        /* \"#utility.yul\":22586:22588   */\n      0x40\n        /* \"#utility.yul\":22575:22584   */\n      dup3\n        /* \"#utility.yul\":22571:22589   */\n      add\n        /* \"#utility.yul\":22563:22589   */\n      swap1\n      pop\n        /* \"#utility.yul\":22599:22670   */\n      tag_501\n        /* \"#utility.yul\":22667:22668   */\n      0x00\n        /* \"#utility.yul\":22656:22665   */\n      dup4\n        /* \"#utility.yul\":22652:22669   */\n      add\n        /* \"#utility.yul\":22643:22649   */\n      dup6\n        /* \"#utility.yul\":22599:22670   */\n      tag_215\n      jump\t// in\n    tag_501:\n        /* \"#utility.yul\":22680:22752   */\n      tag_502\n        /* \"#utility.yul\":22748:22750   */\n      0x20\n        /* \"#utility.yul\":22737:22746   */\n      dup4\n        /* \"#utility.yul\":22733:22751   */\n      add\n        /* \"#utility.yul\":22724:22730   */\n      dup5\n        /* \"#utility.yul\":22680:22752   */\n      tag_196\n      jump\t// in\n    tag_502:\n        /* \"#utility.yul\":22427:22759   */\n      swap4\n      swap3\n      pop\n      pop\n      pop\n      jump\t// out\n        /* \"#utility.yul\":22765:22928   */\n    tag_250:\n        /* \"#utility.yul\":22905:22920   */\n      0x526566756e64206661696c656400000000000000000000000000000000000000\n        /* \"#utility.yul\":22901:22902   */\n      0x00\n        /* \"#utility.yul\":22893:22899   */\n      dup3\n        /* \"#utility.yul\":22889:22903   */\n      add\n        /* \"#utility.yul\":22882:22921   */\n      mstore\n        /* \"#utility.yul\":22765:22928   */\n      pop\n      jump\t// out\n        /* \"#utility.yul\":22934:23300   */\n    tag_251:\n        /* \"#utility.yul\":23076:23079   */\n      0x00\n        /* \"#utility.yul\":23097:23164   */\n      tag_505\n        /* \"#utility.yul\":23161:23163   */\n      0x0d\n        /* \"#utility.yul\":23156:23159   */\n      dup4\n        /* \"#utility.yul\":23097:23164   */\n      tag_212\n      jump\t// in\n    tag_505:\n        /* \"#utility.yul\":23090:23164   */\n      swap2\n      pop\n        /* \"#utility.yul\":23173:23266   */\n      tag_506\n        /* \"#utility.yul\":23262:23265   */\n      dup3\n        /* \"#utility.yul\":23173:23266   */\n      tag_250\n      jump\t// in\n    tag_506:\n        /* \"#utility.yul\":23291:23293   */\n      0x20\n        /* \"#utility.yul\":23286:23289   */\n      dup3\n        /* \"#utility.yul\":23282:23294   */\n      add\n        /* \"#utility.yul\":23275:23294   */\n      swap1\n      pop\n        /* \"#utility.yul\":22934:23300   */\n      swap2\n      swap1\n      pop\n      jump\t// out\n        /* \"#utility.yul\":23306:23725   */\n    tag_132:\n        /* \"#utility.yul\":23472:23476   */\n      0x00\n        /* \"#utility.yul\":23510:23512   */\n      0x20\n        /* \"#utility.yul\":23499:23508   */\n      dup3\n        /* \"#utility.yul\":23495:23513   */\n      add\n        /* \"#utility.yul\":23487:23513   */\n      swap1\n      pop\n        /* \"#utility.yul\":23559:23568   */\n      dup2\n        /* \"#utility.yul\":23553:23557   */\n      dup2\n        /* \"#utility.yul\":23549:23569   */\n      sub\n        /* \"#utility.yul\":23545:23546   */\n      0x00\n        /* \"#utility.yul\":23534:23543   */\n      dup4\n        /* \"#utility.yul\":23530:23547   */\n      add\n        /* \"#utility.yul\":23523:23570   */\n      mstore\n        /* \"#utility.yul\":23587:23718   */\n      tag_508\n        /* \"#utility.yul\":23713:23717   */\n      dup2\n        /* \"#utility.yul\":23587:23718   */\n      tag_251\n      jump\t// in\n    tag_508:\n        /* \"#utility.yul\":23579:23718   */\n      swap1\n      pop\n        /* \"#utility.yul\":23306:23725   */\n      swap2\n      swap1\n      pop\n      jump\t// out\n        /* \"#utility.yul\":23731:23912   */\n    tag_252:\n        /* \"#utility.yul\":23871:23904   */\n      0x5468697320707572636861736520686173206265656e20726566756e64656400\n        /* \"#utility.yul\":23867:23868   */\n      0x00\n        /* \"#utility.yul\":23859:23865   */\n      dup3\n        /* \"#utility.yul\":23855:23869   */\n      add\n        /* \"#utility.yul\":23848:23905   */\n      mstore\n        /* \"#utility.yul\":23731:23912   */\n      pop\n      jump\t// out\n        /* \"#utility.yul\":23918:24284   */\n    tag_253:\n        /* \"#utility.yul\":24060:24063   */\n      0x00\n        /* \"#utility.yul\":24081:24148   */\n      tag_511\n        /* \"#utility.yul\":24145:24147   */\n      0x1f\n        /* \"#utility.yul\":24140:24143   */\n      dup4\n        /* \"#utility.yul\":24081:24148   */\n      tag_212\n      jump\t// in\n    tag_511:\n        /* \"#utility.yul\":24074:24148   */\n      swap2\n      pop\n        /* \"#utility.yul\":24157:24250   */\n      tag_512\n        /* \"#utility.yul\":24246:24249   */\n      dup3\n        /* \"#utility.yul\":24157:24250   */\n      tag_252\n      jump\t// in\n    tag_512:\n        /* \"#utility.yul\":24275:24277   */\n      0x20\n        /* \"#utility.yul\":24270:24273   */\n      dup3\n        /* \"#utility.yul\":24266:24278   */\n      add\n        /* \"#utility.yul\":24259:24278   */\n      swap1\n      pop\n        /* \"#utility.yul\":23918:24284   */\n      swap2\n      swap1\n      pop\n      jump\t// out\n        /* \"#utility.yul\":24290:24709   */\n    tag_138:\n        /* \"#utility.yul\":24456:24460   */\n      0x00\n        /* \"#utility.yul\":24494:24496   */\n      0x20\n        /* \"#utility.yul\":24483:24492   */\n      dup3\n        /* \"#utility.yul\":24479:24497   */\n      add\n        /* \"#utility.yul\":24471:24497   */\n      swap1\n      pop\n        /* \"#utility.yul\":24543:24552   */\n      dup2\n        /* \"#utility.yul\":24537:24541   */\n      dup2\n        /* \"#utility.yul\":24533:24553   */\n      sub\n        /* \"#utility.yul\":24529:24530   */\n      0x00\n        /* \"#utility.yul\":24518:24527   */\n      dup4\n        /* \"#utility.yul\":24514:24531   */\n      add\n        /* \"#utility.yul\":24507:24554   */\n      mstore\n        /* \"#utility.yul\":24571:24702   */\n      tag_514\n        /* \"#utility.yul\":24697:24701   */\n      dup2\n        /* \"#utility.yul\":24571:24702   */\n      tag_253\n      jump\t// in\n    tag_514:\n        /* \"#utility.yul\":24563:24702   */\n      swap1\n      pop\n        /* \"#utility.yul\":24290:24709   */\n      swap2\n      swap1\n      pop\n      jump\t// out\n        /* \"#utility.yul\":24715:24886   */\n    tag_254:\n        /* \"#utility.yul\":24855:24878   */\n      0x546f6b656e207472616e73666572206661696c65640000000000000000000000\n        /* \"#utility.yul\":24851:24852   */\n      0x00\n        /* \"#utility.yul\":24843:24849   */\n      dup3\n        /* \"#utility.yul\":24839:24853   */\n      add\n        /* \"#utility.yul\":24832:24879   */\n      mstore\n        /* \"#utility.yul\":24715:24886   */\n      pop\n      jump\t// out\n        /* \"#utility.yul\":24892:25258   */\n    tag_255:\n        /* \"#utility.yul\":25034:25037   */\n      0x00\n        /* \"#utility.yul\":25055:25122   */\n      tag_517\n        /* \"#utility.yul\":25119:25121   */\n      0x15\n        /* \"#utility.yul\":25114:25117   */\n      dup4\n        /* \"#utility.yul\":25055:25122   */\n      tag_212\n      jump\t// in\n    tag_517:\n        /* \"#utility.yul\":25048:25122   */\n      swap2\n      pop\n        /* \"#utility.yul\":25131:25224   */\n      tag_518\n        /* \"#utility.yul\":25220:25223   */\n      dup3\n        /* \"#utility.yul\":25131:25224   */\n      tag_254\n      jump\t// in\n    tag_518:\n        /* \"#utility.yul\":25249:25251   */\n      0x20\n        /* \"#utility.yul\":25244:25247   */\n      dup3\n        /* \"#utility.yul\":25240:25252   */\n      add\n        /* \"#utility.yul\":25233:25252   */\n      swap1\n      pop\n        /* \"#utility.yul\":24892:25258   */\n      swap2\n      swap1\n      pop\n      jump\t// out\n        /* \"#utility.yul\":25264:25683   */\n    tag_145:\n        /* \"#utility.yul\":25430:25434   */\n      0x00\n        /* \"#utility.yul\":25468:25470   */\n      0x20\n        /* \"#utility.yul\":25457:25466   */\n      dup3\n        /* \"#utility.yul\":25453:25471   */\n      add\n        /* \"#utility.yul\":25445:25471   */\n      swap1\n      pop\n        /* \"#utility.yul\":25517:25526   */\n      dup2\n        /* \"#utility.yul\":25511:25515   */\n      dup2\n        /* \"#utility.yul\":25507:25527   */\n      sub\n        /* \"#utility.yul\":25503:25504   */\n      0x00\n        /* \"#utility.yul\":25492:25501   */\n      dup4\n        /* \"#utility.yul\":25488:25505   */\n      add\n        /* \"#utility.yul\":25481:25528   */\n      mstore\n        /* \"#utility.yul\":25545:25676   */\n      tag_520\n        /* \"#utility.yul\":25671:25675   */\n      dup2\n        /* \"#utility.yul\":25545:25676   */\n      tag_255\n      jump\t// in\n    tag_520:\n        /* \"#utility.yul\":25537:25676   */\n      swap1\n      pop\n        /* \"#utility.yul\":25264:25683   */\n      swap2\n      swap1\n      pop\n      jump\t// out\n        /* \"#utility.yul\":25689:25850   */\n    tag_256:\n        /* \"#utility.yul\":25829:25842   */\n      0x496e76616c696420434944000000000000000000000000000000000000000000\n        /* \"#utility.yul\":25825:25826   */\n      0x00\n        /* \"#utility.yul\":25817:25823   */\n      dup3\n        /* \"#utility.yul\":25813:25827   */\n      add\n        /* \"#utility.yul\":25806:25843   */\n      mstore\n        /* \"#utility.yul\":25689:25850   */\n      pop\n      jump\t// out\n        /* \"#utility.yul\":25856:26222   */\n    tag_257:\n        /* \"#utility.yul\":25998:26001   */\n      0x00\n        /* \"#utility.yul\":26019:26086   */\n      tag_523\n        /* \"#utility.yul\":26083:26085   */\n      0x0b\n        /* \"#utility.yul\":26078:26081   */\n      dup4\n        /* \"#utility.yul\":26019:26086   */\n      tag_212\n      jump\t// in\n    tag_523:\n        /* \"#utility.yul\":26012:26086   */\n      swap2\n      pop\n        /* \"#utility.yul\":26095:26188   */\n      tag_524\n        /* \"#utility.yul\":26184:26187   */\n      dup3\n        /* \"#utility.yul\":26095:26188   */\n      tag_256\n      jump\t// in\n    tag_524:\n        /* \"#utility.yul\":26213:26215   */\n      0x20\n        /* \"#utility.yul\":26208:26211   */\n      dup3\n        /* \"#utility.yul\":26204:26216   */\n      add\n        /* \"#utility.yul\":26197:26216   */\n      swap1\n      pop\n        /* \"#utility.yul\":25856:26222   */\n      swap2\n      swap1\n      pop\n      jump\t// out\n        /* \"#utility.yul\":26228:26647   */\n    tag_158:\n        /* \"#utility.yul\":26394:26398   */\n      0x00\n        /* \"#utility.yul\":26432:26434   */\n      0x20\n        /* \"#utility.yul\":26421:26430   */\n      dup3\n        /* \"#utility.yul\":26417:26435   */\n      add\n        /* \"#utility.yul\":26409:26435   */\n      swap1\n      pop\n        /* \"#utility.yul\":26481:26490   */\n      dup2\n        /* \"#utility.yul\":26475:26479   */\n      dup2\n        /* \"#utility.yul\":26471:26491   */\n      sub\n        /* \"#utility.yul\":26467:26468   */\n      0x00\n        /* \"#utility.yul\":26456:26465   */\n      dup4\n        /* \"#utility.yul\":26452:26469   */\n      add\n        /* \"#utility.yul\":26445:26492   */\n      mstore\n        /* \"#utility.yul\":26509:26640   */\n      tag_526\n        /* \"#utility.yul\":26635:26639   */\n      dup2\n        /* \"#utility.yul\":26509:26640   */\n      tag_257\n      jump\t// in\n    tag_526:\n        /* \"#utility.yul\":26501:26640   */\n      swap1\n      pop\n        /* \"#utility.yul\":26228:26647   */\n      swap2\n      swap1\n      pop\n      jump\t// out\n\n    auxdata: 0xa26469706673582212208dc0cf8455ead0e71f9654ee633a9dca8d8ba7b5f1a49bf9128f869e7ea369fe64736f6c634300080f0033\n}\n",
				"bytecode": {
					"linkReferences": {},
					"object": "60806040523480156200001157600080fd5b506040516200214938038062002149833981810160405281019062000037919062000163565b80600560006101000a81548173ffffffffffffffffffffffffffffffffffffffff021916908373ffffffffffffffffffffffffffffffffffffffff16021790555060008060003373ffffffffffffffffffffffffffffffffffffffff1673ffffffffffffffffffffffffffffffffffffffff16815260200190815260200160002060006101000a81548160ff02191690836002811115620000dd57620000dc62000195565b5b02179055506000600381905550600060048190555050620001c4565b600080fd5b600073ffffffffffffffffffffffffffffffffffffffff82169050919050565b60006200012b82620000fe565b9050919050565b6200013d816200011e565b81146200014957600080fd5b50565b6000815190506200015d8162000132565b92915050565b6000602082840312156200017c576200017b620000f9565b5b60006200018c848285016200014c565b91505092915050565b7f4e487b7100000000000000000000000000000000000000000000000000000000600052602160045260246000fd5b611f7580620001d46000396000f3fe608060405234801561001057600080fd5b50600436106100b45760003560e01c80636ecbba0d116100715780636ecbba0d1461016557806374d5e100146101815780637e0b455b146101b15780638392fe31146101cd5780638a72ea6a146101ff578063fc0c546a14610231576100b4565b806303a69611146100b95780630ce2e153146100d557806323b4a7a3146100f1578063278ecde11461010f5780632839376f1461012b5780635f5d065514610147575b600080fd5b6100d360048036038101906100ce91906111ad565b61024f565b005b6100ef60048036038101906100ea9190611223565b61036d565b005b6100f96106b4565b604051610106919061125f565b60405180910390f35b61012960048036038101906101249190611223565b6106ba565b005b6101456004803603810190610140919061127a565b610a2e565b005b61014f610c0f565b60405161015c919061125f565b60405180910390f35b61017f600480360381019061017a9190611400565b610c15565b005b61019b6004803603810190610196919061146f565b610d49565b6040516101a89190611513565b60405180910390f35b6101cb60048036038101906101c6919061152e565b610d69565b005b6101e760048036038101906101e29190611223565b610f31565b6040516101f69392919061163c565b60405180910390f35b61021960048036038101906102149190611223565b611010565b6040516102289392919061167a565b60405180910390f35b6102396110e2565b6040516102469190611717565b60405180910390f35b60008060028111156102645761026361149c565b5b6000803373ffffffffffffffffffffffffffffffffffffffff1673ffffffffffffffffffffffffffffffffffffffff16815260200190815260200160002060009054906101000a900460ff1660028111156102c2576102c161149c565b5b14610302576040517f08c379a00000000000000000000000000000000000000000000000000000000081526004016102f99061177e565b60405180910390fd5b816000808573ffffffffffffffffffffffffffffffffffffffff1673ffffffffffffffffffffffffffffffffffffffff16815260200190815260200160002060006101000a81548160ff021916908360028111156103635761036261149c565b5b0217905550505050565b60028060028111156103825761038161149c565b5b6000803373ffffffffffffffffffffffffffffffffffffffff1673ffffffffffffffffffffffffffffffffffffffff16815260200190815260200160002060009054906101000a900460ff1660028111156103e0576103df61149c565b5b14610420576040517f08c379a00000000000000000000000000000000000000000000000000000000081526004016104179061177e565b60405180910390fd5b6000600260008481526020019081526020016000209050600560009054906101000a900473ffffffffffffffffffffffffffffffffffffffff1673ffffffffffffffffffffffffffffffffffffffff166323b872dd338360010160009054906101000a900473ffffffffffffffffffffffffffffffffffffffff1684600201546040518463ffffffff1660e01b81526004016104be9392919061179e565b6020604051808303816000875af11580156104dd573d6000803e3d6000fd5b505050506040513d601f19601f820116820180604052508101906105019190611801565b610540576040517f08c379a00000000000000000000000000000000000000000000000000000000081526004016105379061187a565b60405180910390fd5b600060046000815480929190610555906118c9565b919050559050604051806060016040528083600001805461057590611940565b80601f01602080910402602001604051908101604052809291908181526020018280546105a190611940565b80156105ee5780601f106105c3576101008083540402835291602001916105ee565b820191906000526020600020905b8154815290600101906020018083116105d157829003601f168201915b505050505081526020013373ffffffffffffffffffffffffffffffffffffffff168152602001600015158152506001600083815260200190815260200160002060008201518160000190816106439190611b13565b5060208201518160010160006101000a81548173ffffffffffffffffffffffffffffffffffffffff021916908373ffffffffffffffffffffffffffffffffffffffff16021790555060408201518160010160146101000a81548160ff02191690831515021790555090505050505050565b60045481565b60028060028111156106cf576106ce61149c565b5b6000803373ffffffffffffffffffffffffffffffffffffffff1673ffffffffffffffffffffffffffffffffffffffff16815260200190815260200160002060009054906101000a900460ff16600281111561072d5761072c61149c565b5b1461076d576040517f08c379a00000000000000000000000000000000000000000000000000000000081526004016107649061177e565b60405180910390fd5b60006001600084815260200190815260200160002090503373ffffffffffffffffffffffffffffffffffffffff168160010160009054906101000a900473ffffffffffffffffffffffffffffffffffffffff1673ffffffffffffffffffffffffffffffffffffffff1614610816576040517f08c379a000000000000000000000000000000000000000000000000000000000815260040161080d90611c57565b60405180910390fd5b8060010160149054906101000a900460ff1615610868576040517f08c379a000000000000000000000000000000000000000000000000000000000815260040161085f90611ce9565b60405180910390fd5b6000600560009054906101000a900473ffffffffffffffffffffffffffffffffffffffff1673ffffffffffffffffffffffffffffffffffffffff166370a08231306040518263ffffffff1660e01b81526004016108c59190611d09565b602060405180830381865afa1580156108e2573d6000803e3d6000fd5b505050506040513d601f19601f820116820180604052508101906109069190611d39565b9050600560009054906101000a900473ffffffffffffffffffffffffffffffffffffffff1673ffffffffffffffffffffffffffffffffffffffff1663a9059cbb8360010160009054906101000a900473ffffffffffffffffffffffffffffffffffffffff16836040518363ffffffff1660e01b8152600401610989929190611d66565b6020604051808303816000875af11580156109a8573d6000803e3d6000fd5b505050506040513d601f19601f820116820180604052508101906109cc9190611801565b610a0b576040517f08c379a0000000000000000000000000000000000000000000000000000000008152600401610a0290611ddb565b60405180910390fd5b60018260010160146101000a81548160ff02191690831515021790555050505050565b60006001600084815260200190815260200160002090503373ffffffffffffffffffffffffffffffffffffffff168160010160009054906101000a900473ffffffffffffffffffffffffffffffffffffffff1673ffffffffffffffffffffffffffffffffffffffff1614610ad7576040517f08c379a0000000000000000000000000000000000000000000000000000000008152600401610ace90611c57565b60405180910390fd5b8060010160149054906101000a900460ff1615610b29576040517f08c379a0000000000000000000000000000000000000000000000000000000008152600401610b2090611e47565b60405180910390fd5b600560009054906101000a900473ffffffffffffffffffffffffffffffffffffffff1673ffffffffffffffffffffffffffffffffffffffff166323b872dd3330856040518463ffffffff1660e01b8152600401610b889392919061179e565b6020604051808303816000875af1158015610ba7573d6000803e3d6000fd5b505050506040513d601f19601f82011682018060405250810190610bcb9190611801565b610c0a576040517f08c379a0000000000000000000000000000000000000000000000000000000008152600401610c0190611eb3565b60405180910390fd5b505050565b60035481565b6001806002811115610c2a57610c2961149c565b5b6000803373ffffffffffffffffffffffffffffffffffffffff1673ffffffffffffffffffffffffffffffffffffffff16815260200190815260200160002060009054906101000a900460ff166002811115610c8857610c8761149c565b5b14610cc8576040517f08c379a0000000000000000000000000000000000000000000000000000000008152600401610cbf9061177e565b60405180910390fd5b610cd183611108565b610d10576040517f08c379a0000000000000000000000000000000000000000000000000000000008152600401610d0790611f1f565b60405180910390fd5b600060026000868152602001908152602001600020905083816000019081610d389190611b13565b508281600201819055505050505050565b60006020528060005260406000206000915054906101000a900460ff1681565b6001806002811115610d7e57610d7d61149c565b5b6000803373ffffffffffffffffffffffffffffffffffffffff1673ffffffffffffffffffffffffffffffffffffffff16815260200190815260200160002060009054906101000a900460ff166002811115610ddc57610ddb61149c565b5b14610e1c576040517f08c379a0000000000000000000000000000000000000000000000000000000008152600401610e139061177e565b60405180910390fd5b610e2583611108565b610e64576040517f08c379a0000000000000000000000000000000000000000000000000000000008152600401610e5b90611f1f565b60405180910390fd5b60405180606001604052808481526020013373ffffffffffffffffffffffffffffffffffffffff168152602001838152506002600060035481526020019081526020016000206000820151816000019081610ebf9190611b13565b5060208201518160010160006101000a81548173ffffffffffffffffffffffffffffffffffffffff021916908373ffffffffffffffffffffffffffffffffffffffff1602179055506040820151816002015590505060036000815480929190610f27906118c9565b9190505550505050565b6001602052806000526040600020600091509050806000018054610f5490611940565b80601f0160208091040260200160405190810160405280929190818152602001828054610f8090611940565b8015610fcd5780601f10610fa257610100808354040283529160200191610fcd565b820191906000526020600020905b815481529060010190602001808311610fb057829003601f168201915b5050505050908060010160009054906101000a900473ffffffffffffffffffffffffffffffffffffffff16908060010160149054906101000a900460ff16905083565b600260205280600052604060002060009150905080600001805461103390611940565b80601f016020809104026020016040519081016040528092919081815260200182805461105f90611940565b80156110ac5780601f10611081576101008083540402835291602001916110ac565b820191906000526020600020905b81548152906001019060200180831161108f57829003601f168201915b5050505050908060010160009054906101000a900473ffffffffffffffffffffffffffffffffffffffff16908060020154905083565b600560009054906101000a900473ffffffffffffffffffffffffffffffffffffffff1681565b6000602e8251149050919050565b6000604051905090565b600080fd5b600080fd5b600073ffffffffffffffffffffffffffffffffffffffff82169050919050565b60006111558261112a565b9050919050565b6111658161114a565b811461117057600080fd5b50565b6000813590506111828161115c565b92915050565b6003811061119557600080fd5b50565b6000813590506111a781611188565b92915050565b600080604083850312156111c4576111c3611120565b5b60006111d285828601611173565b92505060206111e385828601611198565b9150509250929050565b6000819050919050565b611200816111ed565b811461120b57600080fd5b50565b60008135905061121d816111f7565b92915050565b60006020828403121561123957611238611120565b5b60006112478482850161120e565b91505092915050565b611259816111ed565b82525050565b60006020820190506112746000830184611250565b92915050565b6000806040838503121561129157611290611120565b5b600061129f8582860161120e565b92505060206112b08582860161120e565b9150509250929050565b600080fd5b600080fd5b6000601f19601f8301169050919050565b7f4e487b7100000000000000000000000000000000000000000000000000000000600052604160045260246000fd5b61130d826112c4565b810181811067ffffffffffffffff8211171561132c5761132b6112d5565b5b80604052505050565b600061133f611116565b905061134b8282611304565b919050565b600067ffffffffffffffff82111561136b5761136a6112d5565b5b611374826112c4565b9050602081019050919050565b82818337600083830152505050565b60006113a361139e84611350565b611335565b9050828152602081018484840111156113bf576113be6112bf565b5b6113ca848285611381565b509392505050565b600082601f8301126113e7576113e66112ba565b5b81356113f7848260208601611390565b91505092915050565b60008060006060848603121561141957611418611120565b5b60006114278682870161120e565b935050602084013567ffffffffffffffff81111561144857611447611125565b5b611454868287016113d2565b92505060406114658682870161120e565b9150509250925092565b60006020828403121561148557611484611120565b5b600061149384828501611173565b91505092915050565b7f4e487b7100000000000000000000000000000000000000000000000000000000600052602160045260246000fd5b600381106114dc576114db61149c565b5b50565b60008190506114ed826114cb565b919050565b60006114fd826114df565b9050919050565b61150d816114f2565b82525050565b60006020820190506115286000830184611504565b92915050565b6000806040838503121561154557611544611120565b5b600083013567ffffffffffffffff81111561156357611562611125565b5b61156f858286016113d2565b92505060206115808582860161120e565b9150509250929050565b600081519050919050565b600082825260208201905092915050565b60005b838110156115c45780820151818401526020810190506115a9565b838111156115d3576000848401525b50505050565b60006115e48261158a565b6115ee8185611595565b93506115fe8185602086016115a6565b611607816112c4565b840191505092915050565b61161b8161114a565b82525050565b60008115159050919050565b61163681611621565b82525050565b6000606082019050818103600083015261165681866115d9565b90506116656020830185611612565b611672604083018461162d565b949350505050565b6000606082019050818103600083015261169481866115d9565b90506116a36020830185611612565b6116b06040830184611250565b949350505050565b6000819050919050565b60006116dd6116d86116d38461112a565b6116b8565b61112a565b9050919050565b60006116ef826116c2565b9050919050565b6000611701826116e4565b9050919050565b611711816116f6565b82525050565b600060208201905061172c6000830184611708565b92915050565b7f556e617574686f72697a65640000000000000000000000000000000000000000600082015250565b6000611768600c83611595565b915061177382611732565b602082019050919050565b600060208201905081810360008301526117978161175b565b9050919050565b60006060820190506117b36000830186611612565b6117c06020830185611612565b6117cd6040830184611250565b949350505050565b6117de81611621565b81146117e957600080fd5b50565b6000815190506117fb816117d5565b92915050565b60006020828403121561181757611816611120565b5b6000611825848285016117ec565b91505092915050565b7f4661696c656420746f207472616e7366657220746f6b656e7300000000000000600082015250565b6000611864601983611595565b915061186f8261182e565b602082019050919050565b6000602082019050818103600083015261189381611857565b9050919050565b7f4e487b7100000000000000000000000000000000000000000000000000000000600052601160045260246000fd5b60006118d4826111ed565b91507fffffffffffffffffffffffffffffffffffffffffffffffffffffffffffffffff82036119065761190561189a565b5b600182019050919050565b7f4e487b7100000000000000000000000000000000000000000000000000000000600052602260045260246000fd5b6000600282049050600182168061195857607f821691505b60208210810361196b5761196a611911565b5b50919050565b60008190508160005260206000209050919050565b60006020601f8301049050919050565b600082821b905092915050565b6000600883026119d37fffffffffffffffffffffffffffffffffffffffffffffffffffffffffffffffff82611996565b6119dd8683611996565b95508019841693508086168417925050509392505050565b6000611a10611a0b611a06846111ed565b6116b8565b6111ed565b9050919050565b6000819050919050565b611a2a836119f5565b611a3e611a3682611a17565b8484546119a3565b825550505050565b600090565b611a53611a46565b611a5e818484611a21565b505050565b5b81811015611a8257611a77600082611a4b565b600181019050611a64565b5050565b601f821115611ac757611a9881611971565b611aa184611986565b81016020851015611ab0578190505b611ac4611abc85611986565b830182611a63565b50505b505050565b600082821c905092915050565b6000611aea60001984600802611acc565b1980831691505092915050565b6000611b038383611ad9565b9150826002028217905092915050565b611b1c8261158a565b67ffffffffffffffff811115611b3557611b346112d5565b5b611b3f8254611940565b611b4a828285611a86565b600060209050601f831160018114611b7d5760008415611b6b578287015190505b611b758582611af7565b865550611bdd565b601f198416611b8b86611971565b60005b82811015611bb357848901518255600182019150602085019450602081019050611b8e565b86831015611bd05784890151611bcc601f891682611ad9565b8355505b6001600288020188555050505b505050505050565b7f596f7520617265206e6f7420746865206275796572206f66207468697320707560008201527f7263686173650000000000000000000000000000000000000000000000000000602082015250565b6000611c41602683611595565b9150611c4c82611be5565b604082019050919050565b60006020820190508181036000830152611c7081611c34565b9050919050565b7f546869732070757263686173652068617320616c7265616479206265656e207260008201527f6566756e64656400000000000000000000000000000000000000000000000000602082015250565b6000611cd3602783611595565b9150611cde82611c77565b604082019050919050565b60006020820190508181036000830152611d0281611cc6565b9050919050565b6000602082019050611d1e6000830184611612565b92915050565b600081519050611d33816111f7565b92915050565b600060208284031215611d4f57611d4e611120565b5b6000611d5d84828501611d24565b91505092915050565b6000604082019050611d7b6000830185611612565b611d886020830184611250565b9392505050565b7f526566756e64206661696c656400000000000000000000000000000000000000600082015250565b6000611dc5600d83611595565b9150611dd082611d8f565b602082019050919050565b60006020820190508181036000830152611df481611db8565b9050919050565b7f5468697320707572636861736520686173206265656e20726566756e64656400600082015250565b6000611e31601f83611595565b9150611e3c82611dfb565b602082019050919050565b60006020820190508181036000830152611e6081611e24565b9050919050565b7f546f6b656e207472616e73666572206661696c65640000000000000000000000600082015250565b6000611e9d601583611595565b9150611ea882611e67565b602082019050919050565b60006020820190508181036000830152611ecc81611e90565b9050919050565b7f496e76616c696420434944000000000000000000000000000000000000000000600082015250565b6000611f09600b83611595565b9150611f1482611ed3565b602082019050919050565b60006020820190508181036000830152611f3881611efc565b905091905056fea26469706673582212208dc0cf8455ead0e71f9654ee633a9dca8d8ba7b5f1a49bf9128f869e7ea369fe64736f6c634300080f0033",
					"opcodes": "PUSH1 0x80 PUSH1 0x40 MSTORE CALLVALUE DUP1 ISZERO PUSH3 0x11 JUMPI PUSH1 0x0 DUP1 REVERT JUMPDEST POP PUSH1 0x40 MLOAD PUSH3 0x2149 CODESIZE SUB DUP1 PUSH3 0x2149 DUP4 CODECOPY DUP2 DUP2 ADD PUSH1 0x40 MSTORE DUP2 ADD SWAP1 PUSH3 0x37 SWAP2 SWAP1 PUSH3 0x163 JUMP JUMPDEST DUP1 PUSH1 0x5 PUSH1 0x0 PUSH2 0x100 EXP DUP2 SLOAD DUP2 PUSH20 0xFFFFFFFFFFFFFFFFFFFFFFFFFFFFFFFFFFFFFFFF MUL NOT AND SWAP1 DUP4 PUSH20 0xFFFFFFFFFFFFFFFFFFFFFFFFFFFFFFFFFFFFFFFF AND MUL OR SWAP1 SSTORE POP PUSH1 0x0 DUP1 PUSH1 0x0 CALLER PUSH20 0xFFFFFFFFFFFFFFFFFFFFFFFFFFFFFFFFFFFFFFFF AND PUSH20 0xFFFFFFFFFFFFFFFFFFFFFFFFFFFFFFFFFFFFFFFF AND DUP2 MSTORE PUSH1 0x20 ADD SWAP1 DUP2 MSTORE PUSH1 0x20 ADD PUSH1 0x0 KECCAK256 PUSH1 0x0 PUSH2 0x100 EXP DUP2 SLOAD DUP2 PUSH1 0xFF MUL NOT AND SWAP1 DUP4 PUSH1 0x2 DUP2 GT ISZERO PUSH3 0xDD JUMPI PUSH3 0xDC PUSH3 0x195 JUMP JUMPDEST JUMPDEST MUL OR SWAP1 SSTORE POP PUSH1 0x0 PUSH1 0x3 DUP2 SWAP1 SSTORE POP PUSH1 0x0 PUSH1 0x4 DUP2 SWAP1 SSTORE POP POP PUSH3 0x1C4 JUMP JUMPDEST PUSH1 0x0 DUP1 REVERT JUMPDEST PUSH1 0x0 PUSH20 0xFFFFFFFFFFFFFFFFFFFFFFFFFFFFFFFFFFFFFFFF DUP3 AND SWAP1 POP SWAP2 SWAP1 POP JUMP JUMPDEST PUSH1 0x0 PUSH3 0x12B DUP3 PUSH3 0xFE JUMP JUMPDEST SWAP1 POP SWAP2 SWAP1 POP JUMP JUMPDEST PUSH3 0x13D DUP2 PUSH3 0x11E JUMP JUMPDEST DUP2 EQ PUSH3 0x149 JUMPI PUSH1 0x0 DUP1 REVERT JUMPDEST POP JUMP JUMPDEST PUSH1 0x0 DUP2 MLOAD SWAP1 POP PUSH3 0x15D DUP2 PUSH3 0x132 JUMP JUMPDEST SWAP3 SWAP2 POP POP JUMP JUMPDEST PUSH1 0x0 PUSH1 0x20 DUP3 DUP5 SUB SLT ISZERO PUSH3 0x17C JUMPI PUSH3 0x17B PUSH3 0xF9 JUMP JUMPDEST JUMPDEST PUSH1 0x0 PUSH3 0x18C DUP5 DUP3 DUP6 ADD PUSH3 0x14C JUMP JUMPDEST SWAP2 POP POP SWAP3 SWAP2 POP POP JUMP JUMPDEST PUSH32 0x4E487B7100000000000000000000000000000000000000000000000000000000 PUSH1 0x0 MSTORE PUSH1 0x21 PUSH1 0x4 MSTORE PUSH1 0x24 PUSH1 0x0 REVERT JUMPDEST PUSH2 0x1F75 DUP1 PUSH3 0x1D4 PUSH1 0x0 CODECOPY PUSH1 0x0 RETURN INVALID PUSH1 0x80 PUSH1 0x40 MSTORE CALLVALUE DUP1 ISZERO PUSH2 0x10 JUMPI PUSH1 0x0 DUP1 REVERT JUMPDEST POP PUSH1 0x4 CALLDATASIZE LT PUSH2 0xB4 JUMPI PUSH1 0x0 CALLDATALOAD PUSH1 0xE0 SHR DUP1 PUSH4 0x6ECBBA0D GT PUSH2 0x71 JUMPI DUP1 PUSH4 0x6ECBBA0D EQ PUSH2 0x165 JUMPI DUP1 PUSH4 0x74D5E100 EQ PUSH2 0x181 JUMPI DUP1 PUSH4 0x7E0B455B EQ PUSH2 0x1B1 JUMPI DUP1 PUSH4 0x8392FE31 EQ PUSH2 0x1CD JUMPI DUP1 PUSH4 0x8A72EA6A EQ PUSH2 0x1FF JUMPI DUP1 PUSH4 0xFC0C546A EQ PUSH2 0x231 JUMPI PUSH2 0xB4 JUMP JUMPDEST DUP1 PUSH4 0x3A69611 EQ PUSH2 0xB9 JUMPI DUP1 PUSH4 0xCE2E153 EQ PUSH2 0xD5 JUMPI DUP1 PUSH4 0x23B4A7A3 EQ PUSH2 0xF1 JUMPI DUP1 PUSH4 0x278ECDE1 EQ PUSH2 0x10F JUMPI DUP1 PUSH4 0x2839376F EQ PUSH2 0x12B JUMPI DUP1 PUSH4 0x5F5D0655 EQ PUSH2 0x147 JUMPI JUMPDEST PUSH1 0x0 DUP1 REVERT JUMPDEST PUSH2 0xD3 PUSH1 0x4 DUP1 CALLDATASIZE SUB DUP2 ADD SWAP1 PUSH2 0xCE SWAP2 SWAP1 PUSH2 0x11AD JUMP JUMPDEST PUSH2 0x24F JUMP JUMPDEST STOP JUMPDEST PUSH2 0xEF PUSH1 0x4 DUP1 CALLDATASIZE SUB DUP2 ADD SWAP1 PUSH2 0xEA SWAP2 SWAP1 PUSH2 0x1223 JUMP JUMPDEST PUSH2 0x36D JUMP JUMPDEST STOP JUMPDEST PUSH2 0xF9 PUSH2 0x6B4 JUMP JUMPDEST PUSH1 0x40 MLOAD PUSH2 0x106 SWAP2 SWAP1 PUSH2 0x125F JUMP JUMPDEST PUSH1 0x40 MLOAD DUP1 SWAP2 SUB SWAP1 RETURN JUMPDEST PUSH2 0x129 PUSH1 0x4 DUP1 CALLDATASIZE SUB DUP2 ADD SWAP1 PUSH2 0x124 SWAP2 SWAP1 PUSH2 0x1223 JUMP JUMPDEST PUSH2 0x6BA JUMP JUMPDEST STOP JUMPDEST PUSH2 0x145 PUSH1 0x4 DUP1 CALLDATASIZE SUB DUP2 ADD SWAP1 PUSH2 0x140 SWAP2 SWAP1 PUSH2 0x127A JUMP JUMPDEST PUSH2 0xA2E JUMP JUMPDEST STOP JUMPDEST PUSH2 0x14F PUSH2 0xC0F JUMP JUMPDEST PUSH1 0x40 MLOAD PUSH2 0x15C SWAP2 SWAP1 PUSH2 0x125F JUMP JUMPDEST PUSH1 0x40 MLOAD DUP1 SWAP2 SUB SWAP1 RETURN JUMPDEST PUSH2 0x17F PUSH1 0x4 DUP1 CALLDATASIZE SUB DUP2 ADD SWAP1 PUSH2 0x17A SWAP2 SWAP1 PUSH2 0x1400 JUMP JUMPDEST PUSH2 0xC15 JUMP JUMPDEST STOP JUMPDEST PUSH2 0x19B PUSH1 0x4 DUP1 CALLDATASIZE SUB DUP2 ADD SWAP1 PUSH2 0x196 SWAP2 SWAP1 PUSH2 0x146F JUMP JUMPDEST PUSH2 0xD49 JUMP JUMPDEST PUSH1 0x40 MLOAD PUSH2 0x1A8 SWAP2 SWAP1 PUSH2 0x1513 JUMP JUMPDEST PUSH1 0x40 MLOAD DUP1 SWAP2 SUB SWAP1 RETURN JUMPDEST PUSH2 0x1CB PUSH1 0x4 DUP1 CALLDATASIZE SUB DUP2 ADD SWAP1 PUSH2 0x1C6 SWAP2 SWAP1 PUSH2 0x152E JUMP JUMPDEST PUSH2 0xD69 JUMP JUMPDEST STOP JUMPDEST PUSH2 0x1E7 PUSH1 0x4 DUP1 CALLDATASIZE SUB DUP2 ADD SWAP1 PUSH2 0x1E2 SWAP2 SWAP1 PUSH2 0x1223 JUMP JUMPDEST PUSH2 0xF31 JUMP JUMPDEST PUSH1 0x40 MLOAD PUSH2 0x1F6 SWAP4 SWAP3 SWAP2 SWAP1 PUSH2 0x163C JUMP JUMPDEST PUSH1 0x40 MLOAD DUP1 SWAP2 SUB SWAP1 RETURN JUMPDEST PUSH2 0x219 PUSH1 0x4 DUP1 CALLDATASIZE SUB DUP2 ADD SWAP1 PUSH2 0x214 SWAP2 SWAP1 PUSH2 0x1223 JUMP JUMPDEST PUSH2 0x1010 JUMP JUMPDEST PUSH1 0x40 MLOAD PUSH2 0x228 SWAP4 SWAP3 SWAP2 SWAP1 PUSH2 0x167A JUMP JUMPDEST PUSH1 0x40 MLOAD DUP1 SWAP2 SUB SWAP1 RETURN JUMPDEST PUSH2 0x239 PUSH2 0x10E2 JUMP JUMPDEST PUSH1 0x40 MLOAD PUSH2 0x246 SWAP2 SWAP1 PUSH2 0x1717 JUMP JUMPDEST PUSH1 0x40 MLOAD DUP1 SWAP2 SUB SWAP1 RETURN JUMPDEST PUSH1 0x0 DUP1 PUSH1 0x2 DUP2 GT ISZERO PUSH2 0x264 JUMPI PUSH2 0x263 PUSH2 0x149C JUMP JUMPDEST JUMPDEST PUSH1 0x0 DUP1 CALLER PUSH20 0xFFFFFFFFFFFFFFFFFFFFFFFFFFFFFFFFFFFFFFFF AND PUSH20 0xFFFFFFFFFFFFFFFFFFFFFFFFFFFFFFFFFFFFFFFF AND DUP2 MSTORE PUSH1 0x20 ADD SWAP1 DUP2 MSTORE PUSH1 0x20 ADD PUSH1 0x0 KECCAK256 PUSH1 0x0 SWAP1 SLOAD SWAP1 PUSH2 0x100 EXP SWAP1 DIV PUSH1 0xFF AND PUSH1 0x2 DUP2 GT ISZERO PUSH2 0x2C2 JUMPI PUSH2 0x2C1 PUSH2 0x149C JUMP JUMPDEST JUMPDEST EQ PUSH2 0x302 JUMPI PUSH1 0x40 MLOAD PUSH32 0x8C379A000000000000000000000000000000000000000000000000000000000 DUP2 MSTORE PUSH1 0x4 ADD PUSH2 0x2F9 SWAP1 PUSH2 0x177E JUMP JUMPDEST PUSH1 0x40 MLOAD DUP1 SWAP2 SUB SWAP1 REVERT JUMPDEST DUP2 PUSH1 0x0 DUP1 DUP6 PUSH20 0xFFFFFFFFFFFFFFFFFFFFFFFFFFFFFFFFFFFFFFFF AND PUSH20 0xFFFFFFFFFFFFFFFFFFFFFFFFFFFFFFFFFFFFFFFF AND DUP2 MSTORE PUSH1 0x20 ADD SWAP1 DUP2 MSTORE PUSH1 0x20 ADD PUSH1 0x0 KECCAK256 PUSH1 0x0 PUSH2 0x100 EXP DUP2 SLOAD DUP2 PUSH1 0xFF MUL NOT AND SWAP1 DUP4 PUSH1 0x2 DUP2 GT ISZERO PUSH2 0x363 JUMPI PUSH2 0x362 PUSH2 0x149C JUMP JUMPDEST JUMPDEST MUL OR SWAP1 SSTORE POP POP POP POP JUMP JUMPDEST PUSH1 0x2 DUP1 PUSH1 0x2 DUP2 GT ISZERO PUSH2 0x382 JUMPI PUSH2 0x381 PUSH2 0x149C JUMP JUMPDEST JUMPDEST PUSH1 0x0 DUP1 CALLER PUSH20 0xFFFFFFFFFFFFFFFFFFFFFFFFFFFFFFFFFFFFFFFF AND PUSH20 0xFFFFFFFFFFFFFFFFFFFFFFFFFFFFFFFFFFFFFFFF AND DUP2 MSTORE PUSH1 0x20 ADD SWAP1 DUP2 MSTORE PUSH1 0x20 ADD PUSH1 0x0 KECCAK256 PUSH1 0x0 SWAP1 SLOAD SWAP1 PUSH2 0x100 EXP SWAP1 DIV PUSH1 0xFF AND PUSH1 0x2 DUP2 GT ISZERO PUSH2 0x3E0 JUMPI PUSH2 0x3DF PUSH2 0x149C JUMP JUMPDEST JUMPDEST EQ PUSH2 0x420 JUMPI PUSH1 0x40 MLOAD PUSH32 0x8C379A000000000000000000000000000000000000000000000000000000000 DUP2 MSTORE PUSH1 0x4 ADD PUSH2 0x417 SWAP1 PUSH2 0x177E JUMP JUMPDEST PUSH1 0x40 MLOAD DUP1 SWAP2 SUB SWAP1 REVERT JUMPDEST PUSH1 0x0 PUSH1 0x2 PUSH1 0x0 DUP5 DUP2 MSTORE PUSH1 0x20 ADD SWAP1 DUP2 MSTORE PUSH1 0x20 ADD PUSH1 0x0 KECCAK256 SWAP1 POP PUSH1 0x5 PUSH1 0x0 SWAP1 SLOAD SWAP1 PUSH2 0x100 EXP SWAP1 DIV PUSH20 0xFFFFFFFFFFFFFFFFFFFFFFFFFFFFFFFFFFFFFFFF AND PUSH20 0xFFFFFFFFFFFFFFFFFFFFFFFFFFFFFFFFFFFFFFFF AND PUSH4 0x23B872DD CALLER DUP4 PUSH1 0x1 ADD PUSH1 0x0 SWAP1 SLOAD SWAP1 PUSH2 0x100 EXP SWAP1 DIV PUSH20 0xFFFFFFFFFFFFFFFFFFFFFFFFFFFFFFFFFFFFFFFF AND DUP5 PUSH1 0x2 ADD SLOAD PUSH1 0x40 MLOAD DUP5 PUSH4 0xFFFFFFFF AND PUSH1 0xE0 SHL DUP2 MSTORE PUSH1 0x4 ADD PUSH2 0x4BE SWAP4 SWAP3 SWAP2 SWAP1 PUSH2 0x179E JUMP JUMPDEST PUSH1 0x20 PUSH1 0x40 MLOAD DUP1 DUP4 SUB DUP2 PUSH1 0x0 DUP8 GAS CALL ISZERO DUP1 ISZERO PUSH2 0x4DD JUMPI RETURNDATASIZE PUSH1 0x0 DUP1 RETURNDATACOPY RETURNDATASIZE PUSH1 0x0 REVERT JUMPDEST POP POP POP POP PUSH1 0x40 MLOAD RETURNDATASIZE PUSH1 0x1F NOT PUSH1 0x1F DUP3 ADD AND DUP3 ADD DUP1 PUSH1 0x40 MSTORE POP DUP2 ADD SWAP1 PUSH2 0x501 SWAP2 SWAP1 PUSH2 0x1801 JUMP JUMPDEST PUSH2 0x540 JUMPI PUSH1 0x40 MLOAD PUSH32 0x8C379A000000000000000000000000000000000000000000000000000000000 DUP2 MSTORE PUSH1 0x4 ADD PUSH2 0x537 SWAP1 PUSH2 0x187A JUMP JUMPDEST PUSH1 0x40 MLOAD DUP1 SWAP2 SUB SWAP1 REVERT JUMPDEST PUSH1 0x0 PUSH1 0x4 PUSH1 0x0 DUP2 SLOAD DUP1 SWAP3 SWAP2 SWAP1 PUSH2 0x555 SWAP1 PUSH2 0x18C9 JUMP JUMPDEST SWAP2 SWAP1 POP SSTORE SWAP1 POP PUSH1 0x40 MLOAD DUP1 PUSH1 0x60 ADD PUSH1 0x40 MSTORE DUP1 DUP4 PUSH1 0x0 ADD DUP1 SLOAD PUSH2 0x575 SWAP1 PUSH2 0x1940 JUMP JUMPDEST DUP1 PUSH1 0x1F ADD PUSH1 0x20 DUP1 SWAP2 DIV MUL PUSH1 0x20 ADD PUSH1 0x40 MLOAD SWAP1 DUP2 ADD PUSH1 0x40 MSTORE DUP1 SWAP3 SWAP2 SWAP1 DUP2 DUP2 MSTORE PUSH1 0x20 ADD DUP3 DUP1 SLOAD PUSH2 0x5A1 SWAP1 PUSH2 0x1940 JUMP JUMPDEST DUP1 ISZERO PUSH2 0x5EE JUMPI DUP1 PUSH1 0x1F LT PUSH2 0x5C3 JUMPI PUSH2 0x100 DUP1 DUP4 SLOAD DIV MUL DUP4 MSTORE SWAP2 PUSH1 0x20 ADD SWAP2 PUSH2 0x5EE JUMP JUMPDEST DUP3 ADD SWAP2 SWAP1 PUSH1 0x0 MSTORE PUSH1 0x20 PUSH1 0x0 KECCAK256 SWAP1 JUMPDEST DUP2 SLOAD DUP2 MSTORE SWAP1 PUSH1 0x1 ADD SWAP1 PUSH1 0x20 ADD DUP1 DUP4 GT PUSH2 0x5D1 JUMPI DUP3 SWAP1 SUB PUSH1 0x1F AND DUP3 ADD SWAP2 JUMPDEST POP POP POP POP POP DUP2 MSTORE PUSH1 0x20 ADD CALLER PUSH20 0xFFFFFFFFFFFFFFFFFFFFFFFFFFFFFFFFFFFFFFFF AND DUP2 MSTORE PUSH1 0x20 ADD PUSH1 0x0 ISZERO ISZERO DUP2 MSTORE POP PUSH1 0x1 PUSH1 0x0 DUP4 DUP2 MSTORE PUSH1 0x20 ADD SWAP1 DUP2 MSTORE PUSH1 0x20 ADD PUSH1 0x0 KECCAK256 PUSH1 0x0 DUP3 ADD MLOAD DUP2 PUSH1 0x0 ADD SWAP1 DUP2 PUSH2 0x643 SWAP2 SWAP1 PUSH2 0x1B13 JUMP JUMPDEST POP PUSH1 0x20 DUP3 ADD MLOAD DUP2 PUSH1 0x1 ADD PUSH1 0x0 PUSH2 0x100 EXP DUP2 SLOAD DUP2 PUSH20 0xFFFFFFFFFFFFFFFFFFFFFFFFFFFFFFFFFFFFFFFF MUL NOT AND SWAP1 DUP4 PUSH20 0xFFFFFFFFFFFFFFFFFFFFFFFFFFFFFFFFFFFFFFFF AND MUL OR SWAP1 SSTORE POP PUSH1 0x40 DUP3 ADD MLOAD DUP2 PUSH1 0x1 ADD PUSH1 0x14 PUSH2 0x100 EXP DUP2 SLOAD DUP2 PUSH1 0xFF MUL NOT AND SWAP1 DUP4 ISZERO ISZERO MUL OR SWAP1 SSTORE POP SWAP1 POP POP POP POP POP POP JUMP JUMPDEST PUSH1 0x4 SLOAD DUP2 JUMP JUMPDEST PUSH1 0x2 DUP1 PUSH1 0x2 DUP2 GT ISZERO PUSH2 0x6CF JUMPI PUSH2 0x6CE PUSH2 0x149C JUMP JUMPDEST JUMPDEST PUSH1 0x0 DUP1 CALLER PUSH20 0xFFFFFFFFFFFFFFFFFFFFFFFFFFFFFFFFFFFFFFFF AND PUSH20 0xFFFFFFFFFFFFFFFFFFFFFFFFFFFFFFFFFFFFFFFF AND DUP2 MSTORE PUSH1 0x20 ADD SWAP1 DUP2 MSTORE PUSH1 0x20 ADD PUSH1 0x0 KECCAK256 PUSH1 0x0 SWAP1 SLOAD SWAP1 PUSH2 0x100 EXP SWAP1 DIV PUSH1 0xFF AND PUSH1 0x2 DUP2 GT ISZERO PUSH2 0x72D JUMPI PUSH2 0x72C PUSH2 0x149C JUMP JUMPDEST JUMPDEST EQ PUSH2 0x76D JUMPI PUSH1 0x40 MLOAD PUSH32 0x8C379A000000000000000000000000000000000000000000000000000000000 DUP2 MSTORE PUSH1 0x4 ADD PUSH2 0x764 SWAP1 PUSH2 0x177E JUMP JUMPDEST PUSH1 0x40 MLOAD DUP1 SWAP2 SUB SWAP1 REVERT JUMPDEST PUSH1 0x0 PUSH1 0x1 PUSH1 0x0 DUP5 DUP2 MSTORE PUSH1 0x20 ADD SWAP1 DUP2 MSTORE PUSH1 0x20 ADD PUSH1 0x0 KECCAK256 SWAP1 POP CALLER PUSH20 0xFFFFFFFFFFFFFFFFFFFFFFFFFFFFFFFFFFFFFFFF AND DUP2 PUSH1 0x1 ADD PUSH1 0x0 SWAP1 SLOAD SWAP1 PUSH2 0x100 EXP SWAP1 DIV PUSH20 0xFFFFFFFFFFFFFFFFFFFFFFFFFFFFFFFFFFFFFFFF AND PUSH20 0xFFFFFFFFFFFFFFFFFFFFFFFFFFFFFFFFFFFFFFFF AND EQ PUSH2 0x816 JUMPI PUSH1 0x40 MLOAD PUSH32 0x8C379A000000000000000000000000000000000000000000000000000000000 DUP2 MSTORE PUSH1 0x4 ADD PUSH2 0x80D SWAP1 PUSH2 0x1C57 JUMP JUMPDEST PUSH1 0x40 MLOAD DUP1 SWAP2 SUB SWAP1 REVERT JUMPDEST DUP1 PUSH1 0x1 ADD PUSH1 0x14 SWAP1 SLOAD SWAP1 PUSH2 0x100 EXP SWAP1 DIV PUSH1 0xFF AND ISZERO PUSH2 0x868 JUMPI PUSH1 0x40 MLOAD PUSH32 0x8C379A000000000000000000000000000000000000000000000000000000000 DUP2 MSTORE PUSH1 0x4 ADD PUSH2 0x85F SWAP1 PUSH2 0x1CE9 JUMP JUMPDEST PUSH1 0x40 MLOAD DUP1 SWAP2 SUB SWAP1 REVERT JUMPDEST PUSH1 0x0 PUSH1 0x5 PUSH1 0x0 SWAP1 SLOAD SWAP1 PUSH2 0x100 EXP SWAP1 DIV PUSH20 0xFFFFFFFFFFFFFFFFFFFFFFFFFFFFFFFFFFFFFFFF AND PUSH20 0xFFFFFFFFFFFFFFFFFFFFFFFFFFFFFFFFFFFFFFFF AND PUSH4 0x70A08231 ADDRESS PUSH1 0x40 MLOAD DUP3 PUSH4 0xFFFFFFFF AND PUSH1 0xE0 SHL DUP2 MSTORE PUSH1 0x4 ADD PUSH2 0x8C5 SWAP2 SWAP1 PUSH2 0x1D09 JUMP JUMPDEST PUSH1 0x20 PUSH1 0x40 MLOAD DUP1 DUP4 SUB DUP2 DUP7 GAS STATICCALL ISZERO DUP1 ISZERO PUSH2 0x8E2 JUMPI RETURNDATASIZE PUSH1 0x0 DUP1 RETURNDATACOPY RETURNDATASIZE PUSH1 0x0 REVERT JUMPDEST POP POP POP POP PUSH1 0x40 MLOAD RETURNDATASIZE PUSH1 0x1F NOT PUSH1 0x1F DUP3 ADD AND DUP3 ADD DUP1 PUSH1 0x40 MSTORE POP DUP2 ADD SWAP1 PUSH2 0x906 SWAP2 SWAP1 PUSH2 0x1D39 JUMP JUMPDEST SWAP1 POP PUSH1 0x5 PUSH1 0x0 SWAP1 SLOAD SWAP1 PUSH2 0x100 EXP SWAP1 DIV PUSH20 0xFFFFFFFFFFFFFFFFFFFFFFFFFFFFFFFFFFFFFFFF AND PUSH20 0xFFFFFFFFFFFFFFFFFFFFFFFFFFFFFFFFFFFFFFFF AND PUSH4 0xA9059CBB DUP4 PUSH1 0x1 ADD PUSH1 0x0 SWAP1 SLOAD SWAP1 PUSH2 0x100 EXP SWAP1 DIV PUSH20 0xFFFFFFFFFFFFFFFFFFFFFFFFFFFFFFFFFFFFFFFF AND DUP4 PUSH1 0x40 MLOAD DUP4 PUSH4 0xFFFFFFFF AND PUSH1 0xE0 SHL DUP2 MSTORE PUSH1 0x4 ADD PUSH2 0x989 SWAP3 SWAP2 SWAP1 PUSH2 0x1D66 JUMP JUMPDEST PUSH1 0x20 PUSH1 0x40 MLOAD DUP1 DUP4 SUB DUP2 PUSH1 0x0 DUP8 GAS CALL ISZERO DUP1 ISZERO PUSH2 0x9A8 JUMPI RETURNDATASIZE PUSH1 0x0 DUP1 RETURNDATACOPY RETURNDATASIZE PUSH1 0x0 REVERT JUMPDEST POP POP POP POP PUSH1 0x40 MLOAD RETURNDATASIZE PUSH1 0x1F NOT PUSH1 0x1F DUP3 ADD AND DUP3 ADD DUP1 PUSH1 0x40 MSTORE POP DUP2 ADD SWAP1 PUSH2 0x9CC SWAP2 SWAP1 PUSH2 0x1801 JUMP JUMPDEST PUSH2 0xA0B JUMPI PUSH1 0x40 MLOAD PUSH32 0x8C379A000000000000000000000000000000000000000000000000000000000 DUP2 MSTORE PUSH1 0x4 ADD PUSH2 0xA02 SWAP1 PUSH2 0x1DDB JUMP JUMPDEST PUSH1 0x40 MLOAD DUP1 SWAP2 SUB SWAP1 REVERT JUMPDEST PUSH1 0x1 DUP3 PUSH1 0x1 ADD PUSH1 0x14 PUSH2 0x100 EXP DUP2 SLOAD DUP2 PUSH1 0xFF MUL NOT AND SWAP1 DUP4 ISZERO ISZERO MUL OR SWAP1 SSTORE POP POP POP POP POP JUMP JUMPDEST PUSH1 0x0 PUSH1 0x1 PUSH1 0x0 DUP5 DUP2 MSTORE PUSH1 0x20 ADD SWAP1 DUP2 MSTORE PUSH1 0x20 ADD PUSH1 0x0 KECCAK256 SWAP1 POP CALLER PUSH20 0xFFFFFFFFFFFFFFFFFFFFFFFFFFFFFFFFFFFFFFFF AND DUP2 PUSH1 0x1 ADD PUSH1 0x0 SWAP1 SLOAD SWAP1 PUSH2 0x100 EXP SWAP1 DIV PUSH20 0xFFFFFFFFFFFFFFFFFFFFFFFFFFFFFFFFFFFFFFFF AND PUSH20 0xFFFFFFFFFFFFFFFFFFFFFFFFFFFFFFFFFFFFFFFF AND EQ PUSH2 0xAD7 JUMPI PUSH1 0x40 MLOAD PUSH32 0x8C379A000000000000000000000000000000000000000000000000000000000 DUP2 MSTORE PUSH1 0x4 ADD PUSH2 0xACE SWAP1 PUSH2 0x1C57 JUMP JUMPDEST PUSH1 0x40 MLOAD DUP1 SWAP2 SUB SWAP1 REVERT JUMPDEST DUP1 PUSH1 0x1 ADD PUSH1 0x14 SWAP1 SLOAD SWAP1 PUSH2 0x100 EXP SWAP1 DIV PUSH1 0xFF AND ISZERO PUSH2 0xB29 JUMPI PUSH1 0x40 MLOAD PUSH32 0x8C379A000000000000000000000000000000000000000000000000000000000 DUP2 MSTORE PUSH1 0x4 ADD PUSH2 0xB20 SWAP1 PUSH2 0x1E47 JUMP JUMPDEST PUSH1 0x40 MLOAD DUP1 SWAP2 SUB SWAP1 REVERT JUMPDEST PUSH1 0x5 PUSH1 0x0 SWAP1 SLOAD SWAP1 PUSH2 0x100 EXP SWAP1 DIV PUSH20 0xFFFFFFFFFFFFFFFFFFFFFFFFFFFFFFFFFFFFFFFF AND PUSH20 0xFFFFFFFFFFFFFFFFFFFFFFFFFFFFFFFFFFFFFFFF AND PUSH4 0x23B872DD CALLER ADDRESS DUP6 PUSH1 0x40 MLOAD DUP5 PUSH4 0xFFFFFFFF AND PUSH1 0xE0 SHL DUP2 MSTORE PUSH1 0x4 ADD PUSH2 0xB88 SWAP4 SWAP3 SWAP2 SWAP1 PUSH2 0x179E JUMP JUMPDEST PUSH1 0x20 PUSH1 0x40 MLOAD DUP1 DUP4 SUB DUP2 PUSH1 0x0 DUP8 GAS CALL ISZERO DUP1 ISZERO PUSH2 0xBA7 JUMPI RETURNDATASIZE PUSH1 0x0 DUP1 RETURNDATACOPY RETURNDATASIZE PUSH1 0x0 REVERT JUMPDEST POP POP POP POP PUSH1 0x40 MLOAD RETURNDATASIZE PUSH1 0x1F NOT PUSH1 0x1F DUP3 ADD AND DUP3 ADD DUP1 PUSH1 0x40 MSTORE POP DUP2 ADD SWAP1 PUSH2 0xBCB SWAP2 SWAP1 PUSH2 0x1801 JUMP JUMPDEST PUSH2 0xC0A JUMPI PUSH1 0x40 MLOAD PUSH32 0x8C379A000000000000000000000000000000000000000000000000000000000 DUP2 MSTORE PUSH1 0x4 ADD PUSH2 0xC01 SWAP1 PUSH2 0x1EB3 JUMP JUMPDEST PUSH1 0x40 MLOAD DUP1 SWAP2 SUB SWAP1 REVERT JUMPDEST POP POP POP JUMP JUMPDEST PUSH1 0x3 SLOAD DUP2 JUMP JUMPDEST PUSH1 0x1 DUP1 PUSH1 0x2 DUP2 GT ISZERO PUSH2 0xC2A JUMPI PUSH2 0xC29 PUSH2 0x149C JUMP JUMPDEST JUMPDEST PUSH1 0x0 DUP1 CALLER PUSH20 0xFFFFFFFFFFFFFFFFFFFFFFFFFFFFFFFFFFFFFFFF AND PUSH20 0xFFFFFFFFFFFFFFFFFFFFFFFFFFFFFFFFFFFFFFFF AND DUP2 MSTORE PUSH1 0x20 ADD SWAP1 DUP2 MSTORE PUSH1 0x20 ADD PUSH1 0x0 KECCAK256 PUSH1 0x0 SWAP1 SLOAD SWAP1 PUSH2 0x100 EXP SWAP1 DIV PUSH1 0xFF AND PUSH1 0x2 DUP2 GT ISZERO PUSH2 0xC88 JUMPI PUSH2 0xC87 PUSH2 0x149C JUMP JUMPDEST JUMPDEST EQ PUSH2 0xCC8 JUMPI PUSH1 0x40 MLOAD PUSH32 0x8C379A000000000000000000000000000000000000000000000000000000000 DUP2 MSTORE PUSH1 0x4 ADD PUSH2 0xCBF SWAP1 PUSH2 0x177E JUMP JUMPDEST PUSH1 0x40 MLOAD DUP1 SWAP2 SUB SWAP1 REVERT JUMPDEST PUSH2 0xCD1 DUP4 PUSH2 0x1108 JUMP JUMPDEST PUSH2 0xD10 JUMPI PUSH1 0x40 MLOAD PUSH32 0x8C379A000000000000000000000000000000000000000000000000000000000 DUP2 MSTORE PUSH1 0x4 ADD PUSH2 0xD07 SWAP1 PUSH2 0x1F1F JUMP JUMPDEST PUSH1 0x40 MLOAD DUP1 SWAP2 SUB SWAP1 REVERT JUMPDEST PUSH1 0x0 PUSH1 0x2 PUSH1 0x0 DUP7 DUP2 MSTORE PUSH1 0x20 ADD SWAP1 DUP2 MSTORE PUSH1 0x20 ADD PUSH1 0x0 KECCAK256 SWAP1 POP DUP4 DUP2 PUSH1 0x0 ADD SWAP1 DUP2 PUSH2 0xD38 SWAP2 SWAP1 PUSH2 0x1B13 JUMP JUMPDEST POP DUP3 DUP2 PUSH1 0x2 ADD DUP2 SWAP1 SSTORE POP POP POP POP POP POP JUMP JUMPDEST PUSH1 0x0 PUSH1 0x20 MSTORE DUP1 PUSH1 0x0 MSTORE PUSH1 0x40 PUSH1 0x0 KECCAK256 PUSH1 0x0 SWAP2 POP SLOAD SWAP1 PUSH2 0x100 EXP SWAP1 DIV PUSH1 0xFF AND DUP2 JUMP JUMPDEST PUSH1 0x1 DUP1 PUSH1 0x2 DUP2 GT ISZERO PUSH2 0xD7E JUMPI PUSH2 0xD7D PUSH2 0x149C JUMP JUMPDEST JUMPDEST PUSH1 0x0 DUP1 CALLER PUSH20 0xFFFFFFFFFFFFFFFFFFFFFFFFFFFFFFFFFFFFFFFF AND PUSH20 0xFFFFFFFFFFFFFFFFFFFFFFFFFFFFFFFFFFFFFFFF AND DUP2 MSTORE PUSH1 0x20 ADD SWAP1 DUP2 MSTORE PUSH1 0x20 ADD PUSH1 0x0 KECCAK256 PUSH1 0x0 SWAP1 SLOAD SWAP1 PUSH2 0x100 EXP SWAP1 DIV PUSH1 0xFF AND PUSH1 0x2 DUP2 GT ISZERO PUSH2 0xDDC JUMPI PUSH2 0xDDB PUSH2 0x149C JUMP JUMPDEST JUMPDEST EQ PUSH2 0xE1C JUMPI PUSH1 0x40 MLOAD PUSH32 0x8C379A000000000000000000000000000000000000000000000000000000000 DUP2 MSTORE PUSH1 0x4 ADD PUSH2 0xE13 SWAP1 PUSH2 0x177E JUMP JUMPDEST PUSH1 0x40 MLOAD DUP1 SWAP2 SUB SWAP1 REVERT JUMPDEST PUSH2 0xE25 DUP4 PUSH2 0x1108 JUMP JUMPDEST PUSH2 0xE64 JUMPI PUSH1 0x40 MLOAD PUSH32 0x8C379A000000000000000000000000000000000000000000000000000000000 DUP2 MSTORE PUSH1 0x4 ADD PUSH2 0xE5B SWAP1 PUSH2 0x1F1F JUMP JUMPDEST PUSH1 0x40 MLOAD DUP1 SWAP2 SUB SWAP1 REVERT JUMPDEST PUSH1 0x40 MLOAD DUP1 PUSH1 0x60 ADD PUSH1 0x40 MSTORE DUP1 DUP5 DUP2 MSTORE PUSH1 0x20 ADD CALLER PUSH20 0xFFFFFFFFFFFFFFFFFFFFFFFFFFFFFFFFFFFFFFFF AND DUP2 MSTORE PUSH1 0x20 ADD DUP4 DUP2 MSTORE POP PUSH1 0x2 PUSH1 0x0 PUSH1 0x3 SLOAD DUP2 MSTORE PUSH1 0x20 ADD SWAP1 DUP2 MSTORE PUSH1 0x20 ADD PUSH1 0x0 KECCAK256 PUSH1 0x0 DUP3 ADD MLOAD DUP2 PUSH1 0x0 ADD SWAP1 DUP2 PUSH2 0xEBF SWAP2 SWAP1 PUSH2 0x1B13 JUMP JUMPDEST POP PUSH1 0x20 DUP3 ADD MLOAD DUP2 PUSH1 0x1 ADD PUSH1 0x0 PUSH2 0x100 EXP DUP2 SLOAD DUP2 PUSH20 0xFFFFFFFFFFFFFFFFFFFFFFFFFFFFFFFFFFFFFFFF MUL NOT AND SWAP1 DUP4 PUSH20 0xFFFFFFFFFFFFFFFFFFFFFFFFFFFFFFFFFFFFFFFF AND MUL OR SWAP1 SSTORE POP PUSH1 0x40 DUP3 ADD MLOAD DUP2 PUSH1 0x2 ADD SSTORE SWAP1 POP POP PUSH1 0x3 PUSH1 0x0 DUP2 SLOAD DUP1 SWAP3 SWAP2 SWAP1 PUSH2 0xF27 SWAP1 PUSH2 0x18C9 JUMP JUMPDEST SWAP2 SWAP1 POP SSTORE POP POP POP POP JUMP JUMPDEST PUSH1 0x1 PUSH1 0x20 MSTORE DUP1 PUSH1 0x0 MSTORE PUSH1 0x40 PUSH1 0x0 KECCAK256 PUSH1 0x0 SWAP2 POP SWAP1 POP DUP1 PUSH1 0x0 ADD DUP1 SLOAD PUSH2 0xF54 SWAP1 PUSH2 0x1940 JUMP JUMPDEST DUP1 PUSH1 0x1F ADD PUSH1 0x20 DUP1 SWAP2 DIV MUL PUSH1 0x20 ADD PUSH1 0x40 MLOAD SWAP1 DUP2 ADD PUSH1 0x40 MSTORE DUP1 SWAP3 SWAP2 SWAP1 DUP2 DUP2 MSTORE PUSH1 0x20 ADD DUP3 DUP1 SLOAD PUSH2 0xF80 SWAP1 PUSH2 0x1940 JUMP JUMPDEST DUP1 ISZERO PUSH2 0xFCD JUMPI DUP1 PUSH1 0x1F LT PUSH2 0xFA2 JUMPI PUSH2 0x100 DUP1 DUP4 SLOAD DIV MUL DUP4 MSTORE SWAP2 PUSH1 0x20 ADD SWAP2 PUSH2 0xFCD JUMP JUMPDEST DUP3 ADD SWAP2 SWAP1 PUSH1 0x0 MSTORE PUSH1 0x20 PUSH1 0x0 KECCAK256 SWAP1 JUMPDEST DUP2 SLOAD DUP2 MSTORE SWAP1 PUSH1 0x1 ADD SWAP1 PUSH1 0x20 ADD DUP1 DUP4 GT PUSH2 0xFB0 JUMPI DUP3 SWAP1 SUB PUSH1 0x1F AND DUP3 ADD SWAP2 JUMPDEST POP POP POP POP POP SWAP1 DUP1 PUSH1 0x1 ADD PUSH1 0x0 SWAP1 SLOAD SWAP1 PUSH2 0x100 EXP SWAP1 DIV PUSH20 0xFFFFFFFFFFFFFFFFFFFFFFFFFFFFFFFFFFFFFFFF AND SWAP1 DUP1 PUSH1 0x1 ADD PUSH1 0x14 SWAP1 SLOAD SWAP1 PUSH2 0x100 EXP SWAP1 DIV PUSH1 0xFF AND SWAP1 POP DUP4 JUMP JUMPDEST PUSH1 0x2 PUSH1 0x20 MSTORE DUP1 PUSH1 0x0 MSTORE PUSH1 0x40 PUSH1 0x0 KECCAK256 PUSH1 0x0 SWAP2 POP SWAP1 POP DUP1 PUSH1 0x0 ADD DUP1 SLOAD PUSH2 0x1033 SWAP1 PUSH2 0x1940 JUMP JUMPDEST DUP1 PUSH1 0x1F ADD PUSH1 0x20 DUP1 SWAP2 DIV MUL PUSH1 0x20 ADD PUSH1 0x40 MLOAD SWAP1 DUP2 ADD PUSH1 0x40 MSTORE DUP1 SWAP3 SWAP2 SWAP1 DUP2 DUP2 MSTORE PUSH1 0x20 ADD DUP3 DUP1 SLOAD PUSH2 0x105F SWAP1 PUSH2 0x1940 JUMP JUMPDEST DUP1 ISZERO PUSH2 0x10AC JUMPI DUP1 PUSH1 0x1F LT PUSH2 0x1081 JUMPI PUSH2 0x100 DUP1 DUP4 SLOAD DIV MUL DUP4 MSTORE SWAP2 PUSH1 0x20 ADD SWAP2 PUSH2 0x10AC JUMP JUMPDEST DUP3 ADD SWAP2 SWAP1 PUSH1 0x0 MSTORE PUSH1 0x20 PUSH1 0x0 KECCAK256 SWAP1 JUMPDEST DUP2 SLOAD DUP2 MSTORE SWAP1 PUSH1 0x1 ADD SWAP1 PUSH1 0x20 ADD DUP1 DUP4 GT PUSH2 0x108F JUMPI DUP3 SWAP1 SUB PUSH1 0x1F AND DUP3 ADD SWAP2 JUMPDEST POP POP POP POP POP SWAP1 DUP1 PUSH1 0x1 ADD PUSH1 0x0 SWAP1 SLOAD SWAP1 PUSH2 0x100 EXP SWAP1 DIV PUSH20 0xFFFFFFFFFFFFFFFFFFFFFFFFFFFFFFFFFFFFFFFF AND SWAP1 DUP1 PUSH1 0x2 ADD SLOAD SWAP1 POP DUP4 JUMP JUMPDEST PUSH1 0x5 PUSH1 0x0 SWAP1 SLOAD SWAP1 PUSH2 0x100 EXP SWAP1 DIV PUSH20 0xFFFFFFFFFFFFFFFFFFFFFFFFFFFFFFFFFFFFFFFF AND DUP2 JUMP JUMPDEST PUSH1 0x0 PUSH1 0x2E DUP3 MLOAD EQ SWAP1 POP SWAP2 SWAP1 POP JUMP JUMPDEST PUSH1 0x0 PUSH1 0x40 MLOAD SWAP1 POP SWAP1 JUMP JUMPDEST PUSH1 0x0 DUP1 REVERT JUMPDEST PUSH1 0x0 DUP1 REVERT JUMPDEST PUSH1 0x0 PUSH20 0xFFFFFFFFFFFFFFFFFFFFFFFFFFFFFFFFFFFFFFFF DUP3 AND SWAP1 POP SWAP2 SWAP1 POP JUMP JUMPDEST PUSH1 0x0 PUSH2 0x1155 DUP3 PUSH2 0x112A JUMP JUMPDEST SWAP1 POP SWAP2 SWAP1 POP JUMP JUMPDEST PUSH2 0x1165 DUP2 PUSH2 0x114A JUMP JUMPDEST DUP2 EQ PUSH2 0x1170 JUMPI PUSH1 0x0 DUP1 REVERT JUMPDEST POP JUMP JUMPDEST PUSH1 0x0 DUP2 CALLDATALOAD SWAP1 POP PUSH2 0x1182 DUP2 PUSH2 0x115C JUMP JUMPDEST SWAP3 SWAP2 POP POP JUMP JUMPDEST PUSH1 0x3 DUP2 LT PUSH2 0x1195 JUMPI PUSH1 0x0 DUP1 REVERT JUMPDEST POP JUMP JUMPDEST PUSH1 0x0 DUP2 CALLDATALOAD SWAP1 POP PUSH2 0x11A7 DUP2 PUSH2 0x1188 JUMP JUMPDEST SWAP3 SWAP2 POP POP JUMP JUMPDEST PUSH1 0x0 DUP1 PUSH1 0x40 DUP4 DUP6 SUB SLT ISZERO PUSH2 0x11C4 JUMPI PUSH2 0x11C3 PUSH2 0x1120 JUMP JUMPDEST JUMPDEST PUSH1 0x0 PUSH2 0x11D2 DUP6 DUP3 DUP7 ADD PUSH2 0x1173 JUMP JUMPDEST SWAP3 POP POP PUSH1 0x20 PUSH2 0x11E3 DUP6 DUP3 DUP7 ADD PUSH2 0x1198 JUMP JUMPDEST SWAP2 POP POP SWAP3 POP SWAP3 SWAP1 POP JUMP JUMPDEST PUSH1 0x0 DUP2 SWAP1 POP SWAP2 SWAP1 POP JUMP JUMPDEST PUSH2 0x1200 DUP2 PUSH2 0x11ED JUMP JUMPDEST DUP2 EQ PUSH2 0x120B JUMPI PUSH1 0x0 DUP1 REVERT JUMPDEST POP JUMP JUMPDEST PUSH1 0x0 DUP2 CALLDATALOAD SWAP1 POP PUSH2 0x121D DUP2 PUSH2 0x11F7 JUMP JUMPDEST SWAP3 SWAP2 POP POP JUMP JUMPDEST PUSH1 0x0 PUSH1 0x20 DUP3 DUP5 SUB SLT ISZERO PUSH2 0x1239 JUMPI PUSH2 0x1238 PUSH2 0x1120 JUMP JUMPDEST JUMPDEST PUSH1 0x0 PUSH2 0x1247 DUP5 DUP3 DUP6 ADD PUSH2 0x120E JUMP JUMPDEST SWAP2 POP POP SWAP3 SWAP2 POP POP JUMP JUMPDEST PUSH2 0x1259 DUP2 PUSH2 0x11ED JUMP JUMPDEST DUP3 MSTORE POP POP JUMP JUMPDEST PUSH1 0x0 PUSH1 0x20 DUP3 ADD SWAP1 POP PUSH2 0x1274 PUSH1 0x0 DUP4 ADD DUP5 PUSH2 0x1250 JUMP JUMPDEST SWAP3 SWAP2 POP POP JUMP JUMPDEST PUSH1 0x0 DUP1 PUSH1 0x40 DUP4 DUP6 SUB SLT ISZERO PUSH2 0x1291 JUMPI PUSH2 0x1290 PUSH2 0x1120 JUMP JUMPDEST JUMPDEST PUSH1 0x0 PUSH2 0x129F DUP6 DUP3 DUP7 ADD PUSH2 0x120E JUMP JUMPDEST SWAP3 POP POP PUSH1 0x20 PUSH2 0x12B0 DUP6 DUP3 DUP7 ADD PUSH2 0x120E JUMP JUMPDEST SWAP2 POP POP SWAP3 POP SWAP3 SWAP1 POP JUMP JUMPDEST PUSH1 0x0 DUP1 REVERT JUMPDEST PUSH1 0x0 DUP1 REVERT JUMPDEST PUSH1 0x0 PUSH1 0x1F NOT PUSH1 0x1F DUP4 ADD AND SWAP1 POP SWAP2 SWAP1 POP JUMP JUMPDEST PUSH32 0x4E487B7100000000000000000000000000000000000000000000000000000000 PUSH1 0x0 MSTORE PUSH1 0x41 PUSH1 0x4 MSTORE PUSH1 0x24 PUSH1 0x0 REVERT JUMPDEST PUSH2 0x130D DUP3 PUSH2 0x12C4 JUMP JUMPDEST DUP2 ADD DUP2 DUP2 LT PUSH8 0xFFFFFFFFFFFFFFFF DUP3 GT OR ISZERO PUSH2 0x132C JUMPI PUSH2 0x132B PUSH2 0x12D5 JUMP JUMPDEST JUMPDEST DUP1 PUSH1 0x40 MSTORE POP POP POP JUMP JUMPDEST PUSH1 0x0 PUSH2 0x133F PUSH2 0x1116 JUMP JUMPDEST SWAP1 POP PUSH2 0x134B DUP3 DUP3 PUSH2 0x1304 JUMP JUMPDEST SWAP2 SWAP1 POP JUMP JUMPDEST PUSH1 0x0 PUSH8 0xFFFFFFFFFFFFFFFF DUP3 GT ISZERO PUSH2 0x136B JUMPI PUSH2 0x136A PUSH2 0x12D5 JUMP JUMPDEST JUMPDEST PUSH2 0x1374 DUP3 PUSH2 0x12C4 JUMP JUMPDEST SWAP1 POP PUSH1 0x20 DUP2 ADD SWAP1 POP SWAP2 SWAP1 POP JUMP JUMPDEST DUP3 DUP2 DUP4 CALLDATACOPY PUSH1 0x0 DUP4 DUP4 ADD MSTORE POP POP POP JUMP JUMPDEST PUSH1 0x0 PUSH2 0x13A3 PUSH2 0x139E DUP5 PUSH2 0x1350 JUMP JUMPDEST PUSH2 0x1335 JUMP JUMPDEST SWAP1 POP DUP3 DUP2 MSTORE PUSH1 0x20 DUP2 ADD DUP5 DUP5 DUP5 ADD GT ISZERO PUSH2 0x13BF JUMPI PUSH2 0x13BE PUSH2 0x12BF JUMP JUMPDEST JUMPDEST PUSH2 0x13CA DUP5 DUP3 DUP6 PUSH2 0x1381 JUMP JUMPDEST POP SWAP4 SWAP3 POP POP POP JUMP JUMPDEST PUSH1 0x0 DUP3 PUSH1 0x1F DUP4 ADD SLT PUSH2 0x13E7 JUMPI PUSH2 0x13E6 PUSH2 0x12BA JUMP JUMPDEST JUMPDEST DUP2 CALLDATALOAD PUSH2 0x13F7 DUP5 DUP3 PUSH1 0x20 DUP7 ADD PUSH2 0x1390 JUMP JUMPDEST SWAP2 POP POP SWAP3 SWAP2 POP POP JUMP JUMPDEST PUSH1 0x0 DUP1 PUSH1 0x0 PUSH1 0x60 DUP5 DUP7 SUB SLT ISZERO PUSH2 0x1419 JUMPI PUSH2 0x1418 PUSH2 0x1120 JUMP JUMPDEST JUMPDEST PUSH1 0x0 PUSH2 0x1427 DUP7 DUP3 DUP8 ADD PUSH2 0x120E JUMP JUMPDEST SWAP4 POP POP PUSH1 0x20 DUP5 ADD CALLDATALOAD PUSH8 0xFFFFFFFFFFFFFFFF DUP2 GT ISZERO PUSH2 0x1448 JUMPI PUSH2 0x1447 PUSH2 0x1125 JUMP JUMPDEST JUMPDEST PUSH2 0x1454 DUP7 DUP3 DUP8 ADD PUSH2 0x13D2 JUMP JUMPDEST SWAP3 POP POP PUSH1 0x40 PUSH2 0x1465 DUP7 DUP3 DUP8 ADD PUSH2 0x120E JUMP JUMPDEST SWAP2 POP POP SWAP3 POP SWAP3 POP SWAP3 JUMP JUMPDEST PUSH1 0x0 PUSH1 0x20 DUP3 DUP5 SUB SLT ISZERO PUSH2 0x1485 JUMPI PUSH2 0x1484 PUSH2 0x1120 JUMP JUMPDEST JUMPDEST PUSH1 0x0 PUSH2 0x1493 DUP5 DUP3 DUP6 ADD PUSH2 0x1173 JUMP JUMPDEST SWAP2 POP POP SWAP3 SWAP2 POP POP JUMP JUMPDEST PUSH32 0x4E487B7100000000000000000000000000000000000000000000000000000000 PUSH1 0x0 MSTORE PUSH1 0x21 PUSH1 0x4 MSTORE PUSH1 0x24 PUSH1 0x0 REVERT JUMPDEST PUSH1 0x3 DUP2 LT PUSH2 0x14DC JUMPI PUSH2 0x14DB PUSH2 0x149C JUMP JUMPDEST JUMPDEST POP JUMP JUMPDEST PUSH1 0x0 DUP2 SWAP1 POP PUSH2 0x14ED DUP3 PUSH2 0x14CB JUMP JUMPDEST SWAP2 SWAP1 POP JUMP JUMPDEST PUSH1 0x0 PUSH2 0x14FD DUP3 PUSH2 0x14DF JUMP JUMPDEST SWAP1 POP SWAP2 SWAP1 POP JUMP JUMPDEST PUSH2 0x150D DUP2 PUSH2 0x14F2 JUMP JUMPDEST DUP3 MSTORE POP POP JUMP JUMPDEST PUSH1 0x0 PUSH1 0x20 DUP3 ADD SWAP1 POP PUSH2 0x1528 PUSH1 0x0 DUP4 ADD DUP5 PUSH2 0x1504 JUMP JUMPDEST SWAP3 SWAP2 POP POP JUMP JUMPDEST PUSH1 0x0 DUP1 PUSH1 0x40 DUP4 DUP6 SUB SLT ISZERO PUSH2 0x1545 JUMPI PUSH2 0x1544 PUSH2 0x1120 JUMP JUMPDEST JUMPDEST PUSH1 0x0 DUP4 ADD CALLDATALOAD PUSH8 0xFFFFFFFFFFFFFFFF DUP2 GT ISZERO PUSH2 0x1563 JUMPI PUSH2 0x1562 PUSH2 0x1125 JUMP JUMPDEST JUMPDEST PUSH2 0x156F DUP6 DUP3 DUP7 ADD PUSH2 0x13D2 JUMP JUMPDEST SWAP3 POP POP PUSH1 0x20 PUSH2 0x1580 DUP6 DUP3 DUP7 ADD PUSH2 0x120E JUMP JUMPDEST SWAP2 POP POP SWAP3 POP SWAP3 SWAP1 POP JUMP JUMPDEST PUSH1 0x0 DUP2 MLOAD SWAP1 POP SWAP2 SWAP1 POP JUMP JUMPDEST PUSH1 0x0 DUP3 DUP3 MSTORE PUSH1 0x20 DUP3 ADD SWAP1 POP SWAP3 SWAP2 POP POP JUMP JUMPDEST PUSH1 0x0 JUMPDEST DUP4 DUP2 LT ISZERO PUSH2 0x15C4 JUMPI DUP1 DUP3 ADD MLOAD DUP2 DUP5 ADD MSTORE PUSH1 0x20 DUP2 ADD SWAP1 POP PUSH2 0x15A9 JUMP JUMPDEST DUP4 DUP2 GT ISZERO PUSH2 0x15D3 JUMPI PUSH1 0x0 DUP5 DUP5 ADD MSTORE JUMPDEST POP POP POP POP JUMP JUMPDEST PUSH1 0x0 PUSH2 0x15E4 DUP3 PUSH2 0x158A JUMP JUMPDEST PUSH2 0x15EE DUP2 DUP6 PUSH2 0x1595 JUMP JUMPDEST SWAP4 POP PUSH2 0x15FE DUP2 DUP6 PUSH1 0x20 DUP7 ADD PUSH2 0x15A6 JUMP JUMPDEST PUSH2 0x1607 DUP2 PUSH2 0x12C4 JUMP JUMPDEST DUP5 ADD SWAP2 POP POP SWAP3 SWAP2 POP POP JUMP JUMPDEST PUSH2 0x161B DUP2 PUSH2 0x114A JUMP JUMPDEST DUP3 MSTORE POP POP JUMP JUMPDEST PUSH1 0x0 DUP2 ISZERO ISZERO SWAP1 POP SWAP2 SWAP1 POP JUMP JUMPDEST PUSH2 0x1636 DUP2 PUSH2 0x1621 JUMP JUMPDEST DUP3 MSTORE POP POP JUMP JUMPDEST PUSH1 0x0 PUSH1 0x60 DUP3 ADD SWAP1 POP DUP2 DUP2 SUB PUSH1 0x0 DUP4 ADD MSTORE PUSH2 0x1656 DUP2 DUP7 PUSH2 0x15D9 JUMP JUMPDEST SWAP1 POP PUSH2 0x1665 PUSH1 0x20 DUP4 ADD DUP6 PUSH2 0x1612 JUMP JUMPDEST PUSH2 0x1672 PUSH1 0x40 DUP4 ADD DUP5 PUSH2 0x162D JUMP JUMPDEST SWAP5 SWAP4 POP POP POP POP JUMP JUMPDEST PUSH1 0x0 PUSH1 0x60 DUP3 ADD SWAP1 POP DUP2 DUP2 SUB PUSH1 0x0 DUP4 ADD MSTORE PUSH2 0x1694 DUP2 DUP7 PUSH2 0x15D9 JUMP JUMPDEST SWAP1 POP PUSH2 0x16A3 PUSH1 0x20 DUP4 ADD DUP6 PUSH2 0x1612 JUMP JUMPDEST PUSH2 0x16B0 PUSH1 0x40 DUP4 ADD DUP5 PUSH2 0x1250 JUMP JUMPDEST SWAP5 SWAP4 POP POP POP POP JUMP JUMPDEST PUSH1 0x0 DUP2 SWAP1 POP SWAP2 SWAP1 POP JUMP JUMPDEST PUSH1 0x0 PUSH2 0x16DD PUSH2 0x16D8 PUSH2 0x16D3 DUP5 PUSH2 0x112A JUMP JUMPDEST PUSH2 0x16B8 JUMP JUMPDEST PUSH2 0x112A JUMP JUMPDEST SWAP1 POP SWAP2 SWAP1 POP JUMP JUMPDEST PUSH1 0x0 PUSH2 0x16EF DUP3 PUSH2 0x16C2 JUMP JUMPDEST SWAP1 POP SWAP2 SWAP1 POP JUMP JUMPDEST PUSH1 0x0 PUSH2 0x1701 DUP3 PUSH2 0x16E4 JUMP JUMPDEST SWAP1 POP SWAP2 SWAP1 POP JUMP JUMPDEST PUSH2 0x1711 DUP2 PUSH2 0x16F6 JUMP JUMPDEST DUP3 MSTORE POP POP JUMP JUMPDEST PUSH1 0x0 PUSH1 0x20 DUP3 ADD SWAP1 POP PUSH2 0x172C PUSH1 0x0 DUP4 ADD DUP5 PUSH2 0x1708 JUMP JUMPDEST SWAP3 SWAP2 POP POP JUMP JUMPDEST PUSH32 0x556E617574686F72697A65640000000000000000000000000000000000000000 PUSH1 0x0 DUP3 ADD MSTORE POP JUMP JUMPDEST PUSH1 0x0 PUSH2 0x1768 PUSH1 0xC DUP4 PUSH2 0x1595 JUMP JUMPDEST SWAP2 POP PUSH2 0x1773 DUP3 PUSH2 0x1732 JUMP JUMPDEST PUSH1 0x20 DUP3 ADD SWAP1 POP SWAP2 SWAP1 POP JUMP JUMPDEST PUSH1 0x0 PUSH1 0x20 DUP3 ADD SWAP1 POP DUP2 DUP2 SUB PUSH1 0x0 DUP4 ADD MSTORE PUSH2 0x1797 DUP2 PUSH2 0x175B JUMP JUMPDEST SWAP1 POP SWAP2 SWAP1 POP JUMP JUMPDEST PUSH1 0x0 PUSH1 0x60 DUP3 ADD SWAP1 POP PUSH2 0x17B3 PUSH1 0x0 DUP4 ADD DUP7 PUSH2 0x1612 JUMP JUMPDEST PUSH2 0x17C0 PUSH1 0x20 DUP4 ADD DUP6 PUSH2 0x1612 JUMP JUMPDEST PUSH2 0x17CD PUSH1 0x40 DUP4 ADD DUP5 PUSH2 0x1250 JUMP JUMPDEST SWAP5 SWAP4 POP POP POP POP JUMP JUMPDEST PUSH2 0x17DE DUP2 PUSH2 0x1621 JUMP JUMPDEST DUP2 EQ PUSH2 0x17E9 JUMPI PUSH1 0x0 DUP1 REVERT JUMPDEST POP JUMP JUMPDEST PUSH1 0x0 DUP2 MLOAD SWAP1 POP PUSH2 0x17FB DUP2 PUSH2 0x17D5 JUMP JUMPDEST SWAP3 SWAP2 POP POP JUMP JUMPDEST PUSH1 0x0 PUSH1 0x20 DUP3 DUP5 SUB SLT ISZERO PUSH2 0x1817 JUMPI PUSH2 0x1816 PUSH2 0x1120 JUMP JUMPDEST JUMPDEST PUSH1 0x0 PUSH2 0x1825 DUP5 DUP3 DUP6 ADD PUSH2 0x17EC JUMP JUMPDEST SWAP2 POP POP SWAP3 SWAP2 POP POP JUMP JUMPDEST PUSH32 0x4661696C656420746F207472616E7366657220746F6B656E7300000000000000 PUSH1 0x0 DUP3 ADD MSTORE POP JUMP JUMPDEST PUSH1 0x0 PUSH2 0x1864 PUSH1 0x19 DUP4 PUSH2 0x1595 JUMP JUMPDEST SWAP2 POP PUSH2 0x186F DUP3 PUSH2 0x182E JUMP JUMPDEST PUSH1 0x20 DUP3 ADD SWAP1 POP SWAP2 SWAP1 POP JUMP JUMPDEST PUSH1 0x0 PUSH1 0x20 DUP3 ADD SWAP1 POP DUP2 DUP2 SUB PUSH1 0x0 DUP4 ADD MSTORE PUSH2 0x1893 DUP2 PUSH2 0x1857 JUMP JUMPDEST SWAP1 POP SWAP2 SWAP1 POP JUMP JUMPDEST PUSH32 0x4E487B7100000000000000000000000000000000000000000000000000000000 PUSH1 0x0 MSTORE PUSH1 0x11 PUSH1 0x4 MSTORE PUSH1 0x24 PUSH1 0x0 REVERT JUMPDEST PUSH1 0x0 PUSH2 0x18D4 DUP3 PUSH2 0x11ED JUMP JUMPDEST SWAP2 POP PUSH32 0xFFFFFFFFFFFFFFFFFFFFFFFFFFFFFFFFFFFFFFFFFFFFFFFFFFFFFFFFFFFFFFFF DUP3 SUB PUSH2 0x1906 JUMPI PUSH2 0x1905 PUSH2 0x189A JUMP JUMPDEST JUMPDEST PUSH1 0x1 DUP3 ADD SWAP1 POP SWAP2 SWAP1 POP JUMP JUMPDEST PUSH32 0x4E487B7100000000000000000000000000000000000000000000000000000000 PUSH1 0x0 MSTORE PUSH1 0x22 PUSH1 0x4 MSTORE PUSH1 0x24 PUSH1 0x0 REVERT JUMPDEST PUSH1 0x0 PUSH1 0x2 DUP3 DIV SWAP1 POP PUSH1 0x1 DUP3 AND DUP1 PUSH2 0x1958 JUMPI PUSH1 0x7F DUP3 AND SWAP2 POP JUMPDEST PUSH1 0x20 DUP3 LT DUP2 SUB PUSH2 0x196B JUMPI PUSH2 0x196A PUSH2 0x1911 JUMP JUMPDEST JUMPDEST POP SWAP2 SWAP1 POP JUMP JUMPDEST PUSH1 0x0 DUP2 SWAP1 POP DUP2 PUSH1 0x0 MSTORE PUSH1 0x20 PUSH1 0x0 KECCAK256 SWAP1 POP SWAP2 SWAP1 POP JUMP JUMPDEST PUSH1 0x0 PUSH1 0x20 PUSH1 0x1F DUP4 ADD DIV SWAP1 POP SWAP2 SWAP1 POP JUMP JUMPDEST PUSH1 0x0 DUP3 DUP3 SHL SWAP1 POP SWAP3 SWAP2 POP POP JUMP JUMPDEST PUSH1 0x0 PUSH1 0x8 DUP4 MUL PUSH2 0x19D3 PUSH32 0xFFFFFFFFFFFFFFFFFFFFFFFFFFFFFFFFFFFFFFFFFFFFFFFFFFFFFFFFFFFFFFFF DUP3 PUSH2 0x1996 JUMP JUMPDEST PUSH2 0x19DD DUP7 DUP4 PUSH2 0x1996 JUMP JUMPDEST SWAP6 POP DUP1 NOT DUP5 AND SWAP4 POP DUP1 DUP7 AND DUP5 OR SWAP3 POP POP POP SWAP4 SWAP3 POP POP POP JUMP JUMPDEST PUSH1 0x0 PUSH2 0x1A10 PUSH2 0x1A0B PUSH2 0x1A06 DUP5 PUSH2 0x11ED JUMP JUMPDEST PUSH2 0x16B8 JUMP JUMPDEST PUSH2 0x11ED JUMP JUMPDEST SWAP1 POP SWAP2 SWAP1 POP JUMP JUMPDEST PUSH1 0x0 DUP2 SWAP1 POP SWAP2 SWAP1 POP JUMP JUMPDEST PUSH2 0x1A2A DUP4 PUSH2 0x19F5 JUMP JUMPDEST PUSH2 0x1A3E PUSH2 0x1A36 DUP3 PUSH2 0x1A17 JUMP JUMPDEST DUP5 DUP5 SLOAD PUSH2 0x19A3 JUMP JUMPDEST DUP3 SSTORE POP POP POP POP JUMP JUMPDEST PUSH1 0x0 SWAP1 JUMP JUMPDEST PUSH2 0x1A53 PUSH2 0x1A46 JUMP JUMPDEST PUSH2 0x1A5E DUP2 DUP5 DUP5 PUSH2 0x1A21 JUMP JUMPDEST POP POP POP JUMP JUMPDEST JUMPDEST DUP2 DUP2 LT ISZERO PUSH2 0x1A82 JUMPI PUSH2 0x1A77 PUSH1 0x0 DUP3 PUSH2 0x1A4B JUMP JUMPDEST PUSH1 0x1 DUP2 ADD SWAP1 POP PUSH2 0x1A64 JUMP JUMPDEST POP POP JUMP JUMPDEST PUSH1 0x1F DUP3 GT ISZERO PUSH2 0x1AC7 JUMPI PUSH2 0x1A98 DUP2 PUSH2 0x1971 JUMP JUMPDEST PUSH2 0x1AA1 DUP5 PUSH2 0x1986 JUMP JUMPDEST DUP2 ADD PUSH1 0x20 DUP6 LT ISZERO PUSH2 0x1AB0 JUMPI DUP2 SWAP1 POP JUMPDEST PUSH2 0x1AC4 PUSH2 0x1ABC DUP6 PUSH2 0x1986 JUMP JUMPDEST DUP4 ADD DUP3 PUSH2 0x1A63 JUMP JUMPDEST POP POP JUMPDEST POP POP POP JUMP JUMPDEST PUSH1 0x0 DUP3 DUP3 SHR SWAP1 POP SWAP3 SWAP2 POP POP JUMP JUMPDEST PUSH1 0x0 PUSH2 0x1AEA PUSH1 0x0 NOT DUP5 PUSH1 0x8 MUL PUSH2 0x1ACC JUMP JUMPDEST NOT DUP1 DUP4 AND SWAP2 POP POP SWAP3 SWAP2 POP POP JUMP JUMPDEST PUSH1 0x0 PUSH2 0x1B03 DUP4 DUP4 PUSH2 0x1AD9 JUMP JUMPDEST SWAP2 POP DUP3 PUSH1 0x2 MUL DUP3 OR SWAP1 POP SWAP3 SWAP2 POP POP JUMP JUMPDEST PUSH2 0x1B1C DUP3 PUSH2 0x158A JUMP JUMPDEST PUSH8 0xFFFFFFFFFFFFFFFF DUP2 GT ISZERO PUSH2 0x1B35 JUMPI PUSH2 0x1B34 PUSH2 0x12D5 JUMP JUMPDEST JUMPDEST PUSH2 0x1B3F DUP3 SLOAD PUSH2 0x1940 JUMP JUMPDEST PUSH2 0x1B4A DUP3 DUP3 DUP6 PUSH2 0x1A86 JUMP JUMPDEST PUSH1 0x0 PUSH1 0x20 SWAP1 POP PUSH1 0x1F DUP4 GT PUSH1 0x1 DUP2 EQ PUSH2 0x1B7D JUMPI PUSH1 0x0 DUP5 ISZERO PUSH2 0x1B6B JUMPI DUP3 DUP8 ADD MLOAD SWAP1 POP JUMPDEST PUSH2 0x1B75 DUP6 DUP3 PUSH2 0x1AF7 JUMP JUMPDEST DUP7 SSTORE POP PUSH2 0x1BDD JUMP JUMPDEST PUSH1 0x1F NOT DUP5 AND PUSH2 0x1B8B DUP7 PUSH2 0x1971 JUMP JUMPDEST PUSH1 0x0 JUMPDEST DUP3 DUP2 LT ISZERO PUSH2 0x1BB3 JUMPI DUP5 DUP10 ADD MLOAD DUP3 SSTORE PUSH1 0x1 DUP3 ADD SWAP2 POP PUSH1 0x20 DUP6 ADD SWAP5 POP PUSH1 0x20 DUP2 ADD SWAP1 POP PUSH2 0x1B8E JUMP JUMPDEST DUP7 DUP4 LT ISZERO PUSH2 0x1BD0 JUMPI DUP5 DUP10 ADD MLOAD PUSH2 0x1BCC PUSH1 0x1F DUP10 AND DUP3 PUSH2 0x1AD9 JUMP JUMPDEST DUP4 SSTORE POP JUMPDEST PUSH1 0x1 PUSH1 0x2 DUP9 MUL ADD DUP9 SSTORE POP POP POP JUMPDEST POP POP POP POP POP POP JUMP JUMPDEST PUSH32 0x596F7520617265206E6F7420746865206275796572206F662074686973207075 PUSH1 0x0 DUP3 ADD MSTORE PUSH32 0x7263686173650000000000000000000000000000000000000000000000000000 PUSH1 0x20 DUP3 ADD MSTORE POP JUMP JUMPDEST PUSH1 0x0 PUSH2 0x1C41 PUSH1 0x26 DUP4 PUSH2 0x1595 JUMP JUMPDEST SWAP2 POP PUSH2 0x1C4C DUP3 PUSH2 0x1BE5 JUMP JUMPDEST PUSH1 0x40 DUP3 ADD SWAP1 POP SWAP2 SWAP1 POP JUMP JUMPDEST PUSH1 0x0 PUSH1 0x20 DUP3 ADD SWAP1 POP DUP2 DUP2 SUB PUSH1 0x0 DUP4 ADD MSTORE PUSH2 0x1C70 DUP2 PUSH2 0x1C34 JUMP JUMPDEST SWAP1 POP SWAP2 SWAP1 POP JUMP JUMPDEST PUSH32 0x546869732070757263686173652068617320616C7265616479206265656E2072 PUSH1 0x0 DUP3 ADD MSTORE PUSH32 0x6566756E64656400000000000000000000000000000000000000000000000000 PUSH1 0x20 DUP3 ADD MSTORE POP JUMP JUMPDEST PUSH1 0x0 PUSH2 0x1CD3 PUSH1 0x27 DUP4 PUSH2 0x1595 JUMP JUMPDEST SWAP2 POP PUSH2 0x1CDE DUP3 PUSH2 0x1C77 JUMP JUMPDEST PUSH1 0x40 DUP3 ADD SWAP1 POP SWAP2 SWAP1 POP JUMP JUMPDEST PUSH1 0x0 PUSH1 0x20 DUP3 ADD SWAP1 POP DUP2 DUP2 SUB PUSH1 0x0 DUP4 ADD MSTORE PUSH2 0x1D02 DUP2 PUSH2 0x1CC6 JUMP JUMPDEST SWAP1 POP SWAP2 SWAP1 POP JUMP JUMPDEST PUSH1 0x0 PUSH1 0x20 DUP3 ADD SWAP1 POP PUSH2 0x1D1E PUSH1 0x0 DUP4 ADD DUP5 PUSH2 0x1612 JUMP JUMPDEST SWAP3 SWAP2 POP POP JUMP JUMPDEST PUSH1 0x0 DUP2 MLOAD SWAP1 POP PUSH2 0x1D33 DUP2 PUSH2 0x11F7 JUMP JUMPDEST SWAP3 SWAP2 POP POP JUMP JUMPDEST PUSH1 0x0 PUSH1 0x20 DUP3 DUP5 SUB SLT ISZERO PUSH2 0x1D4F JUMPI PUSH2 0x1D4E PUSH2 0x1120 JUMP JUMPDEST JUMPDEST PUSH1 0x0 PUSH2 0x1D5D DUP5 DUP3 DUP6 ADD PUSH2 0x1D24 JUMP JUMPDEST SWAP2 POP POP SWAP3 SWAP2 POP POP JUMP JUMPDEST PUSH1 0x0 PUSH1 0x40 DUP3 ADD SWAP1 POP PUSH2 0x1D7B PUSH1 0x0 DUP4 ADD DUP6 PUSH2 0x1612 JUMP JUMPDEST PUSH2 0x1D88 PUSH1 0x20 DUP4 ADD DUP5 PUSH2 0x1250 JUMP JUMPDEST SWAP4 SWAP3 POP POP POP JUMP JUMPDEST PUSH32 0x526566756E64206661696C656400000000000000000000000000000000000000 PUSH1 0x0 DUP3 ADD MSTORE POP JUMP JUMPDEST PUSH1 0x0 PUSH2 0x1DC5 PUSH1 0xD DUP4 PUSH2 0x1595 JUMP JUMPDEST SWAP2 POP PUSH2 0x1DD0 DUP3 PUSH2 0x1D8F JUMP JUMPDEST PUSH1 0x20 DUP3 ADD SWAP1 POP SWAP2 SWAP1 POP JUMP JUMPDEST PUSH1 0x0 PUSH1 0x20 DUP3 ADD SWAP1 POP DUP2 DUP2 SUB PUSH1 0x0 DUP4 ADD MSTORE PUSH2 0x1DF4 DUP2 PUSH2 0x1DB8 JUMP JUMPDEST SWAP1 POP SWAP2 SWAP1 POP JUMP JUMPDEST PUSH32 0x5468697320707572636861736520686173206265656E20726566756E64656400 PUSH1 0x0 DUP3 ADD MSTORE POP JUMP JUMPDEST PUSH1 0x0 PUSH2 0x1E31 PUSH1 0x1F DUP4 PUSH2 0x1595 JUMP JUMPDEST SWAP2 POP PUSH2 0x1E3C DUP3 PUSH2 0x1DFB JUMP JUMPDEST PUSH1 0x20 DUP3 ADD SWAP1 POP SWAP2 SWAP1 POP JUMP JUMPDEST PUSH1 0x0 PUSH1 0x20 DUP3 ADD SWAP1 POP DUP2 DUP2 SUB PUSH1 0x0 DUP4 ADD MSTORE PUSH2 0x1E60 DUP2 PUSH2 0x1E24 JUMP JUMPDEST SWAP1 POP SWAP2 SWAP1 POP JUMP JUMPDEST PUSH32 0x546F6B656E207472616E73666572206661696C65640000000000000000000000 PUSH1 0x0 DUP3 ADD MSTORE POP JUMP JUMPDEST PUSH1 0x0 PUSH2 0x1E9D PUSH1 0x15 DUP4 PUSH2 0x1595 JUMP JUMPDEST SWAP2 POP PUSH2 0x1EA8 DUP3 PUSH2 0x1E67 JUMP JUMPDEST PUSH1 0x20 DUP3 ADD SWAP1 POP SWAP2 SWAP1 POP JUMP JUMPDEST PUSH1 0x0 PUSH1 0x20 DUP3 ADD SWAP1 POP DUP2 DUP2 SUB PUSH1 0x0 DUP4 ADD MSTORE PUSH2 0x1ECC DUP2 PUSH2 0x1E90 JUMP JUMPDEST SWAP1 POP SWAP2 SWAP1 POP JUMP JUMPDEST PUSH32 0x496E76616C696420434944000000000000000000000000000000000000000000 PUSH1 0x0 DUP3 ADD MSTORE POP JUMP JUMPDEST PUSH1 0x0 PUSH2 0x1F09 PUSH1 0xB DUP4 PUSH2 0x1595 JUMP JUMPDEST SWAP2 POP PUSH2 0x1F14 DUP3 PUSH2 0x1ED3 JUMP JUMPDEST PUSH1 0x20 DUP3 ADD SWAP1 POP SWAP2 SWAP1 POP JUMP JUMPDEST PUSH1 0x0 PUSH1 0x20 DUP3 ADD SWAP1 POP DUP2 DUP2 SUB PUSH1 0x0 DUP4 ADD MSTORE PUSH2 0x1F38 DUP2 PUSH2 0x1EFC JUMP JUMPDEST SWAP1 POP SWAP2 SWAP1 POP JUMP INVALID LOG2 PUSH5 0x6970667358 0x22 SLT KECCAK256 DUP14 0xC0 0xCF DUP5 SSTORE 0xEA 0xD0 0xE7 0x1F SWAP7 SLOAD 0xEE PUSH4 0x3A9DCA8D DUP12 0xA7 0xB5 CALL LOG4 SWAP12 0xF9 SLT DUP16 DUP7 SWAP15 PUSH31 0xA369FE64736F6C634300080F00330000000000000000000000000000000000 "
				},
				"gasEstimates": {
					"creation": {
						"codeDepositCost": "1610600",
						"executionCost": "infinite",
						"totalCost": "infinite"
					},
					"external": {
						"createOffer(string,uint256)": "infinite",
						"nextOfferId()": "2540",
						"nextPurchaseId()": "2474",
						"offers(uint256)": "infinite",
						"payWithToken(uint256,uint256)": "infinite",
						"purchaseOffer(uint256)": "infinite",
						"purchases(uint256)": "infinite",
						"refund(uint256)": "infinite",
						"setUserRole(address,uint8)": "27268",
						"token()": "infinite",
						"updateOffer(uint256,string,uint256)": "infinite",
						"userRoles(address)": "2956"
					},
					"internal": {
						"isValidCID(string memory)": "infinite"
					}
				},
				"methodIdentifiers": {
					"createOffer(string,uint256)": "7e0b455b",
					"nextOfferId()": "5f5d0655",
					"nextPurchaseId()": "23b4a7a3",
					"offers(uint256)": "8a72ea6a",
					"payWithToken(uint256,uint256)": "2839376f",
					"purchaseOffer(uint256)": "0ce2e153",
					"purchases(uint256)": "8392fe31",
					"refund(uint256)": "278ecde1",
					"setUserRole(address,uint8)": "03a69611",
					"token()": "fc0c546a",
					"updateOffer(uint256,string,uint256)": "6ecbba0d",
					"userRoles(address)": "74d5e100"
				}
			},
			"storageLayout": {
				"storage": [
					{
						"astId": 52,
						"contract": "contracts/Marketplace.sol:Marketplace",
						"label": "userRoles",
						"offset": 0,
						"slot": "0",
						"type": "t_mapping(t_address,t_enum(UserRole)47)"
					},
					{
						"astId": 57,
						"contract": "contracts/Marketplace.sol:Marketplace",
						"label": "purchases",
						"offset": 0,
						"slot": "1",
						"type": "t_mapping(t_uint256,t_struct(Purchase)36_storage)"
					},
					{
						"astId": 62,
						"contract": "contracts/Marketplace.sol:Marketplace",
						"label": "offers",
						"offset": 0,
						"slot": "2",
						"type": "t_mapping(t_uint256,t_struct(Offer)43_storage)"
					},
					{
						"astId": 64,
						"contract": "contracts/Marketplace.sol:Marketplace",
						"label": "nextOfferId",
						"offset": 0,
						"slot": "3",
						"type": "t_uint256"
					},
					{
						"astId": 66,
						"contract": "contracts/Marketplace.sol:Marketplace",
						"label": "nextPurchaseId",
						"offset": 0,
						"slot": "4",
						"type": "t_uint256"
					},
					{
						"astId": 69,
						"contract": "contracts/Marketplace.sol:Marketplace",
						"label": "token",
						"offset": 0,
						"slot": "5",
						"type": "t_contract(ERC20)29"
					}
				],
				"types": {
					"t_address": {
						"encoding": "inplace",
						"label": "address",
						"numberOfBytes": "20"
					},
					"t_bool": {
						"encoding": "inplace",
						"label": "bool",
						"numberOfBytes": "1"
					},
					"t_contract(ERC20)29": {
						"encoding": "inplace",
						"label": "contract ERC20",
						"numberOfBytes": "20"
					},
					"t_enum(UserRole)47": {
						"encoding": "inplace",
						"label": "enum Marketplace.UserRole",
						"numberOfBytes": "1"
					},
					"t_mapping(t_address,t_enum(UserRole)47)": {
						"encoding": "mapping",
						"key": "t_address",
						"label": "mapping(address => enum Marketplace.UserRole)",
						"numberOfBytes": "32",
						"value": "t_enum(UserRole)47"
					},
					"t_mapping(t_uint256,t_struct(Offer)43_storage)": {
						"encoding": "mapping",
						"key": "t_uint256",
						"label": "mapping(uint256 => struct Marketplace.Offer)",
						"numberOfBytes": "32",
						"value": "t_struct(Offer)43_storage"
					},
					"t_mapping(t_uint256,t_struct(Purchase)36_storage)": {
						"encoding": "mapping",
						"key": "t_uint256",
						"label": "mapping(uint256 => struct Marketplace.Purchase)",
						"numberOfBytes": "32",
						"value": "t_struct(Purchase)36_storage"
					},
					"t_string_storage": {
						"encoding": "bytes",
						"label": "string",
						"numberOfBytes": "32"
					},
					"t_struct(Offer)43_storage": {
						"encoding": "inplace",
						"label": "struct Marketplace.Offer",
						"members": [
							{
								"astId": 38,
								"contract": "contracts/Marketplace.sol:Marketplace",
								"label": "offerCID",
								"offset": 0,
								"slot": "0",
								"type": "t_string_storage"
							},
							{
								"astId": 40,
								"contract": "contracts/Marketplace.sol:Marketplace",
								"label": "seller",
								"offset": 0,
								"slot": "1",
								"type": "t_address"
							},
							{
								"astId": 42,
								"contract": "contracts/Marketplace.sol:Marketplace",
								"label": "price",
								"offset": 0,
								"slot": "2",
								"type": "t_uint256"
							}
						],
						"numberOfBytes": "96"
					},
					"t_struct(Purchase)36_storage": {
						"encoding": "inplace",
						"label": "struct Marketplace.Purchase",
						"members": [
							{
								"astId": 31,
								"contract": "contracts/Marketplace.sol:Marketplace",
								"label": "purchaseCID",
								"offset": 0,
								"slot": "0",
								"type": "t_string_storage"
							},
							{
								"astId": 33,
								"contract": "contracts/Marketplace.sol:Marketplace",
								"label": "buyer",
								"offset": 0,
								"slot": "1",
								"type": "t_address"
							},
							{
								"astId": 35,
								"contract": "contracts/Marketplace.sol:Marketplace",
								"label": "refunded",
								"offset": 20,
								"slot": "1",
								"type": "t_bool"
							}
						],
						"numberOfBytes": "64"
					},
					"t_uint256": {
						"encoding": "inplace",
						"label": "uint256",
						"numberOfBytes": "32"
					}
				}
			},
			"userdoc": {
				"kind": "user",
				"methods": {},
				"version": 1
			}
		}
	}
}